:100000000C94F9000C9423010C9423010C9423010B
:100010000C9423010C9423010C9423010C942301D0
:100020000C9423010C9423010C9423010C942301C0
:100030000C9423010C94FB070C9423010C942301D2
:100040000C9423010C944E080C9423010C9423016E
:100050000C9423010C94AD080C9423010C943406E9
:100060000C9423010C94A8060C947E060C94230196
:100070000C9423010C9423010C9423010C94230170
:100080000C949C070C9423010C9423010C942301E1
:100090000C9423010C9423010C9423010C94230150
:1000A0000C9423010C9423010C943D070C94230120
:1000B0000C9423010C9423010C9423010C94DE0670
:1000C0000C9423010C9423010C9423010C94230120
:1000D0000C9423010C9423010C9423010C94230110
:1000E0000C94230102030405010000000A0B02091D
:1000F0000C0D0E08070304010000000000000000C2
:1001000000000000000000000000000000000000EF
:1001100000000000000012111000000000000000AC
:1001200000000000000000000000000000000000CF
:1001300000002200250028002B002E003100340092
:1001400002010000050108010B010000210024004C
:1001500027002A002D0030003300010100000401B7
:1001600007010A0105050505070508080808020238
:1001700002020A0A08080404040401010101010141
:1001800001010303030303030303040707070C0C24
:100190000C0C0C0C0C0C02020202060606060606EB
:1001A00006060B0B0B0B0B0B0B0B01021020200890
:1001B00008102040102040800201020108040201C2
:1001C0000102040810204080804020100804020131
:1001D000800402018040201008040201080402018A
:1001E0000102040810204080010204081020408011
:1001F0005F0B11241FBECFEFD1E2DEBFCDBF12E0F7
:10020000A0E0B2E0E2E1FAE100E00BBF02C007903B
:100210000D92AA33B107D9F723E0AAE3B2E001C0F7
:100220001D92AA31B207E1F710E0C9EFD0E004C097
:100230002197FE010E94DC0CC83FD107C9F70E943C
:100240000C090C94070D0C94000090E0FC01E6559D
:10025000FE4F24918C599E4FFC018491882399F084
:1002600090E0880F991FFC01E65BFE4FA591B491C9
:10027000FC01E05DFE4F859194918FB7F894EC916D
:10028000E22BEC938FBF08958F929F92AF92BF9213
:10029000CF92DF92EF92FF921F93CF93DF93EC0107
:1002A0006B0188810E9425011981F12CE12C812F9D
:1002B0008D7F09F0FEC060E072E18AE790E0A7015F
:1002C00096010E94BD0C49015A01BA01A901415091
:1002D0005109610971094F3F51056105710509F027
:1002E0000CF4C6C060E472E48FE090E0A7019601D0
:1002F0000E94BD0CBA01A90141505109610971095F
:10030000123009F072C082E04F3F5105610571055E
:1003100009F00CF463C060E970ED83E090E0A701A0
:1003200096010E94BD0CBA01A90141505109610911
:10033000710983E04F3F51056105710509F00CF427
:100340004DC068E478EE81E090E0A70196010E943C
:10035000BD0CBA01A901415051096109710984E03C
:100360004F3F510561057105C9F1C4F164E274EFB5
:1003700080E090E0A70196010E94BD0CBA01A9019E
:10038000415051096109710985E04F3F51056105EF
:10039000710521F118F162E17AE780E090E0A701B0
:1003A00096010E94BD0CBA01A90141505109610991
:1003B000710986E04F3F51056105710579F070F0D4
:1003C000B501A4018AE075956795579547958A957B
:1003D000D1F7415051096109710987E09091B1004D
:1003E000987F892B8093B1004AC04F3F510561052A
:1003F000710509F00CF45BC068E478EE81E090E0F0
:10040000A70196010E94BD0CBA01A90141505109F2
:100410006109710984E01111B8CF83E04F3F5105A4
:100420006105710541F13CF162E17AE780E090E01D
:10043000A70196010E94BD0CBA01A90141505109C2
:100440006109710984E04F3F51056105710599F01B
:1004500090F0B501A4019AE0759567955795479579
:100460009A95D1F7415051096109710985E003C09E
:1004700081E01111B3CF95B5987F892B85BD898116
:10048000823009F4A3C00CF05DC0882309F477C062
:10049000813009F486C0DF91CF911F91FF90EF90DA
:1004A000DF90CF90BF90AF909F908F90089582E0A3
:1004B000E0CF60E072E18AE790E0A70196010E9438
:1004C000BD0CBA01A901415051096109710991E0BE
:1004D0004115510581E0680771057CF068E478EE0C
:1004E00081E090E0A70196010E94BD0CBA01A9012C
:1004F000415051096109710993E0113039F480913B
:100500008100887F892B80938100B9CF133039F423
:1005100080919100887F892B80939100B0CF143017
:1005200039F48091A100887F892B8093A100A7CF07
:10053000153009F0A4CF80912101887F892B809309
:1005400021019DCF843009F469C00CF452C085307C
:1005500009F0A1CF50932901409328018FEF9FEF1D
:10056000DC018093020390930303A0930403B093F0
:100570000503809173008260809373008CCF47BD28
:100580008FEF9FEFDC018093160390931703A093E6
:100590001803B093190380916E00826080936E00FF
:1005A0007ACF50938900409388008FEF9FEFDC0152
:1005B0008093120390931303A0931403B093150335
:1005C00080916F00826080936F0065CF4093B3008D
:1005D0008FEF9FEFDC0180930E0390930F03A093A6
:1005E0001003B093110380917000826080937000BB
:1005F00052CF50939900409398008FEF9FEFDC010A
:1006000080930A0390930B03A0930C03B0930D0304
:10061000809171008260809371003DCF5093A9005A
:100620004093A8008FEF9FEFDC0180930603909327
:100630000703A0930803B0930903809172008260BE
:100640008093720028CFAF92BF92CF92DF92EF9249
:10065000FF920F931F93CF93DF936C017B018B016C
:10066000040F151FEB015E01AE18BF08C017D107BC
:1006700059F06991D601ED91FC910190F081E02D46
:10068000C6010995892B79F7C501DF91CF911F919B
:100690000F91FF90EF90DF90CF90BF90AF900895B3
:1006A000FC01538D448D252F30E0842F90E0821B78
:1006B000930B541710F0CF96089501970895FC01FD
:1006C000918D828D981761F0A28DAE0FBF2FB11D55
:1006D0005D968C91928D9F5F9F73928F90E00895AD
:1006E0008FEF9FEF0895FC01918D828D981731F067
:1006F000828DE80FF11D858D90E008958FEF9FEFBB
:100700000895FC01918D228D892F90E0805C9F4F90
:10071000821B91098F73992708958CE592E00E94BE
:10072000810321E0892B09F420E0822F0895FC0148
:10073000A48DA80FB92FB11DA35ABF4F2C91848D42
:1007400090E001968F739927848FA689B7892C939F
:10075000A089B1898C91837080648C93938D848DF2
:10076000981306C00288F389E02D80818F7D8083F5
:100770000895EF92FF920F931F93CF93DF93EC01B5
:1007800081E0888F9B8D8C8D98131AC0E889F98938
:10079000808185FF15C09FB7F894EE89FF8960833B
:1007A000E889F98980818370806480839FBF81E0BC
:1007B00090E0DF91CF911F910F91FF90EF900895FE
:1007C000F62E0B8D10E00F5F1F4F0F731127E02ED9
:1007D0008C8D8E110CC00FB607FCFACFE889F98911
:1007E000808185FFF5CFCE010E949703F1CFEB8D7D
:1007F000EC0FFD2FF11DE35AFF4FF0829FB7F894E5
:100800000B8FEA89FB8980818062CFCFCF93DF9302
:10081000EC01888D8823B9F0AA89BB89E889F98918
:100820008C9185FD03C0808186FD0DC00FB607FC4D
:10083000F7CF8C9185FFF2CF808185FFEDCFCE0180
:100840000E949703E9CFDF91CF91089580E090E077
:10085000892B29F00E948D0381110E94000080E005
:1008600090E0892B49F080E090E0892B29F00E94EC
:10087000000081110E94000080E090E0892B49F087
:1008800080E090E0892B29F00E94000081110E94F5
:10089000000080E090E0892B49F080E090E0892B17
:1008A00029F00E94000081110C9400000895282F67
:1008B00030E0F901E651FF4F9491F901E655FE4F02
:1008C00084912C593E4FF9012491222309F433C01D
:1008D000992301F191509231E8F4E92FF0E0ED58BD
:1008E000FB4F0C94DC0CA404A80485049C04A00415
:1008F0008A04AB04B104B504BB04BF04C304C90437
:10090000CD048A04D104D704DB04909180009F7742
:1009100090938000E22FF0E0EE0FFF1FE05DFE4FAE
:10092000A591B4919FB7F894EC91611148C080955E
:100930008E238C939FBF0895909180009F7DE8CF78
:1009400090918000977FE4CF94B59F7794BDE2CFDC
:1009500094B59F7DFBCF9091B0009F779093B000AE
:10096000D9CF9091B0009F7DF9CF909190009F7763
:1009700090939000CFCF909190009F7DF9CF909170
:100980009000977FF5CF9091A0009F779093A00063
:10099000C1CF9091A0009F7DF9CF9091A000977F4B
:1009A000F5CF909120019F7790932001B3CF909144
:1009B00020019F7DF9CF90912001977FF5CF8E2B5D
:1009C000B8CF90917B00977F90937B008653806493
:1009D00080937C0080917A00806480937A0080917B
:1009E0007A0086FDFCCF809178009091790008957F
:1009F000FC019181923001F144F4992389F0913006
:100A0000A9F060E080810C945704943009F1D4F08F
:100A10009530B9F7909173009D7F90937300F1CF5B
:100A200090916E009D7F90936E00EBCF90916F0040
:100A30009D7F90936F00E5CF909170009D7F909384
:100A40007000DFCF909171009D7F90937100D9CF9E
:100A5000909172009D7F90937200D3CFDC018091C2
:100A60003A02863008F0FCC06C93E82FF0E0EC51BD
:100A7000FF4FE4911196EC9311978F5F80933A02A8
:100A8000E23009F455C028F4EE2361F0E13051F171
:100A90000895E43009F498C008F470C0E53009F412
:100AA000B9C0089514BC15BC84B5826084BD85B5F9
:100AB000816085BD8C9190E0FC01EC59FE4FE49182
:100AC000F0E0EE0FFF1FE05DFE4F25913491309373
:100AD0003C0220933B02FC01E655FE4FE491E0937B
:100AE0003D02089510928000109281008091810053
:100AF0008860809381008091810081608093810073
:100B00008C9190E0FC01EC59FE4FE491F0E0EE0F87
:100B1000FF1FE05DFE4F2591349130933F022093FB
:100B20003E02FC01E655FE4FE491E0934002089539
:100B30001092B0001092B1008091B000826080935A
:100B4000B0008091B10081608093B1008C9190E001
:100B5000FC01EC59FE4FE491F0E0EE0FFF1FE05D69
:100B6000FE4F259134913093420220934102FC01C3
:100B7000E655FE4FE491E0934302089510929000F1
:100B800010929100809191008860809391008091F3
:100B900091008160809391008C9190E0FC01EC5970
:100BA000FE4FE491F0E0EE0FFF1FE05DFE4F259158
:100BB00034913093450220934402FC01E655FE4FE8
:100BC000E491E093460208951092A0001092A100D3
:100BD0008091A10088608093A1008091A100816034
:100BE0008093A1008C9190E0FC01EC59FE4FE491C0
:100BF000F0E0EE0FFF1FE05DFE4F25913491309342
:100C0000480220934702FC01E655FE4FE491E09331
:100C10004902089510922001109221018091210132
:100C2000886080932101809121018160809321015E
:100C30008C9190E0FC01EC59FE4FE491F0E0EE0F56
:100C4000FF1FE05DFE4F2591349130934B022093BE
:100C50004A02FC01E655FE4FE491E0934C020895F0
:100C60008FEF11968C9308951F920F920FB60F92EB
:100C700011242F933F938F939F93AF93BF938091B2
:100C8000FE029091FF02A0910003B0910103309108
:100C9000FD0223E0230F2D3758F50196A11DB11D4C
:100CA0002093FD028093FE029093FF02A093000325
:100CB000B09301038091F9029091FA02A091FB0296
:100CC000B091FC020196A11DB11D8093F902909391
:100CD000FA02A093FB02B093FC02BF91AF919F91E7
:100CE0008F913F912F910F900FBE0F901F901895ED
:100CF00026E8230F0296A11DB11DD2CF1F920F929D
:100D00000FB60F9211240BB60F922F933F934F9370
:100D10005F936F937F938F939F93AF93BF93EF9363
:100D2000FF938CE592E00E949703FF91EF91BF91B2
:100D3000AF919F918F917F916F915F914F913F9173
:100D40002F910F900BBE0F900FBE0F901F90189514
:100D50001F920F920FB60F9211240BB60F922F9382
:100D60008F939F93EF93FF93E0916C02F0916D024C
:100D70008081E0917202F091730282FD1DC090812A
:100D8000809175028F5F8F7320917602821741F0F8
:100D9000E0917502F0E0E45AFD4F958F8093750263
:100DA000FF91EF919F918F912F910F900BBE0F901C
:100DB0000FBE0F901F9018958081F2CF1F920F9257
:100DC0000FB60F9211240BB60F928F939F93AF9390
:100DD000BF93EF93FF938091020390910303A0913F
:100DE0000403B0910503892B8A2B8B2BB1F19091D1
:100DF0004C02E0914A02F0914B0280818927808366
:100E00008091020390910303A0910403B091050324
:100E1000181619061A061B069CF48091020390917D
:100E20000303A0910403B09105030197A109B1093F
:100E30008093020390930303A0930403B0930503EC
:100E4000FF91EF91BF91AF919F918F910F900BBE4A
:100E50000F900FBE0F901F901895809173008D7F9B
:100E60008093730080914C02E0914A02F0914B0212
:100E70009081809589238083E3CF1F920F920FB6D4
:100E80000F9211240BB60F928F939F93AF93BF9342
:100E9000EF93FF938091060390910703A0910803BD
:100EA000B0910903892B8A2B8B2BB1F190914902C8
:100EB000E0914702F09148028081892780838091E8
:100EC000060390910703A0910803B0910903181637
:100ED00019061A061B069CF48091060390910703DD
:100EE000A0910803B09109030197A109B10980936A
:100EF000060390930703A0930803B0930903FF919F
:100F0000EF91BF91AF919F918F910F900BBE0F907A
:100F10000FBE0F901F901895809172008D7F809367
:100F2000720080914902E0914702F091480290815D
:100F3000809589238083E3CF1F920F920FB60F9283
:100F400011240BB60F928F939F93AF93BF93EF93A0
:100F5000FF9380910A0390910B03A0910C03B09131
:100F60000D03892B8A2B8B2BB1F190914602E091D6
:100F70004402F091450280818927808380910A0391
:100F800090910B03A0910C03B0910D031816190654
:100F90001A061B069CF480910A0390910B03A09102
:100FA0000C03B0910D030197A109B10980930A03C5
:100FB00090930B03A0930C03B0930D03FF91EF915B
:100FC000BF91AF919F918F910F900BBE0F900FBE6D
:100FD0000F901F901895809171008D7F8093710004
:100FE00080914602E0914402F09145029081809503
:100FF00089238083E3CF1F920F920FB60F921124A3
:101000000BB60F922F933F938F939F93AF93BF9302
:10101000EF93FF9380910E0390910F03A091100323
:10102000B09111030097A105B10541F13091430240
:10103000E0914102F091420220812327208318167B
:1010400019061A061B061CF40197A109B109809321
:101050000E0390930F03A0931003B0931103FF911D
:10106000EF91BF91AF919F918F913F912F910F90F1
:101070000BBE0F900FBE0F901F901895209170001F
:101080002D7F2093700020914302E0914102F09166
:1010900042023081209523232083D9CF1F920F92C3
:1010A0000FB60F9211240BB60F928F939F93AF93AD
:1010B000BF93EF93FF938091120390911303A0913C
:1010C0001403B0911503892B8A2B8B2BB1F19091CE
:1010D0004002E0913E02F0913F02808189278083A7
:1010E0008091120390911303A0911403B091150302
:1010F000181619061A061B069CF48091120390918B
:101100001303A0911403B09115030197A109B1092C
:101110008093120390931303A0931403B0931503C9
:10112000FF91EF91BF91AF919F918F910F900BBE67
:101130000F900FBE0F901F90189580916F008D7FBC
:1011400080936F0080914002E0913E02F0913F0257
:101150009081809589238083E3CF1F920F920FB6F1
:101160000F9211240BB60F928F939F93AF93BF935F
:10117000EF93FF938091160390911703A0911803AA
:10118000B0911903892B8A2B8B2BB1F190913D02E1
:10119000E0913B02F0913C0280818927808380911D
:1011A000160390911703A0911803B0911903181614
:1011B00019061A061B069CF48091160390911703DA
:1011C000A0911803B09119030197A109B109809367
:1011D000160390931703A0931803B0931903FF917C
:1011E000EF91BF91AF919F918F910F900BBE0F9098
:1011F0000FBE0F901F90189580916E008D7F809389
:101200006E0080913D02E0913B02F0913C029081A2
:10121000809589238083E3CF789484B5826084BDF0
:1012200084B5816084BD85B5826085BD85B58160EA
:1012300085BD80916E00816080936E001092810068
:101240008091810082608093810080918100816023
:1012500080938100809180008160809380008091E4
:10126000B10084608093B1008091B0008160809370
:10127000B0008091910082608093910080919100F4
:1012800081608093910080919000816080939000B4
:101290008091A10082608093A1008091A100816073
:1012A0008093A1008091A00081608093A000809134
:1012B00021018260809321018091210181608093CE
:1012C00021018091200181608093200180917A002A
:1012D000846080937A0080917A00826080937A00A3
:1012E00080917A00816080937A0080917A00806892
:1012F00080937A001092C100E0916C02F0916D022F
:1013000082E08083E0916802F09169021082E091AE
:101310006A02F0916B028FEC808310927402E0916C
:101320007002F091710286E08083E0916E02F0918C
:101330006F02808180618083E0916E02F0916F0284
:10134000808188608083E0916E02F0916F028081DD
:1013500080688083E0916E02F0916F0280818F7DC2
:10136000808385E00E94250184E00E94250183E0BE
:101370000E94250168E08DE492E00E942E0569E05C
:101380008FE492E00E942E056AE081E592E00E94DF
:101390002E05AA24A394C5E0D0E004E010E063E0A9
:1013A000E62EF12CCC24C394D12C8CE592E00E9443
:1013B0008103181619060CF0EAC08CE592E00E9431
:1013C0005F03B82E682F8CE592E00E94B90342E0DB
:1013D00050E066E372E08CE592E00E942303EFE9BF
:1013E000EB0DEA3108F025C00E2E000CFF0BE55086
:1013F000F64F0C94DC0CE50ADB0ACF0AEF0A0F0B60
:10140000F60AFB0A000B190A190A3B0B190A250BED
:10141000E00A4D0B190A050B160BEA0A1B0B190AF9
:10142000D60A0A0BCA0A200B150A10925B02109208
:101430005A02809155028823B1F188E30E94E104A9
:101440004C018091520287FD2EC0E0915A02F0912A
:101450005B02EE0FFF1FE65DFD4F60817181660F3D
:10146000771F660F771F072E000C880B990B0E94C1
:10147000C40B2B013C01B401990C880B990B0E9401
:10148000C40B20E030E040E05BE30E94280C9B01AD
:10149000AC01C301B2010E94280C0E948C0B81E5B3
:1014A00092E00E944401809154028823B1F187E3C5
:1014B0000E94E1044C018091500287FD2EC0E09112
:1014C0005802F0915902EE0FFF1FE25EFD4F60815E
:1014D0007181660F771F660F771F072E000C880B30
:1014E000990B0E94C40B2B013C01B401990C880B91
:1014F000990B0E94C40B20E030E040E05BE30E94C7
:10150000280C9B01AC01C301B2010E94280C0E946F
:101510008C0B8FE492E00E94440180915302882357
:10152000B1F186E30E94E1044C0180914E0287FDF7
:101530002EC0E0915602F0915702EE0FFF1FEE5EB3
:10154000FD4F60817181660F771F660F771F072E31
:10155000000C880B990B0E94C40B2B013C01B401B9
:10156000990C880B990B0E94C40B20E030E040E0FE
:101570005BE30E94280C9B01AC01C301B2010E94F5
:10158000280C0E948C0B8DE492E00E9444010E9482
:1015900026040BCFD0925B02C0925A024ACF82E05F
:1015A00090E090935B0280935A0243CFF0925B02EB
:1015B000E0925A023ECF10935B0200935A0239CF59
:1015C000D0935B02C0935A0234CF1092590210920A
:1015D00058022FCFD0925902C09258022ACF82E0EF
:1015E00090E0909359028093580223CFF0925902D1
:1015F000E09258021ECF109359020093580219CF5F
:10160000D0935902C093580214CF109257021092EF
:1016100056020FCFD0925702C09256020ACF82E0F4
:1016200090E0909357028093560203CFF0925702B6
:10163000E0925602FECE1093570200935602F9CE66
:10164000D0935702C0935602F4CE8091550288235E
:1016500059F01092550260E085E00E94570481E540
:1016600092E00E94F804E5CEA092550261E085E088
:101670000E945704DECE80915402882349F01092D4
:10168000540260E084E00E9457048FE492E0E9CFC6
:10169000A092540261E084E0EBCF80915302882352
:1016A00049F01092530260E083E00E9457048DE4F9
:1016B00092E0D7CFA092530261E083E0D9CFECE56E
:1016C000F2E01382128288EE93E0A0E0B0E084831F
:1016D0009583A683B78384E092E09183808385EC31
:1016E00090E09587848784EC90E09787868780ECEC
:1016F00090E0918B808B81EC90E0938B828B82ECDD
:1017000090E0958B848B86EC90E0978B868B118E86
:10171000128E138E148E08950E94930B6894B1114B
:101720000C94220C08950E94070C88F09F5798F0A3
:10173000B92F9927B751B0F0E1F0660F771F881FD6
:10174000991F1AF0BA95C9F714C0B13091F00E94F0
:10175000210CB1E008950C94210C672F782F882775
:10176000B85F39F0B93FCCF3869577956795B39517
:10177000D9F73EF490958095709561957F4F8F4F86
:101780009F4F0895E89409C097FB3EF4909580958B
:10179000709561957F4F8F4F9F4F9923A9F0F92F37
:1017A00096E9BB279395F695879577956795B795B5
:1017B000F111F8CFFAF4BB0F11F460FF1BC06F5F9B
:1017C0007F4F8F4F9F4F16C0882311F096E911C0AD
:1017D000772321F09EE8872F762F05C0662371F0CE
:1017E00096E8862F70E060E02AF09A95660F771FE2
:1017F000881FDAF7880F9695879597F9089557FD12
:101800009058440F551F59F05F3F71F04795880F6E
:1018100097FB991F61F09F3F79F087950895121605
:1018200013061406551FF2CF4695F1DF08C01616B1
:1018300017061806991FF1CF869571056105089462
:101840000895E894BB2766277727CB0197F9089579
:101850000E943B0C0C94AC0C0E949E0C38F00E9431
:10186000A50C20F0952311F00C94950C0C949B0C76
:1018700011240C94220C0E94FF0B70F3959FC1F36E
:10188000950F50E0551F629FF001729FBB27F00D2E
:10189000B11D639FAA27F00DB11DAA1F649F662783
:1018A000B00DA11D661F829F2227B00DA11D621FD2
:1018B000739FB00DA11D621F839FA00D611D221F8C
:1018C000749F3327A00D611D231F849F600D211D70
:1018D000822F762F6A2F11249F5750409AF0F1F0F3
:1018E00088234AF0EE0FFF1FBB1F661F771F881F5C
:1018F00091505040A9F79E3F510580F00C94950CF3
:101900000C94220C5F3FE4F3983ED4F386957795D0
:101910006795B795F795E7959F5FC1F7FE2B880F01
:10192000911D9695879597F9089597F99F6780E897
:1019300070E060E008959FEF80EC089500240A9421
:101940001616170618060906089500240A9412169A
:101950001306140605060895092E0394000C11F4CD
:10196000882352F0BB0F40F4BF2B11F460FF04C07A
:101970006F5F7F4F8F4F9F4F0895052E97FB1EF48B
:1019800000940E94D40C57FD07D00E94E50C07FC80
:1019900003D04EF40C94D40C50954095309521957D
:1019A0003F4F4F4F5F4F089590958095709561958B
:1019B0007F4F8F4F9F4F0895EE0FFF1F0024001C95
:1019C0000BBE0790F691E02D0994A1E21A2EAA1BF6
:1019D000BB1BFD010DC0AA1FBB1FEE1FFF1FA217DF
:1019E000B307E407F50720F0A21BB30BE40BF50BDC
:1019F000661F771F881F991F1A9469F76095709565
:101A0000809590959B01AC01BD01CF010895F8949C
:021A1000FFCF06
:101A120000000000B90323035003060481035F039F
:101A22007303C400D000B801D201EE010601930095
:101A32009C00A500AF00B900C40062006800DC0091
:0A1A4200E900F70083000D0A000020
:00000001FF
