:100000000C942B010C945C010C945C010C945C012D
:100010000C945C010C945C010C945C010C945C01EC
:100020000C945C010C945C010C945C010C945C01DC
:100030000C945C010C945C010C945C010C945C01CC
:100040000C945C010C943A050C945C010C945C01DA
:100050000C945C010C945C010C945C010C940604FF
:100060000C945C010C947A040C9450040C945C0184
:100070000C945C010C945C010C945C010C945C018C
:100080000C940C050C945C010C945C010C945C01C8
:100090000C945C010C945C010C945C010C945C016C
:1000A0000C945C010C945C010C94DE040C945C01D7
:1000B0000C945C010C945C010C945C010C94B004F5
:1000C0000C945C010C945C010C945C010C945C013C
:1000D0000C945C010C945C010C945C010C945C012C
:1000E0000C945C010C94D9020C94C2020C945E0135
:1000F0000C94EE020C94BC010C948B010C94C7027E
:100100000C949A010C9406030C94DD020C940E03DB
:100110000C94E1020C9468050C94F8020C94F20221
:100120000C94E5020C9418030C94AE010C940A0391
:100130000C941E080C94FC020C9400030C94F40123
:100140000C9414030C94E8020C94410200000A0B76
:1001500002090C0D0E080703040100000000000056
:10016000000000000000000000000000000000008F
:10017000000000000000000012111000000000004C
:10018000000000000000000000000000000000006F
:10019000000000002200250028002B002E00310066
:1001A000340002010000050108010B0100002100DC
:1001B000240027002A002D00300033000101000038
:1001C000040107010A0105050505070508080808D7
:1001D000020202020A0A08080404040401010101DF
:1001E00001010101030303030303030304070707DA
:1001F0000C0C0C0C0C0C0C0C02020202060606067F
:10020000060606060B0B0B0B0B0B0B0B010210204B
:10021000200808102040102040800201020108043C
:1002200002010102040810204080804020100804D0
:100230000201800402018040201008040201080429
:10024000020101020408102040800102040810206D
:10025000408068051E0811241FBECFEFD1E2DEBF2B
:10026000CDBF00E00CBF12E0A0E0B2E0E4E0F6E1B8
:1002700000E00BBF02C007900D92AA31B107D9F779
:1002800023E0AAE1B2E001C01D92A236B207E1F775
:1002900011E0CAE2D1E000E006C021970109802FF9
:1002A000FE010E94D208C932D10780E00807A9F7F1
:1002B0000E94F6050C94F00A0C940000AF92BF92D5
:1002C000CF92DF92EF92FF920F931F93CF93DF9322
:1002D0006C017B018B01040F151FEB015E01AE1851
:1002E000BF08C017D10759F06991D601ED91FC9173
:1002F0000190F081E02DC6011995892B79F7C50190
:10030000DF91CF911F910F91FF90EF90DF90CF90F1
:10031000BF90AF900895FC01538D448D252F30E0A0
:10032000842F90E0821B930B541710F0CF96089502
:1003300001970895FC01918D828D981761F0A28D2F
:10034000AE0FBF2FB11D5D968C91928D9F5F9F73F5
:10035000928F90E008958FEF9FEF0895FC01918DAB
:10036000828D981731F0828DE80FF11D858D90E018
:1003700008958FEF9FEF0895FC01918D228D892FB5
:1003800090E0805C9F4F821B91098F73992708959D
:1003900087E292E00E94BC0121E0892B09F420E071
:1003A000822F0895FC01A48DA80FB92FB11DA35A67
:1003B000BF4F2C91848D90E001968F739927848F85
:1003C000A689B7892C93A089B1898C9183708064A8
:1003D0008C93938D848D981306C00288F389E02D49
:1003E00080818F7D80830895EF92FF920F931F93FA
:1003F000CF93DF93EC0181E0888F9B8D8C8D9813D8
:100400001AC0E889F989808185FF15C09FB7F894E3
:10041000EE89FF896083E889F9898081837080642F
:1004200080839FBF81E090E0DF91CF911F910F917A
:10043000FF90EF900895F62E0B8D10E00F5F1F4F89
:100440000F731127E02E8C8D8E110CC00FB607FC98
:10045000FACFE889F989808185FFF5CFCE010E9426
:10046000D201F1CFEB8DEC0FFD2FF11DE35AFF4FC1
:10047000F0829FB7F8940B8FEA89FB8980818062B4
:10048000CFCFCF93DF93EC01888D8823B9F0AA8971
:10049000BB89E889F9898C9185FD03C0808186FD3F
:1004A0000DC00FB607FCF7CF8C9185FFF2CF80818E
:1004B00085FFEDCFCE010E94D201E9CFDF91CF9130
:1004C000089580E090E0892B29F00E94C8018111F5
:1004D0000E94000080E090E0892B49F080E090E0ED
:1004E000892B29F00E94000081110E94000080E009
:1004F00090E0892B49F080E090E0892B29F00E9460
:10050000000081110E94000080E090E0892B49F0FA
:1005100080E090E0892B29F00E94000081110C946A
:1005200000000895282F30E0F901E45BFE4F94911C
:10053000F901E45FFD4F44912A533E4FF9012491A4
:10054000222309F435C0992311F191509231F8F426
:10055000E92FF0E08827E055FD4F8F4F0C94D2082B
:10056000E102E502C202D902DD02C702E802EE02A0
:10057000F202F802FC02000306030A03C7020E039C
:1005800014031803809180008F7780938000E22FFE
:10059000F0E0EE0FFF1FEE56FE4FA591B4918FB71E
:1005A000F894EC91611148C040954E234C938FBF55
:1005B0000895809180008F7DE8CF80918000877FB3
:1005C000E4CF84B58F7784BDE2CF84B58F7DFBCF38
:1005D0008091B0008F778093B000D9CF8091B00028
:1005E0008F7DF9CF809190008F7780939000CFCF4F
:1005F000809190008F7DF9CF80919000877FF5CF1B
:100600008091A0008F778093A000C1CF8091A0003F
:100610008F7DF9CF8091A000877FF5CF8091200159
:100620008F7780932001B3CF809120018F7DF9CF08
:1006300080912001877FF5CF4E2BB8CFAF92BF922C
:10064000CF92DF92EF92FF920F931F93CF93DF939E
:100650006B017A01EC01C65EDD4F28813CE0389FDA
:100660008001399F100D1124A0905403B12C27FF55
:100670001FC0FB011182108288818F5F888388816F
:100680009801280F311D87FD3A95F6012A153B0583
:100690001CF488818C30C4F180819181049680346F
:1006A0009C4908F473C0F60180819181049670C062
:1006B00088819801280F311D87FD3A952A153B0541
:1006C000DCF68881A801480F511D87FD5A95FA0173
:1006D000EE0FFF1FE40FF51FEC53FD4F808186FFE7
:1006E000CBCF8881F801E80FF11D87FDFA95CF0186
:1006F000EE0FFF1FE80FF91FEC53FD4F808160E004
:100700008F730E949202B8CF808191812881A801C5
:10071000420F511D27FD5A959A01FA01EE0FFF1F56
:10072000E20FF31FEC53FD4F21813281820F931FA3
:10073000F7019183808388819801280F311D87FDFF
:100740003A95F901EE0FFF1FE20FF31FEC53FD4F37
:10075000808186FF22C08881080F111D87FD1A95B0
:10076000F801EE0FFF1FE00FF11FEC53FD4F8081EA
:1007700061E08F73DF91CF911F910F91FF90EF9008
:10078000DF90CF90BF90AF900C94920280E49CE9F0
:10079000F701918380838FEF8883DF91CF911F9141
:1007A0000F91FF90EF90DF90CF90BF90AF900895A2
:1007B000CF93DF93EC0180915503909156030097FE
:1007C00059F020915703309158032C173D0720F022
:1007D00081E0DF91CF910895BE016F5F7F4F0E944E
:1007E000FF09009789F09093560380935503D093A7
:1007F0005803C09357032091590330915A03232B78
:1008000039F7FC011082E4CF80E0E3CF1F920F9212
:100810000FB60F9211242F933F938F939F93AF9313
:10082000BF938091230290912402A0912502B09160
:1008300026023091220223E0230F2D3758F501962E
:10084000A11DB11D209322028093230290932402C4
:10085000A0932502B093260280911E0290911F0260
:10086000A0912002B09121020196A11DB11D80939B
:100870001E0290931F02A0932002B0932102BF9109
:10088000AF919F918F913F912F910F900FBE0F903D
:100890001F90189526E8230F0296A11DB11DD2CFF7
:1008A0001F920F920FB60F9211240BB60F922F9337
:1008B0003F934F935F936F937F938F939F93AF93E8
:1008C000BF93EF93FF9387E292E00E94D201FF91E2
:1008D000EF91BF91AF919F918F917F916F915F91B8
:1008E0004F913F912F910F900BBE0F900FBE0F9025
:1008F0001F9018951F920F920FB60F9211240BB6EE
:100900000F922F938F939F93EF93FF93E091370272
:10091000F09138028081E0913D02F0913E0282FD2B
:100920001DC09081809140028F5F8F7320914102A2
:10093000821741F0E0914002F0E0E95DFD4F958FB4
:1009400080934002FF91EF919F918F912F910F9093
:100950000BBE0F900FBE0F901F9018958081F2CFA5
:100960001F920F920FB60F9211240BB60F922F9376
:100970003F934F935F936F937F938F939F93AF9327
:10098000BF93EF93FF9348E251E064E271E090E09F
:1009900080E00E941E03FF91EF91BF91AF919F9164
:1009A0008F917F916F915F914F913F912F910F9018
:1009B0000BBE0F900FBE0F901F9018951F920F92B5
:1009C0000FB60F9211240BB60F922F933F934F93B4
:1009D0005F936F937F938F939F93AF93BF93EF93A7
:1009E000FF9348EA50E064EA70E083E090E00E9400
:1009F0001E03FF91EF91BF91AF919F918F917F91D6
:100A00006F915F914F913F912F910F900BBE0F907F
:100A10000FBE0F901F9018951F920F920FB60F9256
:100A200011240BB60F922F933F934F935F936F93C5
:100A30007F938F939F93AF93BF93EF93FF9348E977
:100A400050E064E970E082E090E00E941E03FF91B4
:100A5000EF91BF91AF919F918F917F916F915F9136
:100A60004F913F912F910F900BBE0F900FBE0F90A3
:100A70001F9018951F920F920FB60F9211240BB66C
:100A80000F922F933F934F935F936F937F938F9327
:100A90009F93AF93BF93EF93FF9348E850E064E8D0
:100AA00070E081E090E00E941E03FF91EF91BF9102
:100AB000AF919F918F917F916F915F914F913F91F6
:100AC0002F910F900BBE0F900FBE0F901F90189597
:100AD00010922A021092290288EE93E0A0E0B0E082
:100AE00080932B0290932C02A0932D02B0932E02A0
:100AF0008AE092E0909328028093270285EC90E0B0
:100B0000909334028093330284EC90E09093360209
:100B10008093350280EC90E0909338028093370206
:100B200081EC90E090933A028093390282EC90E05D
:100B300090933C0280933B0286EC90E090933E02BF
:100B400080933D02109240021092410210924202A4
:100B500010924302809154038033D8F591E0980FAE
:100B60009093540380935B0390E0FC01EE0FFF1F12
:100B7000E80FF91FEC53FD4F88EB9BE092838183D4
:100B80001092560310925503109258031092570377
:100B900010925A031092590390E080E00E94D8030B
:100BA0002091550330915603811117C0211531054D
:100BB00019F0C9010E94760910925603109255034C
:100BC00010925A031092590310925803109257032F
:100BD00008958FEF80935B03D3CF10925A03109246
:100BE000590368E172E0C9010C94E90ACF93DF93DD
:100BF0001F921F92CDB7DEB7789484B5826084BD12
:100C000084B5816084BD85B5826085BD85B5816010
:100C100085BD80916E00816080936E00109281008E
:100C20008091810082608093810080918100816049
:100C3000809381008091800081608093800080910A
:100C4000B10084608093B1008091B0008160809396
:100C5000B00080919100826080939100809191001A
:100C600081608093910080919000816080939000DA
:100C70008091A10082608093A1008091A100816099
:100C80008093A1008091A00081608093A00080915A
:100C900021018260809321018091210181608093F4
:100CA00021018091200181608093200180917A0050
:100CB000846080937A0080917A00826080937A00C9
:100CC00080917A00816080937A0080917A008068B8
:100CD00080937A001092C100E0913702F0913802BF
:100CE00082E08083E0913302F09134021082E0913F
:100CF0003502F09136028FEC808310923F02E09132
:100D00003B02F0913C0286E08083E0913902F09151
:100D10003A02808180618083E0913902F0913A0249
:100D2000808188608083E0913902F0913A0280816D
:100D300080688083E0913902F0913A0280818F7D52
:100D4000808380915B03803308F069C0EEE0F2E0BD
:100D50002491E8ECF1E08491882399F090E0880FE9
:100D6000991FFC01E455FE4FA591B491FC01EE568C
:100D7000FE4F859194918FB7F894EC91E22BEC9310
:100D80008FBF80915B03282F30E0F901EE0FFF1F2A
:100D9000E20FF31FEC53FD4F9081907C92609083A3
:100DA00010925C0310925D032CE0622F0E94C60833
:100DB000829FB001112430E020E0AB01420F531FAD
:100DC000FA01EE0FFF1FE40FF51FEC53FD4F90816A
:100DD00096FD17C02F5F3F4F2C30310571F78130E2
:100DE00009F0D0C01092800082E0809381001092C0
:100DF000850010928400B19A80916F008260809388
:100E00006F00E0915B038E2F90E0FC01EE0FFF1F5F
:100E1000E80FF91FEC53FD4F808180648083A8E8C0
:100E2000EA2EF12CB8E5CB2EB2E0DB2E14EB812EAE
:100E3000912CA12CB12C87E292E00E94BC011816E3
:100E400019060CF09CC087E292E00E949A018D3056
:100E500009F0D2C08091550390915603009709F490
:100E6000BDC00E9427089B01603242E07407BCF5B8
:100E700020915C032701421A510827FD5394440C2A
:100E8000551C440C551C052C000C66087708209155
:100E90005D03A601421B510927FD53959A01220FBC
:100EA000331F220F331F032E000C440B550B241944
:100EB000350946095709DB01653B710514F0A4EBC0
:100EC000B0E0B7FF02C0B0E0A0E00E948D08A5012D
:100ED00094010E946308240D351D461D571DE091A5
:100EE0005B03E03380F580915C03A701481B510947
:100EF00087FD5395CA01880F991F880F991F2817DE
:100F0000390784F080915D03A601481B510987FDD4
:100F10005395CA01880F991F880F991F2817390701
:100F20000CF4C9010297880F991F4FB7F8942E2F20
:100F300030E0F901EE0FFF1FE20FF31FEC53FD4FFE
:100F4000928381834FBF90E080E00E94D80320917C
:100F5000550330915603811145C02115310519F013
:100F6000C9010E94760910925603109255031092FF
:100F70005A031092590310925803109257030E947B
:100F8000610259CF823061F41092900080939100F9
:100F9000109295001092940088BB8093710031CF1D
:100FA000833069F41092A00082E08093A100109237
:100FB000A5001092A40089BB8093720022CF8111FA
:100FC00020CF1092200182E0809321011092250110
:100FD000109224018ABB8093730013CF60E070E00D
:100FE000CB0141CF10925A031092590368E172E08D
:100FF000C9010E94E90AC3CF89831A82009159036B
:1010000010915A030F5F1F4FC8010E94D803882315
:1010100009F4B5CF209155033091560380915903BF
:1010200090915A03BE016F5F7F4F820F931F0E9402
:10103000E90A10935A0300935903A1CF80915503F5
:1010400090915603009711F00C94760908951F9320
:10105000FC0199278827BC01E89411911032E9F32B
:10106000193010F01E30C8F31B3251F01D3249F414
:10107000689406C00E944E08610F711D811D911D6C
:10108000119110531A30B0F33EF4909580957095FD
:1010900061957F4F8F4F9F4F1F910895592F482F74
:1010A000372F262F660F771F881F991F660F771F10
:1010B000881F991F620F731F841F951F660F771F6C
:1010C000881F991F0895052E97FB1EF400940E9417
:1010D0007A0857FD07D00E94950807FC03D04EF40C
:1010E0000C947A0850954095309521953F4F4F4F7D
:1010F0005F4F089590958095709561957F4F8F4FC4
:101100009F4F08950E94B708A59F900DB49F900D22
:10111000A49F800D911D11240895B7FF0C9482089F
:101120000E948208821B930B0895A1E21A2EAA1B2B
:10113000BB1BFD010DC0AA1FBB1FEE1FFF1FA21787
:10114000B307E407F50720F0A21BB30BE40BF50B84
:10115000661F771F881F991F1A9469F7609570950D
:10116000809590959B01AC01BD01CF010895A29F90
:10117000B001B39FC001A39F700D811D1124911D6B
:10118000B29F700D811D1124911D0895991B79E066
:1011900004C0991F961708F0961B881F7A95C9F707
:1011A00080950895EE0FFF1F881F8BBF0790F69163
:1011B000E02D19940F931F93CF93DF938230910505
:1011C00010F482E090E0E0916003F091610330E080
:1011D00020E0B0E0A0E0309799F42115310509F442
:1011E0004AC0281B390B24303105D8F58A819B81F0
:1011F0006115710589F1FB0193838283FE0111C0A2
:10120000408151810281138148175907E0F0481746
:10121000590799F4109761F012960C931297139650
:101220001C933296CF01DF91CF911F910F910895BA
:101230000093600310936103F4CF2115310551F041
:101240004217530738F0A901DB019A01BD01DF0104
:10125000F801C1CFEF01F9CF909361038093600350
:10126000CDCFFE01E20FF31F8193919322503109FC
:1012700039832883D7CF20915E0330915F03232BDE
:1012800041F4209102023091030230935F032093D6
:101290005E0320910002309101022115310541F4D5
:1012A0002DB73EB74091040250910502241B350B27
:1012B000E0915E03F0915F03E217F307A0F42E1BA9
:1012C0003F0B2817390778F0AC014E5F5F4F2417AA
:1012D000350748F04E0F5F1F50935F0340935E0346
:1012E000819391939FCFF0E0E0E09CCFCF93DF9389
:1012F0000097E9F0FC01329713821282A0916003FB
:10130000B0916103ED0130E020E01097A1F420815D
:101310003181820F931F20915E0330915F03281764
:10132000390709F061C0F0935F03E0935E03DF913A
:10133000CF910895EA01CE17DF07E8F54A815B8176
:101340009E0141155105B1F7E901FB83EA834991FB
:101350005991C40FD51FEC17FD0761F4808191816D
:101360000296840F951FE901998388838281938176
:101370009B838A83F0E0E0E012968D919C91139715
:101380000097B9F52D913C911197CD010296820FEE
:10139000931F20915E0330915F032817390739F6B8
:1013A000309751F51092610310926003B0935F0380
:1013B000A0935E03BCCFD383C28340815181840F4D
:1013C000951FC817D90761F44E5F5F4F88819981D7
:1013D000480F591F518340838A819B819383828365
:1013E0002115310509F0B0CFF0936103E09360035C
:1013F0009ECFFD01DC01C0CF13821282D7CF4F9266
:101400005F926F927F928F929F92AF92BF92CF9294
:10141000DF92EF92FF920F931F93CF93DF938C0194
:10142000009799F4CB01DF91CF911F910F91FF901D
:10143000EF90DF90CF90BF90AF909F908F907F9074
:101440006F905F904F900C94DA08FC01E60FF71F45
:101450009C0122503109E217F30708F4AEC0D9010C
:10146000CD91DC911197C617D70720F1C530D10572
:1014700078F0CE0104978617970750F0C61BD70B5C
:101480002297C193D1936D937C93CF010E947609EB
:10149000C801DF91CF911F910F91FF90EF90DF90E6
:1014A000CF90BF90AF909F908F907F906F905F9004
:1014B0004F9008955B01AC1ABD0A4C018C0E9D1E25
:1014C000A0916003B0916103512C412CF12CE12CCF
:1014D000109731F580915E0390915F03881599050F
:1014E00009F05CC04616570608F058C0809100020B
:1014F00090910102009741F48DB79EB7409104028C
:1015000050910502841B950BE817F90708F055C0A8
:10151000F0935F03E0935E03F90171836083B8CFBA
:101520008D919C91119712966C90129713967C90C6
:101530001397A815B90559F56C0142E0C40ED11CEA
:10154000CA14DB0420F1AC014A195B09DA011296D6
:10155000159780F06282738251834083D9016D9325
:101560007C93E114F10471F0D7011396FC93EE9390
:1015700012978ECF22968C0F9D1FF9019183808345
:10158000F301EFCFF0936103E093600381CF48163E
:10159000590608F42C017D01D3019ACFCB010E949A
:1015A000DA087C01009749F0AE01B8010E94E00A18
:1015B000C8010E94760987016BCF10E000E068CF78
:1015C000FB01DC0102C001900D9241505040D8F760
:1015D0000895FB01DC0101900D920020E1F70895D0
:1015E00011E0CAE2D1E000E006C0802FFE010E94B7
:1015F000D2082196011DCB32D10780E00807A9F758
:04160000F894FFCF8C
:1016040000006203800000000000F4015E018B0111
:0A1614004102BC019A01AE01000082
:00000001FF
