:100000000C942D010C945E010C945E010C945E0125
:100010000C945E010C945E010C945E010C945E01E4
:100020000C945E010C945E010C945E010C945E01D4
:100030000C945E010C945E010C945E010C945E01C4
:100040000C945E010C945E010C945E010C945E01B4
:100050000C945E010C945E010C945E010C94F80209
:100060000C945E010C945E010C945E010C945E0194
:100070000C945E010C945E010C945E010C945E0184
:100080000C945E010C945E010C945E010C945E0174
:100090000C945E010C945E010C945E010C945E0164
:1000A0000C945E010C945E010C945E010C945E0154
:1000B0000C945E010C945E010C945E010C945E0144
:1000C0000C945E010C945E010C945E010C945E0134
:1000D0000C945E010C945E010C945E010C945E0124
:1000E0000C945E010C9411020C941F020C942602D5
:1000F0000C943E020C941B020C943A020C941702CE
:100100000C942C020C9452020C94F4020C94B40241
:100110000C9423020C940E050C9456020C9451027C
:100120000C9444020C944C020C9430020C94830204
:100130000C9448020C943602000021002400270091
:100140002A002D00300033000101000004010701E6
:100150000A0100002200250028002B002E0031009B
:10016000340002010000050108010B01000020001D
:100170002300260029002C002F003200000100007F
:10018000030106010901050505050705080808081A
:10019000020202020A0A080804040404010101011F
:1001A000010101010303030303030303040707071A
:1001B0000C0C0C0C0C0C0C0C0202020206060606BF
:1001C000060606060B0B0B0B0B0B0B0B010210208C
:1001D000200808102040102040800201020108047D
:1001E0000201010204081020408080402010080411
:1001F000020180040201804020100804020108046A
:1002000002010102040810204080010204081020AD
:10021000408000000A0B02090C0D0E0807030401C0
:1002200000000000000000000000000000000000CE
:10023000000000000000000000000000000012119B
:10024000100000000000000000000000000000009E
:1002500000000000000000000E0511241FBECFEFBB
:10026000D1E2DEBFCDBF00E00CBF12E0A0E0B2E003
:10027000E6ECFAE000E00BBF02C007900D92AC3252
:10028000B107D9F722E0ACE2B2E001C01D92A43A76
:10029000B207E1F711E0CDE2D1E000E006C021971E
:1002A0000109802FFE010E945905CC32D10780E060
:1002B0000807A9F70E9442030C9461050C94000002
:1002C00096E0899FD0011124AB5CBD4F90967C9342
:1002D0006E935F9791E091969C939197E091A20223
:1002E000F091A3029091A102992339F0309751F037
:1002F000811108C0809151021994309719F05C96D1
:100300008C91FACF0895CF92DF92EF92FF920F93E4
:100310001F9396E0899FF0011124EB5CFD4F11A221
:10032000278D30A12130310551F178F0223031058F
:1003300009F451C02330310509F452C01F910F91C7
:10034000FF90EF90DF90CF9008956623B9F361E0BE
:1003500070E00E9460012FB7F89480913102909173
:100360003202A0913302B09134022FBF80938D02EC
:1003700090938E02A0938F02B0939002DFCF9FB72D
:10038000F894C0903102D0903202E0903302F090A5
:1003900034029FBF00918D0210918E0220918F0236
:1003A00030919002C01AD10AE20AF30A00919F022A
:1003B0001091A00230E020E00C151D052E053F0530
:1003C00050F462E070E01F910F91FF90EF90DF908A
:1003D000CF900C9460016111B1CF63E070E0F3CF76
:1003E00070E060E0F0CF8150823108F05AC0E82F11
:1003F000F0E08827E150FE4F8F4F0C9459051F0203
:100400002302110217021B02510226022C023002A3
:1004100036023A023E024402480251024C025202A3
:100420005602809180008F7780938000089580919C
:1004300080008F7DF9CF80918000877FF5CF84B5D4
:100440008F7784BD089584B58F7DFBCF8091B000F8
:100450008F778093B00008958091B0008F7DF9CFA1
:10046000809190008F778093900008958091900004
:100470008F7DF9CF80919000877FF5CF8091A0008C
:100480008F778093A00008958091A0008F7DF9CF91
:100490008091A000877FF5CF809120018F77809396
:1004A00020010895809120018F7DF9CF8091200156
:1004B000877FF5CFCF93DF93282F30E0F901EE5EF1
:1004C000FD4F8491F901E453FE4FD491F901EA57AD
:1004D000FE4FC491CC23A1F081110E94F301EC2FB7
:1004E000F0E0EE0FFF1FE459FE4FA591B491EC919F
:1004F000ED2381E090E009F480E0DF91CF91089551
:1005000080E090E0FACF862F0C945A021F93CF938D
:10051000DF93282F30E0F901EE5EFD4F8491F90161
:10052000E453FE4FD491F901EA57FE4FC491CC2316
:10053000A9F0162F81110E94F301EC2FF0E0EE0FCD
:10054000FF1FEE5AFE4FA591B4918FB7F894EC912E
:10055000111108C0D095DE23DC938FBFDF91CF91BE
:100560001F910895DE2BF8CF862F642F0C948602FE
:10057000CF93DF9390E0FC01E453FE4F24918A5720
:100580009E4FFC0184918823C9F090E0880F991F49
:10059000FC01E85CFE4FA591B491FC01EE5AFE4FC0
:1005A000C591D49161110DC09FB7F8948C9120959D
:1005B00082238C938881282328839FBFDF91CF914A
:1005C0000895623051F49FB7F8943C91822F809542
:1005D00083238C93E8812E2BEFCF8FB7F894EC9187
:1005E0002E2B2C938FBFEACF862F642F0C94B8024A
:1005F0001F920F920FB60F9211242F933F938F9358
:100600009F93AF93BF938091310290913202A0915A
:100610003302B09134023091300223E0230F2D37A2
:1006200058F50196A11DB11D20933002809331022F
:1006300090933202A0933302B093340280912C0243
:1006400090912D02A0912E02B0912F020196A11D32
:10065000B11D80932C0290932D02A0932E02B09393
:100660002F02BF91AF919F918F913F912F910F904A
:100670000FBE0F901F90189526E8230F0296A11D1C
:10068000B11DD2CF789484B5826084BD84B5816079
:1006900084BD85B5826085BD85B5816085BD80914D
:1006A0006E00816080936E001092810080918100C5
:1006B00082608093810080918100816080938100BD
:1006C000809180008160809380008091B10084607F
:1006D0008093B1008091B00081608093B0008091E0
:1006E000910082608093910080919100816080935D
:1006F0009100809190008160809390008091A10092
:1007000082608093A1008091A10081608093A1000C
:100710008091A00081608093A0008091210182607F
:10072000809321018091210181608093210180913A
:10073000200181608093200180917A008460809301
:100740007A0080917A00826080937A0080917A00AA
:10075000816080937A0080917A00806880937A002B
:100760001092C100C2E2D2E061E089910E94B80219
:1007700052E0CB32D507C1F7812C912C54018394E0
:1007800022242A94322C50E0652E50E0752E81E010
:100790008093A1028FB7F8944091310250913202B8
:1007A00060913302709134028FBF809191029091D9
:1007B0009202A0919302B0919402481B590B6A0BCC
:1007C0007B0B80919D0290919E02B0E0A0E0841787
:1007D0009507A607B70708F012C1C0E080919B02F9
:1007E000C81760F4E0919702F0919802EC0FF11DA8
:1007F00062E080810E94B802CF5FF0CF512C8091DF
:100800009C02581608F05FC0052D10E0E091990297
:10081000F0919A02E00FF11F61E080810E94B8021E
:10082000E0919902F0919A02E00FF11F60E080815F
:100830000E948602D501C401052C04C0880F991FAF
:10084000AA1FBB1F0A94D2F76C017C01E094F094BC
:10085000412C80919B024816F8F4C42DD0E0E09121
:100860009702F0919802EC0FFD1F80810E945A02BE
:100870002496CC0FDD1FCB5CDD4F892B41F48881A2
:1008800099818C299D29998388834394E2CF88811B
:1008900099818E219F21F7CFE0919902F0919A02E0
:1008A000E00FF11F61E080810E9486028091990231
:1008B00090919A02080F191F60E0F80180810E9450
:1008C000B80253949CCFC5E3D2E0FE01878D90A17E
:1008D000892B21F4148E368E258E11A2369652E085
:1008E000E137F50799F710E080919B02181708F09F
:1008F00053C000E0E12EF12CEE0CFF1CC701835C1D
:100900009D4F7C0120919C02021708F043C0F70123
:1009100060817181002E02C0769567950A94E2F796
:10092000129F90011124200F311DE5E3F2E080E0D9
:10093000458D568D2417350709F46EC08F5F3696A6
:100940008A30B1F760FF24C0E5E3F2E090E080E098
:10095000448D411118C0E0919502F0919602E20F8A
:10096000F31F408156E0589FF001599FF00D11246C
:10097000EB5CFD4F448F368F258F10A2178E61E000
:100980000E94830105C0019636968A30910501F7D1
:100990000F5FB8CF1F5FA8CF80E099A19111892F79
:1009A000269692E0C137D907C1F79FB7F8944091D6
:1009B00031025091320260913302709134029FBF34
:1009C0004093910250939202609393027093940229
:1009D0008823A9F080915602882389F080915402DF
:1009E00090915502019759F4E0915102E1110AC02A
:1009F0006114710409F4CBCE0E940000C8CE10929D
:100A0000A102F6CF0E2E000CFF0BEF50FE4F61E05F
:100A100080810E948602ECCF6170B2CF10923702C3
:100A200010923B0210923A0210923C028CE192E04A
:100A30009093360280933502E1E5F2E01082148251
:100A400013821582369682E0ED38F807B9F784E014
:100A500092E0909398028093970280E092E09093C6
:100A60009A028093990284E080939B0280939C0277
:100A700088E092E090939602809395028AE090E05D
:100A800090939E0280939D0284EF91E09093A00248
:100A900080939F021092A3021092A20210929102E0
:100AA0001092920210929302109294021092A1025C
:100AB0000895EE0FFF1F881F8BBF0790F691E02D62
:060AC0001994F894FFCF29
:100AC6001A1B1C1D161718193738392F3435362AB4
:100AD6003132332D6F303D2B00000000F402B4029A
:0C0AE6008302363738393A3B3C3D3E0075
:00000001FF
