:100000000C941A010C944B010C944B010C944B0171
:100010000C944B010C944B010C944B010C944B0130
:100020000C944B010C944B010C944B010C944B0120
:100030000C944B010C944B010C944B010C944B0110
:100040000C944B010C948C030C944B010C944B01BD
:100050000C944B010C944B010C944B010C94B80282
:100060000C944B010C944B010C944B010C944B01E0
:100070000C944B010C944B010C944B010C944B01D0
:100080000C945E030C944B010C944B010C944B01AB
:100090000C944B010C944B010C944B010C944B01B0
:1000A0000C944B010C944B010C9430030C944B01B9
:1000B0000C944B010C944B010C944B010C940203D7
:1000C0000C944B010C944B010C944B010C944B0180
:1000D0000C944B010C944B010C944B010C944B0170
:1000E0000C944B010C94C1010C948E050C94AD0141
:1000F0000C94A0010C9482010C94C9010C94A901E8
:100100000C94D3010C947D010C9494010C94BB01CC
:100110000C949C010C94A3010C9498010C94B701CD
:100120000C94CF010C94B3010C94C50100000A0B90
:1001300002090C0D0E080703040100000000000076
:1001400000000000000000000000000000000000AF
:10015000000000000000000012111000000000006C
:10016000000000000000000000000000000000008F
:10017000000000002200250028002B002E00310086
:10018000340002010000050108010B0100002100FC
:10019000240027002A002D00300033000101000058
:1001A000040107010A0105050505070508080808F7
:1001B000020202020A0A08080404040401010101FF
:1001C00001010101030303030303030304070707FA
:1001D0000C0C0C0C0C0C0C0C02020202060606069F
:1001E000060606060B0B0B0B0B0B0B0B010210206C
:1001F000200808102040102040800201020108045D
:1002000002010102040810204080804020100804F0
:100210000201800402018040201008040201080449
:10022000020101020408102040800102040810208D
:1002300040808E0511241FBECFEFD1E2DEBFCDBFBF
:1002400000E00CBF12E0A0E0B2E0E2E5FCE000E07C
:100250000BBF02C007900D92A030B107D9F722E082
:10026000A0E0B2E001C01D92A13AB207E1F711E0AF
:10027000CAE1D1E000E006C021970109802FFE010C
:100280000E941806C931D10780E00807A9F70E942B
:10029000BA030C9427060C940000282F30E0F901D3
:1002A000E45DFE4F9491F901E451FE4F44912A55CB
:1002B0003E4FF9012491222309F435C0992311F10D
:1002C00091509231F8F4E92FF0E08827E559FE4F7C
:1002D0008F4F0C9418069C01A0017D019401980198
:1002E0008201A301A901AD01B301B701BB01C101A5
:1002F000C5018201C901CF01D301809180008F77B0
:1003000080938000E22FF0E0EE0FFF1FEE58FE4FCB
:10031000A591B4918FB7F894EC91611148C04095C4
:100320004E234C938FBF0895809180008F7DE8CF3E
:1003300080918000877FE4CF84B58F7784BDE2CF42
:1003400084B58F7DFBCF8091B0008F778093B00014
:10035000D9CF8091B0008F7DF9CF809190008F77B9
:1003600080939000CFCF809190008F7DF9CF8091C6
:100370009000877FF5CF8091A0008F778093A000B9
:10038000C1CF8091A0008F7DF9CF8091A000877FA1
:10039000F5CF809120018F7780932001B3CF80919A
:1003A00020018F7DF9CF80912001877FF5CF4E2BE3
:1003B000B8CF3FB7F89480910A0290910B02A091B8
:1003C0000C02B0910D0226B5A89B05C02F3F19F075
:1003D0000196A11DB11D3FBFBA2FA92F982F8827C5
:1003E000BC01CD01620F711D811D911D42E0660FA0
:1003F000771F881F991F4A95D1F70895AF92BF9232
:10040000CF92DF92EF92FF920F931F93CF93DF93E0
:100410006B017A01EC01CF5FDD4F28813CE0389F12
:100420008001399F100D1124A0900002B12C27FFEC
:100430001FC0FB011182108288818F5F88838881B1
:100440009801280F311D87FD3A95F6012A153B05C5
:100450001CF488818C30C4F18081918104968034B1
:100460009C4908F473C0F60180819181049670C0A4
:1004700088819801280F311D87FD3A952A153B0583
:10048000DCF68881A801480F511D87FD5A95FA01B5
:10049000EE0FFF1FE40FF51FE25FFD4F808186FF27
:1004A000CBCF8881F801E80FF11D87FDFA95CF01C8
:1004B000EE0FFF1FE80FF91FE25FFD4F808160E044
:1004C0008F730E944D01B8CF808191812881A8014E
:1004D000420F511D27FD5A959A01FA01EE0FFF1F99
:1004E000E20FF31FE25FFD4F21813281820F931FE4
:1004F000F7019183808388819801280F311D87FD42
:100500003A95F901EE0FFF1FE20FF31FE25FFD4F77
:10051000808186FF22C08881080F111D87FD1A95F2
:10052000F801EE0FFF1FE00FF11FE25FFD4F80812A
:1005300061E08F73DF91CF911F910F91FF90EF904A
:10054000DF90CF90BF90AF900C944D0180E49CE978
:10055000F701918380838FEF8883DF91CF911F9183
:100560000F91FF90EF90DF90CF90BF90AF900895E4
:100570001F920F920FB60F9211242F933F938F93D8
:100580009F93AF93BF938091060290910702A09131
:100590000802B09109023091050223E0230F2D37A4
:1005A00058F50196A11DB11D209305028093060206
:1005B00090930702A0930802B093090280910A0267
:1005C00090910B02A0910C02B0910D020196A11D19
:1005D000B11D80930A0290930B02A0930C02B0937A
:1005E0000D02BF91AF919F918F913F912F910F90ED
:1005F0000FBE0F901F90189526E8230F0296A11D9D
:10060000B11DD2CF1F920F920FB60F9211240BB6CD
:100610000F922F933F934F935F936F937F938F939B
:100620009F93AF93BF93EF93FF9348E251E064E24F
:1006300071E090E080E00E94FE01FF91EF91BF9198
:10064000AF919F918F917F916F915F914F913F916A
:100650002F910F900BBE0F900FBE0F901F9018950B
:100660001F920F920FB60F9211240BB60F922F9379
:100670003F934F935F936F937F938F939F93AF932A
:10068000BF93EF93FF9348EA50E064EA70E083E0A1
:1006900090E00E94FE01FF91EF91BF91AF919F9179
:1006A0008F917F916F915F914F913F912F910F901B
:1006B0000BBE0F900FBE0F901F9018951F920F92B8
:1006C0000FB60F9211240BB60F922F933F934F93B7
:1006D0005F936F937F938F939F93AF93BF93EF93AA
:1006E000FF9348E950E064E970E082E090E00E9406
:1006F000FE01FF91EF91BF91AF919F918F917F91FB
:100700006F915F914F913F912F910F900BBE0F9082
:100710000FBE0F901F9018951F920F920FB60F9259
:1007200011240BB60F922F933F934F935F936F93C8
:100730007F938F939F93AF93BF93EF93FF9348E87B
:1007400050E064E870E081E090E00E94FE01FF91DB
:10075000EF91BF91AF919F918F917F916F915F9139
:100760004F913F912F910F900BBE0F900FBE0F90A6
:100770001F901895789484B5826084BD84B581609B
:1007800084BD85B5826085BD85B5816085BD80915C
:100790006E00816080936E001092810080918100D4
:1007A00082608093810080918100816080938100CC
:1007B000809180008160809380008091B10084608E
:1007C0008093B1008091B00081608093B0008091EF
:1007D000910082608093910080919100816080936C
:1007E0009100809190008160809390008091A100A1
:1007F00082608093A1008091A10081608093A1001C
:100800008091A00081608093A0008091210182608E
:100810008093210180912101816080932101809149
:10082000200181608093200180917A008460809310
:100830007A0080917A00826080937A0080917A00B9
:10084000816080937A0080917A00806880937A003A
:100850001092C10080919E02803308F069C0EEEED4
:10086000F1E02491E8EAF1E08491882399F090E0A6
:10087000880F991FFC01E457FE4FA591B491FC012C
:10088000EE58FE4F859194918FB7F894EC91E22B3E
:10089000EC938FBF80919E02282F30E0F901EE0F7C
:1008A000FF1FE20FF31FE25FFD4F9081907C92608B
:1008B000908310929F021092A0022CE0622F0E945F
:1008C0000C06829FB001112430E020E0AB01420F02
:1008D000531FFA01EE0FFF1FE40FF51FE25FFD4FFC
:1008E000908196FD17C02F5F3F4F2C30310571F777
:1008F000813009F0E7C01092800082E0809381008F
:100900001092850010928400B19A80916F008260ED
:1009100080936F00E0919E028E2F90E0FC01EE0F1D
:10092000FF1FE80FF91FE25FFD4F80818064808325
:1009300008E810E0C8E5D2E084EB482E512C612C89
:10094000712C90E0292E90E0392E80917B00877FDA
:1009500080937B0020E420937C0080917A00806467
:1009600080937A0080917A0086FDFCCF8091780098
:10097000A0917900BA2FA82F24EB30E00E94200626
:100980002FEF33E040E050E00E94A905C90120327A
:1009900042E03407C4F520919F026801C21AD108D1
:1009A00027FDD394CC0CDD1CCC0CDD1C0D2C000CD5
:1009B000EE08FF082091A002AE01421B510927FD5D
:1009C0005395440F551F440F551F052E000C660B01
:1009D000770B9A01AB012C193D094E095F09DC0127
:1009E000853B910514F0A4EBB0E0B7FF02C0B0E086
:1009F000A0E00E94D305A30192010E94A9052C0D3D
:100A00003D1D4E1D5F1D40919E02403380F580913B
:100A10009F02B801681B710987FD7395CB01880F90
:100A2000991F880F991F2817390784F08091A00219
:100A3000BE01681B710987FD7395CB01880F991F53
:100A4000880F991F281739070CF4C9010297880FDE
:100A5000991F6FB7F89450E09A01220F331F240FAB
:100A6000351FF901E25FFD4F928381836FBF0E94C2
:100A7000D9014B015C018FE0C82ED12CE12CF12C67
:100A80000E94D901681979098A099B09683E734057
:100A900081059105A8F371E0C71AD108E108F108B2
:100AA00088EE880E83E0981EA11CB11CC114D104ED
:100AB000E104F10429F72114310409F446CF0E941E
:100AC000000043CF823061F4109290008093910037
:100AD000109295001092940088BB809371001ACFF9
:100AE000833069F41092A00082E08093A1001092FC
:100AF000A5001092A40089BB809372000BCF8111D6
:100B000009CF1092200182E08093210110922501EB
:100B1000109224018ABB80937300FCCE8091000266
:100B2000803398F491E0980F9093000280939E0296
:100B300090E0FC01EE0FFF1FE80FF91FE25FFD4F91
:100B400088EB9BE09283818308958FEF80939E02D0
:100B50000895052E97FB1EF400940E94C00557FDD2
:100B600007D00E94DB0507FC03D04EF40C94C005AF
:100B700050954095309521953F4F4F4F5F4F0895C9
:100B800090958095709561957F4F8F4F9F4F0895F9
:100B90000E94FD05A59F900DB49F900DA49F800D10
:100BA000911D11240895B7FF0C94C8050E94C80533
:100BB000821B930B0895A1E21A2EAA1BBB1BFD01F9
:100BC0000DC0AA1FBB1FEE1FFF1FA217B307E4072C
:100BD000F50720F0A21BB30BE40BF50B661F771F84
:100BE000881F991F1A9469F7609570958095909564
:100BF0009B01AC01BD01CF010895A29FB001B39F3D
:100C0000C001A39F700D811D1124911DB29F700D15
:100C1000811D1124911D0895991B79E004C0991F2D
:100C2000961708F0961B881F7A95C9F78095089546
:100C3000EE0FFF1F881F8BBF0790F691E02D1994D0
:100C40000E94FD05B7FF0895821B930B0895F89449
:020C5000FFCFD4
:00000001FF
