:100000000C9444010C9475010C9475010C947501C9
:100010000C9475010C9475010C9475010C94750188
:100020000C9475010C9475010C9475010C94750178
:100030000C9475010C9475010C9475010C94750168
:100040000C9475010C9475010C9475010C94750158
:100050000C9475010C9475010C9475010C941D069B
:100060000C9475010C94E7050C94BD050C94750176
:100070000C9475010C9475010C9475010C94750128
:100080000C9475010C9475010C9475010C94750118
:100090000C9475010C9475010C9475010C94750108
:1000A0000C9475010C9475010C9475010C947501F8
:1000B0000C9475010C9475010C9475010C947501E8
:1000C0000C9475010C9475010C9475010C947501D8
:1000D0000C9475010C9475010C9475010C947501C8
:1000E0000C9475010C94A1030C9467060C944404C1
:1000F0000C949D030C9468020C9437020C94FF033B
:100100000C945A020C9471030C948F030C94ED021E
:100110000C9497030C949C030C9485030C94770324
:100120000C946A030C9489050C946E030C940A02D7
:100130000C947B030C9489030C9462030C9493033A
:100140000C9446020C94A0020C945C030C94C3091A
:100150000C9481030C9466030C9443040C943F04A8
:100160000C94CE0300002100240027002A002D005B
:100170003000330001010000040107010A01000002
:100180002200250028002B002E003100340002013F
:100190000000050108010B010000200023002600DB
:1001A00029002C002F00320000010000030106018D
:1001B00009010505050507050808080802020202ED
:1001C0000A0A0808040404040101010101010101F3
:1001D0000303030303030303040707070C0C0C0CBE
:1001E0000C0C0C0C020202020606060606060606A7
:1001F0000B0B0B0B0B0B0B0B010210202008081034
:100200002040102040800201020108040201010286
:10021000040810204080804020100804020180045F
:1002200002018040201008040201080402010102BA
:1002300004081020408001020408102040800000C3
:100240000A0B02090C0D0E08070304010000000050
:10025000000000000000000000000000000000009E
:10026000000000000000000000001211100000005B
:10027000000000000000000000000000000000007E
:10028000000000006706C30911241FBECFEFD1E2B2
:10029000DEBFCDBF00E00CBF23E0AEE6B2E001C0A0
:1002A0001D92A63AB207E1F712E0A0E0B2E0EAE060
:1002B000F8E100E00BBF02C007900D92AE36B10727
:1002C000D9F711E0C3E4D1E000E006C021970109AD
:1002D000802FFE010E94CC09C234D10780E00807BC
:1002E000A9F70E9451070C94F30B0C94000096E0C0
:1002F000899FD0011124AD5CBC4F90967C936E9386
:100300005F9791E091969C939197E091A003F09173
:10031000A10390919F03992339F0309751F08111F7
:1003200008C080914F031994309719F05C968C9116
:10033000FACF0895CF92DF92EF92FF920F931F931F
:1003400096E0899FF0011124ED5CFC4F11A2278DEE
:1003500030A12130310551F178F02230310509F416
:1003600051C02330310509F452C01F910F91FF9005
:10037000EF90DF90CF9008956623B9F361E070E0CD
:100380000E9477012FB7F8948091740290917502C2
:10039000A0917602B09177022FBF80938B03909348
:1003A0008C03A0938D03B0938E03DFCF9FB7F89497
:1003B000C0907402D0907502E0907602F0907702BF
:1003C0009FBF00918B0310918C0320918D0330917E
:1003D0008E03C01AD10AE20AF30A00919D0310911C
:1003E0009E0330E020E00C151D052E053F0550F45E
:1003F00062E070E01F910F91FF90EF90DF90CF903F
:100400000C9477016111B1CF63E070E0F3CF70E03D
:1004100060E0F0CFAF92BF92CF92DF92EF92FF9267
:100420000F931F93CF93DF936C017B018B01040F1C
:10043000151FEB015E01AE18BF08C017D10759F0B8
:100440006991D601ED91FC910190F081E02DC601FA
:100450001995892B79F7C501DF91CF911F910F91E4
:10046000FF90EF90DF90CF90BF90AF900895FC0188
:10047000538D448D252F30E0842F90E0821B930B09
:10048000541710F0CF96089501970895FC01918DAF
:10049000828D981761F0A28DAE0FBF2FB11D5D96B2
:1004A0008C91928D9F5F9F73928F90E008958FEF54
:1004B0009FEF0895FC01918D828D981731F0828D08
:1004C000E80FF11D858D90E008958FEF9FEF08955F
:1004D000FC01918D228D892F90E0805C9F4F821BC3
:1004E00091098F739927089588E792E00E94680226
:1004F00021E0892B09F420E0822F0895FC01A48DCE
:10050000A80FB92FB11DA35ABF4F2C91848D90E035
:1005100001968F739927848FA689B7892C93A08918
:10052000B1898C91837080648C93938D848D9813A2
:1005300006C00288F389E02D80818F7D8083089535
:10054000EF92FF920F931F93CF93DF93EC0181E023
:10055000888F9B8D8C8D98131AC0E889F9898081CA
:1005600085FF15C09FB7F894EE89FF896083E889FD
:10057000F98980818370806480839FBF81E090E0EF
:10058000DF91CF911F910F91FF90EF900895F62E7C
:100590000B8D10E00F5F1F4F0F731127E02E8C8D16
:1005A0008E110CC00FB607FCFACFE889F98980815B
:1005B00085FFF5CFCE010E947E02F1CFEB8DEC0FCF
:1005C000FD2FF11DE35AFF4FF0829FB7F8940B8F78
:1005D000EA89FB8980818062CFCFCF93DF93EC01E2
:1005E000888D8823B9F0AA89BB89E889F9898C911B
:1005F00085FD03C0808186FD0DC00FB607FCF7CFD7
:100600008C9185FFF2CF808185FFEDCFCE010E94D6
:100610007E02E9CFDF91CF91089580E090E0892BB1
:1006200029F00E94740281110E94000080E090E095
:10063000892B49F080E090E0892B29F00E9400008E
:1006400081110E94000080E090E0892B49F080E059
:1006500090E0892B29F00E94000081110E94000087
:1006600080E090E0892B49F080E090E0892B29F030
:100670000E94000081110C94000008958150823185
:1006800008F05AC0E82FF0E08827E65BFC4F8F4F58
:100690000C94CC096A036E035C03620366039C033B
:1006A000710377037B038103850389038F0393031E
:1006B0009C0397039D03A103809180008F77809313
:1006C00080000895809180008F7DF9CF8091800017
:1006D000877FF5CF84B58F7784BD089584B58F7DEE
:1006E000FBCF8091B0008F778093B0000895809108
:1006F000B0008F7DF9CF809190008F77809390002C
:100700000895809190008F7DF9CF80919000877F30
:10071000F5CF8091A0008F778093A00008958091FD
:10072000A0008F7DF9CF8091A000877FF5CF8091C9
:1007300020018F77809320010895809120018F7D83
:10074000F9CF80912001877FF5CFCF93DF93282FBA
:1007500030E0F901E25CFD4F8491F901E850FE4F71
:10076000D491F901EE54FE4FC491CC23A1F0811134
:100770000E943E03EC2FF0E0EE0FFF1FE856FE4F05
:10078000A591B491EC91ED2381E090E009F480E033
:10079000DF91CF91089580E090E0FACF862F0C94FE
:1007A000A5031F93CF93DF93282F30E0F901E25C7C
:1007B000FD4F8491F901E850FE4FD491F901EE54B8
:1007C000FE4FC491CC23A9F0162F81110E943E0345
:1007D000EC2FF0E0EE0FFF1FE258FE4FA591B49111
:1007E0008FB7F894EC91111108C0D095DE23DC93FB
:1007F0008FBFDF91CF911F910895DE2BF8CF862F09
:10080000642F0C94D103CF93DF9390E0FC01E85068
:10081000FE4F24918E549E4FFC0184918823C9F091
:1008200090E0880F991FFC01EC59FE4FA591B491FF
:10083000FC01E258FE4FC591D49161110DC09FB7E4
:10084000F8948C91209582238C9388812823288387
:100850009FBFDF91CF910895623051F49FB7F89414
:100860003C91822F809583238C93E8812E2BEFCFB0
:100870008FB7F894EC912E2B2C938FBFEACF862F55
:10088000642F0C940304089590E080E00895CF93C2
:10089000DF93EC0160E08E810E94D10361E08E81E4
:1008A0000E94D10360E08E810E94D1038BE891E029
:1008B0000197F1F7DF91CF910895CF92DF92EF92F8
:1008C000FF920F931F93CF93DF936C017C0187E01E
:1008D000E80EF11CD0E0C0E0062F10E0B8010C2EAD
:1008E00002C0759567950A94E2F76170F7018191EE
:1008F0007F010E94D1032196C430D10579F7C6014A
:10090000DF91CF911F910F91FF90EF90DF90CF90EB
:100910000C944704CF92DF92EF92FF920F931F93B4
:10092000CF93DF93EC01F62E642F8C810E94D103CC
:100930008D818F3F19F060E00E94D1030F2D10E0F0
:100940008F8584FF25C06E0187E0C80ED11CF12C75
:10095000E12CB8010E2C02C0759567950A94E2F758
:100960006170F60181916F010E94D103FFEFEF1AD0
:10097000FF0A88E0E816F10461F7CE01DF91CF911C
:100980001F910F91FF90EF90DF90CF900C94470450
:10099000B80184E0759567958A95E1F7CE010E94CC
:1009A0005D046F2DCE01DF91CF911F910F91FF90CC
:1009B000EF90DF90CF900C945D0440E0682F8BE1C6
:1009C00093E00C948A04CF93DF93823029F49091C2
:1009D0002A03986090932A0380932E0310922F038A
:1009E00080E48093300380E18093310380E580933D
:1009F000320361E080911F030E9403048091200371
:100A00008F3F19F061E00E94030461E080912103AF
:100A10000E940304CBE1D3E09E012B51334080912F
:100A20002A0384FD0BC084E090E021962817390743
:100A300044F461E08E810E940304EECF88E090E0F0
:100A4000F4CF8BE39DE00197F1F760E080911F0305
:100A50000E94D10360E0809121030E94D103809124
:100A600020038F3F19F060E00E94D10380912A0398
:100A700084FD39C063E08BE193E00E945D04CBE428
:100A8000D6E4CE010197F1F763E08BE193E00E9499
:100A90005D042197F1F763E08BE193E00E945D0430
:100AA00083E592E00197F1F762E08BE193E00E9429
:100AB0005D0480912A0380620E94DD0484E08093BB
:100AC0002B038CE00E94DD0481E00E94DD048BE3B7
:100AD0009FE10197F1F782E080932C0386E0DF919C
:100AE000CF910C94DD0480620E94DD048BE496E4D7
:100AF0000197F1F780912A0380620E94DD0483E56B
:100B000092E00197F1F780912A0380620E94DD0450
:100B1000D0CF41E00E948A0481E090E00895CF9315
:100B2000DF93EC018091150390911603009759F023
:100B300020911703309118032C173D0720F081E016
:100B4000DF91CF910895BE016F5F7F4F0E94F90A38
:100B5000009789F09093160380931503D0931803A0
:100B6000C09317032091190330911A03232B39F7EF
:100B7000FC011082E4CF80E0E3CF1F920F920FB60A
:100B80000F9211240BB60F922F933F934F935F93C5
:100B90006F937F938F939F93AF93BF93EF93FF9345
:100BA00088E792E00E947E02FF91EF91BF91AF91A2
:100BB0009F918F917F916F915F914F913F912F9175
:100BC0000F900BBE0F900FBE0F901F9018951F92A5
:100BD0000F920FB60F9211240BB60F922F938F9393
:100BE0009F93EF93FF93E0918802F09189028081B7
:100BF000E0918E02F0918F0282FD1DC09081809164
:100C000091028F5F8F7320919202821741F0E091E1
:100C10009102F0E0E858FD4F958F80939102FF918B
:100C2000EF919F918F912F910F900BBE0F900FBE60
:100C30000F901F9018958081F2CF1F920F920FB6E0
:100C40000F9211242F933F938F939F93AF93BF9352
:100C50008091740290917502A0917602B091770212
:100C60003091720223E0230F2D3758F50196A11D14
:100C7000B11D209372028093740290937502A09329
:100C80007602B093770280916E0290916F02A091EC
:100C90007002B09171020196A11DB11D80936E0288
:100CA00090936F02A0937002B0937102BF91AF91C5
:100CB0009F918F913F912F910F900FBE0F901F909A
:100CC000189526E8230F0296A11DB11DD2CF1092D0
:100CD0007B0210927A0288EE93E0A0E0B0E080936D
:100CE0007C0290937D02A0937E02B0937F0282E209
:100CF00092E0909379028093780285EC90E0909353
:100D000085028093840284EC90E090938702809324
:100D1000860280EC90E0909389028093880281ECB7
:100D200090E090938B0280938A0282EC90E0909303
:100D30008D0280938C0286EC90E090938F028093DA
:100D40008E021092910210929202109293021092CF
:100D500094021092350310923903109238031092C6
:100D60003A0380E492E09093340380933303EFE4FA
:100D7000F3E01082148213821582369683E0EB38FA
:100D8000F807B9F784E092E0909396038093950377
:100D900080E092E0909398038093970384E080939F
:100DA000990380939A0388E092E090939403809350
:100DB00093038AE090E090939C0380939B0384EFDD
:100DC00091E090939E0380939D031092A103109253
:100DD000A00310928F03109290031092910310922F
:100DE000920310929F0310921E0310921D0384E33E
:100DF00092E090931C0380931B038DE080931F036C
:100E00008FEF809320038CE08093210388E0809310
:100E1000220389E0809323038AE0809324038BE0FC
:100E20008093250310922603109227031092280323
:100E30001092290310922A0381E00E94E304109289
:100E400016031092150310921803109217031092B4
:100E50001A031092190390E080E00E948F05209100
:100E6000150330911603811113C02115310519F0B6
:100E7000C9010E94700A1092160310921503109275
:100E80001A03109219031092180310921703089571
:100E900010921A031092190368E472E0C9010C94CD
:100EA000EC0BCF93DF931F921F92CDB7DEB77894F0
:100EB00084B5826084BD84B5816084BD85B582605F
:100EC00085BD85B5816085BD80916E008160809310
:100ED0006E00109281008091810082608093810079
:100EE0008091810081608093810080918000816089
:100EF000809380008091B10084608093B1008091E4
:100F0000B00081608093B0008091910082608093F6
:100F10009100809191008160809391008091900078
:100F20008160809390008091A10082608093A100F5
:100F30008091A10081608093A1008091A0008160D8
:100F40008093A00080912101826080932101809193
:100F50002101816080932101809120018160809333
:100F6000200180917A00846080937A0080917A00D9
:100F7000826080937A0080917A00816080937A0009
:100F800080917A00806880937A001092C100E0918D
:100F90008802F091890282E08083E0918402F091DE
:100FA00085021082E0918602F09187028FEC8083A7
:100FB00010929002E0918C02F0918D0286E0808385
:100FC000E0918A02F0918B02808180618083E091C0
:100FD0008A02F0918B02808188608083E0918A028E
:100FE000F0918B02808180688083E0918A02F09189
:100FF0008B0280818F7D808382E00E94E30481E008
:101000000E94DD048BE39FE10197F1F7412C512C05
:1010100032014394AA24AA94BA2CE1E080912E03D1
:101020008111E0E0E195F0E0E55EFC4F848990916C
:101030007302890F80680E94DD0451E050939F0382
:101040008FB7F894409174025091750260917602C6
:10105000709177028FBF80918F0390919003A09140
:101060009103B0919203481B590B6A0B7B0B809143
:101070009B0390919C03B0E0A0E084179507A6071E
:10108000B70708F015C110E080919903181760F4B4
:10109000E0919503F0919603E10FF11D62E08081EC
:1010A0000E9403041F5FF0CF312C80919A03381601
:1010B00008F061C0E32CF12CE0919703F0919803C4
:1010C000EE0DFF1D61E080810E940304E091970313
:1010D000F0919803EE0DFF1D60E080810E94D10326
:1010E000D301C201032C04C0880F991FAA1FBB1F84
:1010F0000A94D2F74C016C01C094D094212C8091B9
:101100009903281608F5022D10E0E0919503F0915F
:101110009603E00FF11F80810E94A5030C5F1F4F13
:10112000000F111FF801ED5CFC4F892B41F4808109
:10113000918188299929918380832394E0CF8081AC
:1011400091818C219D21F7CFE0919703F091980335
:10115000EE0DFF1D61E080810E94D1038091970315
:1011600090919803E80EF91E60E0F70180810E94DB
:10117000030433949ACF03E313E07801F701878DDA
:1011800090A1892B21F4148EB68EA58E11A2F6E0C3
:10119000EF0EF11C8FE693E08E159F0579F7912CE9
:1011A00080919903981608F053C0812CC92CD12C3A
:1011B000CC0CDD1CF601E55CFC4F6F0120919A031D
:1011C000821608F043C0F60160817181082C02C0CC
:1011D000769567950A94E2F7929E90011124280D66
:1011E000311DE3E3F3E080E0458D568D241735078C
:1011F00009F4C7C08F5F36968A30B1F760FF24C00C
:10120000E3E3F3E090E080E0448D411118C0E09109
:101210009303F0919403E20FF31F408156E0589F2F
:10122000F001599FF00D1124ED5CFC4F448F368F77
:10123000258F10A2178E61E00E949A0105C00196C9
:1012400036968A30910501F78394B8CF9394A8CF4E
:1012500080E0F80191A19111892F0A5F1F4FE016DC
:10126000F106B9F79FB7F894409174025091750256
:1012700060917602709177029FBF40938F035093E5
:1012800090036093910370939203882389F0809177
:101290005403882369F0809152039091530301977E
:1012A00039F410914F03111106C00E940D03B5CE01
:1012B00010929F03FACF612F88E792E00E94A0026C
:1012C00042E050E066E472E088E792E00E940A02A1
:1012D00041E0612F8BE193E00E948A041A3249F5C4
:1012E000E0912E03E23008F04AC0E150F0E0E55E04
:1012F000FC4F848980680E94DD04809119039091DD
:101300001A03892B71F069E472E0809115039091C2
:1013100016030E94E30B40E150E06EE472E0892B7B
:1013200021F04EE050E06FE572E08BE193E00E9427
:101330000A0219831A820091190310911A030F5F90
:101340001F4FC8010E948F05882399F02091150333
:10135000309116038091190390911A03BE016F5FBB
:101360007F4F820F931F0E94EC0B10931A03009380
:101370001903809173028F5F8093730296CFE1E02F
:10138000B5CF617059CF80911503909116030097E6
:1013900011F00C94700A0895EE0FFF1F881F8BBF89
:1013A0000790F691E02D19940F931F93CF93DF933D
:1013B0008230910510F482E090E0E091A403F09176
:1013C000A50330E020E0B0E0A0E0309799F42115CB
:1013D000310509F44AC0281B390B24303105D8F5F2
:1013E0008A819B816115710589F1FB019383828359
:1013F000FE0111C0408151810281138148175907B4
:10140000E0F04817590799F4109761F012960C9381
:10141000129713961C933296CF01DF91CF911F91B3
:101420000F9108950093A4031093A503F4CF211501
:10143000310551F04217530738F0A901DB019A0139
:10144000BD01DF01F801C1CFEF01F9CF9093A503F2
:101450008093A403CDCFFE01E20FF31F81939193FC
:101460002250310939832883D7CF2091A2033091AC
:10147000A303232B41F420911A0230911B023093D5
:10148000A3032093A2032091180230911902211581
:10149000310541F42DB73EB740911C0250911D0219
:1014A000241B350BE091A203F091A303E217F3078D
:1014B000A0F42E1B3F0B2817390778F0AC014E5FC4
:1014C0005F4F2417350748F04E0F5F1F5093A3035B
:1014D0004093A203819391939FCFF0E0E0E09CCFF3
:1014E000CF93DF930097E9F0FC01329713821282C9
:1014F000A091A403B091A503ED0130E020E0109786
:10150000A1F420813181820F931F2091A203309199
:10151000A3032817390709F061C0F093A303E093F0
:10152000A203DF91CF910895EA01CE17DF07E8F516
:101530004A815B819E0141155105B1F7E901FB83A9
:10154000EA8349915991C40FD51FEC17FD0761F447
:10155000808191810296840F951FE9019983888388
:10156000828193819B838A83F0E0E0E012968D91E3
:101570009C9113970097B9F52D913C911197CD014E
:101580000296820F931F2091A2033091A303281784
:10159000390739F6309751F51092A5031092A4033C
:1015A000B093A303A093A203BCCFD383C283408193
:1015B0005181840F951FC817D90761F44E5F5F4FA3
:1015C00088819981480F591F518340838A819B816B
:1015D000938382832115310509F0B0CFF093A503E1
:1015E000E093A4039ECFFD01DC01C0CF13821282E1
:1015F000D7CF4F925F926F927F928F929F92AF92CE
:10160000BF92CF92DF92EF92FF920F931F93CF93EF
:10161000DF938C01009799F4CB01DF91CF911F915B
:101620000F91FF90EF90DF90CF90BF90AF909F9081
:101630008F907F906F905F904F900C94D409FC0135
:10164000E60FF71F9C0122503109E217F30708F457
:10165000AEC0D901CD91DC911197C617D70720F103
:10166000C530D10578F0CE0104978617970750F062
:10167000C61BD70B2297C193D1936D937C93CF0157
:101680000E94700AC801DF91CF911F910F91FF90C6
:10169000EF90DF90CF90BF90AF909F908F907F9012
:1016A0006F905F904F9008955B01AC1ABD0A4C019A
:1016B0008C0E9D1EA091A403B091A503512C412C2A
:1016C000F12CE12C109731F58091A2039091A303A6
:1016D0008815990509F05CC04616570608F058C0F1
:1016E0008091180290911902009741F48DB79EB72E
:1016F00040911C0250911D02841B950BE817F907BD
:1017000008F055C0F093A303E093A203F90171839D
:101710006083B8CF8D919C91119712966C9012971F
:1017200013967C901397A815B90559F56C0142E002
:10173000C40ED11CCA14DB0420F1AC014A195B09A8
:10174000DA011296159780F062827382518340838A
:10175000D9016D937C93E114F10471F0D7011396D4
:10176000FC93EE9312978ECF22968C0F9D1FF9015A
:1017700091838083F301EFCFF093A503E093A4035B
:1017800081CF4816590608F42C017D01D3019ACF68
:10179000CB010E94D4097C01009749F0AE01B80149
:1017A0000E94DA0BC8010E94700A87016BCF10E01B
:1017B00000E068CFFB01DC0102C001900D924150B6
:1017C0005040D8F70895FB01DC018D9101908019FC
:1017D0000110D9F3990B0895FB01DC0101900D92E2
:1017E0000020E1F7089511E0C3E4D1E000E006C075
:1017F000802FFE010E94CC092196011DC434D1071F
:0A18000080E00807A9F7F894FFCF75
:10180A0017191B1D1F2123253738392F3435362A3E
:10181A003132332D6F303D2B0000A60380000000CB
:10182A000000A0020A023702ED02680246025A02CA
:10183A000000000089050A02440443040000000075
:10184A003F04FF03CE030D0A003132333400436FE5
:10185A0072726563742070617373776F7264005774
:0E186A00726F6E672070617373776F72640027
:00000001FF
