:100000000C94D1010C9402020C9402020C94020292
:100010000C9402020C9402020C9402020C94020250
:100020000C9402020C9402020C9402020C94020240
:100030000C9402020C9402020C9402020C94020230
:100040000C9402020C9402020C9402020C94020220
:100050000C9402020C9402020C9402020C94290AE1
:100060000C9402020C94F3090C94C9090C9402023A
:100070000C9402020C9402020C9402020C940202F0
:100080000C9402020C9402020C9402020C940202E0
:100090000C9402020C9402020C9402020C94730A57
:1000A0000C9402020C9402020C9402020C940202C0
:1000B0000C9402020C9402020C9402020C940202B0
:1000C0000C9402020C9402020C9402020C940202A0
:1000D0000C9402020C9402020C9402020C94020290
:1000E0000C9402020C9429020C946E060C94BB032F
:1000F0000C94F4060C945E040C94B2030C949106D8
:100100000C9490030C94ED030C9485030C94A803B9
:100110000C94AE030C94F5060C9479020C946F06C3
:100120000C9487020C947B030C940C030C94C5066E
:100130000C9427020C9496030C9498060C949A0342
:100140000C94B6030C9489030C948D030C94280230
:100150000C9481030C9496120C944C080C94970BFD
:100160000C9456020C941E040C94A0030C94BF0231
:100170000C94C0030C94A4030C947E060C94BC0352
:100180000C94650200407A10F35A00A0724E1809D0
:100190000010A5D4E80000E87648170000E40B54EE
:1001A000020000CA9A3B000000E1F50500008096BD
:1001B0009800000040420F000000A08601000000EF
:1001C000102700000000E8030000000064000000A9
:1001D00000000A00000000000100000000002C7672
:1001E000D888DC674F0823DFC1DFAE59E1B1B7968D
:1001F000E5E3E453C63AE651997696E8E6C28426EA
:10020000EB898C9B62ED407C6FFCEFBC9C9F40F2C5
:10021000BAA56FA5F490055A2AF75C936B6CF96741
:100220006DC11BFCE0E40D47FEF520E6B500D0ED06
:10023000902E0300943577050080841E080000206E
:100240004E0A000000C80C333333330F986E12830C
:100250001141EF8D2114893BE65516CFFEE6DB18E0
:10026000D1844B381BF77C1D901DA4BBE4242032A5
:1002700084725E228100C9F124ECA1E53D270000D3
:100280002100240027002A002D0030003300010146
:100290000000040107010A010000220025002800D7
:1002A0002B002E003100340002010000050108017E
:1002B0000B01000020002300260029002C002F0045
:1002C00032000001000003010601090105050505D2
:1002D000070508080808020202020A0A08080404BE
:1002E00004040101010101010101030303030303EC
:1002F0000303040707070C0C0C0C0C0C0C0C02027B
:10030000020206060606060606060B0B0B0B0B0B77
:100310000B0B010210202008081020401020408004
:1003200002010201080402010102040810204080B9
:100330008040201008040201800402018040201047
:100340000804020108040201010204081020408090
:10035000010204081020408000000A0B02090C0D65
:100360000E08070304010000000000000000000068
:10037000000000000000000000000000000000007D
:10038000000000001211100000000000000000003A
:100390000000000000000000000000000000970BBB
:1003A000961211241FBECFEFD1E2DEBFCDBF00E019
:1003B0000CBF24E0A0EAB2E001C01D92AE3CB2073F
:1003C000E1F712E0A0E0B2E0E8E5F3E300E00BBF04
:1003D00002C007900D92A03AB107D9F711E0C0ED25
:1003E000D1E000E006C021970109802FFE010E94A4
:1003F0007C17CF3CD10780E00807A9F70E94A10C29
:100400000C949A190C94000096E0899FD001112455
:10041000A55ABB4F90967C936E935F9791E091960F
:100420009C939197E091C804F091C9049091C704FE
:10043000992339F0309751F0811108C080917704E9
:100440001994309719F05C968C91FACF089508951D
:100450000895AF92BF92CF92DF92EF92FF920F93E7
:100460001F93CF93DF936C017B018B01040F151F4A
:10047000EB015E01AE18BF08C017D10759F06991B2
:10048000D601ED91FC910190F081E02DC601199506
:10049000892B79F7C501DF91CF911F910F91FF90C3
:1004A000EF90DF90CF90BF90AF900895FC01538DF7
:1004B000448D252F30E0842F90E0821B930B54173E
:1004C00010F0CF96089501970895FC01918D828DCB
:1004D000981761F0A28DAE0FBF2FB11D5D968C9164
:1004E000928D9F5F9F73928F90E008958FEF9FEFA3
:1004F0000895FC01918D828D981731F0828DE80F5F
:10050000F11D858D90E008958FEF9FEF0895FC0118
:10051000918D228D892F90E0805C9F4F821B9109E5
:100520008F73992708958CE693E00E94870221E05B
:10053000892B09F420E0822F0895FC01A48DA80FD7
:10054000B92FB11DA35ABF4F2C91848D90E0019615
:100550008F739927848FA689B7892C93A089B18935
:100560008C91837080648C93938D848D981306C0D6
:100570000288F389E02D80818F7D80830895EF923A
:10058000FF920F931F93CF93DF93EC0181E0888F4D
:100590009B8D8C8D98131AC0E889F989808185FF1D
:1005A00015C09FB7F894EE89FF896083E889F989BF
:1005B00080818370806480839FBF81E090E0DF91C1
:1005C000CF911F910F91FF90EF900895F62E0B8D14
:1005D00010E00F5F1F4F0F731127E02E8C8D8E11CF
:1005E0000CC00FB607FCFACFE889F989808185FF36
:1005F000F5CFCE010E949D02F1CFEB8DEC0FFD2FC8
:10060000F11DE35AFF4FF0829FB7F8940B8FEA89F0
:10061000FB8980818062CFCFCF93DF93EC01888DFF
:100620008823B9F0AA89BB89E889F9898C9185FD6D
:1006300003C0808186FD0DC00FB607FCF7CF8C91FB
:1006400085FFF2CF808185FFEDCFCE010E949D0214
:10065000E9CFDF91CF91089580E090E0892B29F0D8
:100660000E94930281110E94000080E090E0892B9B
:1006700049F080E090E0892B29F00E940000811170
:100680000E94000080E090E0892B49F080E090E03B
:10069000892B29F00E94000081110E94000080E057
:1006A00090E0892B49F080E090E0892B29F00E94AE
:1006B000000081110C94000008958150823108F0EF
:1006C0005AC0E82FF0E08827E759FC4F8F4F0C9471
:1006D0007C1789038D037B0381038503BB03900390
:1006E00096039A03A003A403A803AE03B203BB03BB
:1006F000B603BC03C003809180008F778093800095
:100700000895809180008F7DF9CF80918000877F50
:10071000F5CF84B58F7784BD089584B58F7DFBCFE9
:100720008091B0008F778093B00008958091B000E1
:100730008F7DF9CF809190008F77809390000895FE
:10074000809190008F7DF9CF80919000877FF5CFC9
:100750008091A0008F778093A00008958091A000E1
:100760008F7DF9CF8091A000877FF5CF8091200108
:100770008F77809320010895809120018F7DF9CF9C
:1007800080912001877FF5CFCF93DF93282F30E032
:10079000F901E85AFC4F8491F901EE5EFC4FD491C7
:1007A000F901E453FD4FC491CC23A1F081110E94C3
:1007B0005D03EC2FF0E0EE0FFF1FEE54FD4FA5910F
:1007C000B491EC91ED2381E090E009F480E0DF91B9
:1007D000CF91089580E090E0FACF862F0C94C40367
:1007E0001F93CF93DF93282F30E0F901E85AFC4F95
:1007F0008491F901EE5EFC4FD491F901E453FD4F71
:10080000C491CC23A9F0162F81110E945D03EC2F17
:10081000F0E0EE0FFF1FE856FD4FA591B4918FB7A2
:10082000F894EC91111108C0D095DE23DC938FBFB2
:10083000DF91CF911F910895DE2BF8CF862F642F83
:100840000C94F003CF93DF9390E0FC01EE5EFC4F3D
:10085000249184539D4FFC0184918823C9F090E03A
:10086000880F991FFC01E258FD4FA591B491FC013E
:10087000E856FD4FC591D49161110DC09FB7F89412
:100880008C91209582238C938881282328839FBF75
:10089000DF91CF910895623051F49FB7F8943C9165
:1008A000822F809583238C93E8812E2BEFCF8FB7F7
:1008B000F894EC912E2B2C938FBFEACF862F642FC8
:1008C0000C9422043FB7F8948091E9029091EA02D7
:1008D000A091EB02B091EC0226B5A89B05C02F3F7A
:1008E00019F00196A11DB11D3FBFBA2FA92F982F56
:1008F0008827BC01CD01620F711D811D911D42E051
:10090000660F771F881F991F4A95D1F708958F9218
:100910009F92AF92BF92CF92DF92EF92FF924B01E4
:100920005C010E9462046B017C010E9462046C19EC
:100930007D098E099F09683E734081059105A8F3E2
:1009400021E0821A9108A108B10888EEC80E83E060
:10095000D81EE11CF11C81149104A104B10429F7F3
:10096000FF90EF90DF90CF90BF90AF909F908F90CF
:1009700008952FB7F8946091E5027091E602809196
:10098000E7029091E8022FBF08950F931F93CF9332
:10099000DF93C82FD62F86E0C89FF0011124E55AB7
:1009A000FB4F11A2878D90A181309105F1F058F095
:1009B00082309105F1F1039709F440C0DF91CF91A6
:1009C0001F910F9108956623C9F361E070E08C2FA9
:1009D0000E9404020E94B9046093B3047093B404AB
:1009E0008093B5049093B604E9CF0E94B9040091B6
:1009F000B3041091B4042091B5043091B604AB0156
:100A0000BC01401B510B620B730B8091C50490918C
:100A1000C604B0E0A0E084179507A607B70748F41E
:100A200062E070E08C2FDF91CF911F910F910C94B9
:100A3000040263E070E0D111C1CFF4CF70E060E058
:100A4000F1CF2091C102260F3327331F2132310508
:100A5000ECF420914203FC0190E080E0243069F046
:100A600082E00895A091C1022191AC014F555D4FE4
:100A7000A40FB52FB11D2C930196861798F3809182
:100A8000C102680F6093C10280E0089581E008957B
:100A90001092420381E08093410310921C0361E0B5
:100AA00084E10E94F00361E085E10E94F003E9EB3C
:100AB000F0E080818E7F808380818D7F808388E4D9
:100AC0008093B80085E48093BC000895CF93DF93B2
:100AD00091E09093A0028823B9F0C091B800D09122
:100AE000BA008091BC008A7B8093BC0060E084E106
:100AF0000E94F00360E085E10E94F0030E94480537
:100B0000D093BA00C093B800DF91CF910895CF92EF
:100B1000DF92EF92FF920F931F93CF93DF93D091C9
:100B20006B0381E0D13208F09CC0C0916A030E943F
:100B300062046B017C018091420381116CC082E0F0
:100B40008093420381E0809341038FEF80934003C1
:100B500010923F03D0933E03AAE4B3E0EEE1F3E04A
:100B600080E0D8138DC010921D0380911D03CC0F1F
:100B7000C82BC0931D0380911C03813009F084C0F1
:100B800010921C030E9462046B017C0180911D0382
:100B90008093BB008091440390914503A09146034C
:100BA000B0914703892B8A2B8B2BA1F00E94620402
:100BB000009144031091450320914603309147036F
:100BC0006C197D098E099F09061717072807390731
:100BD00008F442C08091BC0083FDD8CF85EC80939F
:100BE000BC000E9462046B017C0180914203823050
:100BF00009F44CC0809140038F3F09F469C0809193
:100C00004003803209F466C080914003803309F4C8
:100C100063C084E026C08091440390914503A09175
:100C20004603B0914703892B8A2B8B2B09F483CF82
:100C30000E946204009144031091450320914603F1
:100C4000309147036C197D098E099F090617170714
:100C50002807390708F06FCF809143030E9466058B
:100C600085E01092490310926B0310924803DF91C4
:100C7000CF911F910F91FF90EF90DF90CF9008954B
:100C80009D9191938F5F6DCF85EEA9CF80914403A5
:100C900090914503A0914603B0914703892B8A2B7D
:100CA0008B2B09F4A2CF0E9462040091440310919F
:100CB000450320914603309147036C197D098E0945
:100CC0009F09061717072807390708F08ECFC4CFEA
:100CD00080E0C7CF82E0C5CF83E0C3CF0895E09125
:100CE000F2028091F102E81730F4F0E0ED50FD4F90
:100CF000808190E008958FEF9FEF08959091F20228
:100D00008091F1022FEF3FEF981748F4E92FF0E0C0
:100D1000ED50FD4F208130E09F5F9093F202C901BA
:100D200008958091F1029091F202891B990B089528
:100D3000CF92DF92EF92FF920F931F93CF93DF93A7
:100D40007C01CB018A0120914803222389F0EB0129
:100D50006B01C40ED51ECC15DD0569F06991D70174
:100D6000ED91FC910190F081E02DC7011995F3CF31
:100D7000642F0E942105C801DF91CF911F910F912F
:100D8000FF90EF90DF90CF900895CF93DF931F9265
:100D9000CDB7DEB76983209148032223F9F0209173
:100DA0006B03203258F021E030E0FC0133832283D2
:100DB00090E080E00F90DF91CF91089580914903FA
:100DC000E82FF0E0E65BFC4F998190838F5F809382
:100DD000490380936B0381E090E0ECCF61E0CE01AA
:100DE00001960E942105F7CF089590E080E00895D4
:100DF000CF93DF93EC0160E08E810E94F00361E00D
:100E00008E810E94F00360E08E810E94F0038BE8E7
:100E100091E00197F1F7DF91CF910895CF92DF92A2
:100E2000EF92FF920F931F93CF93DF936C017C019E
:100E300087E0E80EF11CD0E0C0E0062F10E0B8011A
:100E40000C2E02C0759567950A94E2F76170F70160
:100E500081917F010E94F0032196C430D10579F77A
:100E6000C601DF91CF911F910F91FF90EF90DF901E
:100E7000CF900C94F806CF92DF92EF92FF920F93EF
:100E80001F93CF93DF93EC01F62E642F8C810E9489
:100E9000F0038D818F3F19F060E00E94F0030F2D69
:100EA00010E08F8584FF25C06E0187E0C80ED11C3D
:100EB000F12CE12CB8010E2C02C0759567950A94AF
:100EC000E2F76170F60181916F010E94F003FFEF7C
:100ED000EF1AFF0A88E0E816F10461F7CE01DF910E
:100EE000CF911F910F91FF90EF90DF90CF900C94D6
:100EF000F806B80184E0759567958A95E1F7CE010B
:100F00000E940E076F2DCE01DF91CF911F910F919F
:100F1000FF90EF90DF90CF900C940E0740E0682F89
:100F200083E494E00C943B0781E00E948E078BE3FE
:100F30009FE10197F1F70895CF93DF93823029F471
:100F400090915204986090935204809356041092AA
:100F5000570480E48093580480E18093590480E52D
:100F600080935A0461E0809147040E94220480919A
:100F700048048F3F19F061E00E94220461E08091F3
:100F800049040E942204C3E4D4E09E012354344067
:100F90008091520484FD0BC084E090E021962817D4
:100FA000390744F461E08E810E942204EECF88E08C
:100FB00090E0F4CF8BE39DE00197F1F760E0809142
:100FC00047040E94F00360E0809149040E94F0030E
:100FD000809148048F3F19F060E00E94F0038091F7
:100FE000520484FD34C063E083E494E00E940E0761
:100FF000CBE4D6E4CE010197F1F763E083E494E01B
:101000000E940E072197F1F763E083E494E00E94C9
:101010000E0783E592E00197F1F762E083E494E044
:101020000E940E078091520480620E948E0784E025
:10103000809353048CE00E948E070E94940782E004
:101040008093540486E0DF91CF910C948E078062E8
:101050000E948E078BE496E40197F1F78091520489
:1010600080620E948E0783E592E00197F1F78091FC
:10107000520480620E948E07D5CF90915604691762
:1010800010F06FEF690FE62FF0E0ED5BFB4F9489F6
:10109000890F80680C948E0741E00E943B0781E035
:1010A00090E00895FC0101900020E9F73197AF012D
:1010B000481B590BBC018CE693E00C9429020F935A
:1010C0001F93CF93DF93EC0188819981009759F0AA
:1010D0002A813B812617370730F081E0DF91CF91DD
:1010E0001F910F9108958B016F5F7F4F0E94A91888
:1010F000009759F0998388831B830A832C813D8153
:10110000232B59F7FC011082E8CF80E0E7CFEF9264
:10111000FF920F931F93CF93DF936115710541F4F5
:1011200080E0DF91CF911F910F91FF90EF90089594
:1011300041155105B1F07B01EC010C811D81040FBB
:10114000151FB8010E945F08882351F32881398157
:101150008C819D81B701820F931F0E9493191D837B
:101160000C8381E0DECFCF93DF93EC0188819981FE
:10117000009711F00E942018198218821D821C828B
:101180001B821A82DF91CF910895EF92FF920F9305
:101190001F93CF93DF93EC017B018A01BA010E9478
:1011A0005F0881110BC0CE010E94B308CE01DF9110
:1011B000CF911F910F91FF90EF9008951D830C83A5
:1011C000B701888199810E949319F0CFFB010190AA
:1011D0000020E9F73197AF01461B570B0C94C50867
:1011E0000F931F93CF93DF93CDB7DEB762970FB600
:1011F000F894DEBF0FBECDBF8C01CB01F801118288
:10120000108213821282158214824AE0BE016F5F3F
:101210007F4F0E94F312BE016F5F7F4FC8010E9493
:10122000E60862960FB6F894DEBF0FBECDBFDF9121
:10123000CF911F910F910895FC01118210821382AA
:10124000128215821482FB0101900020E9F7319788
:10125000AF01461B570B0C94C508FC01808191819E
:10126000009711F00C9420180895EF92FF920F93BD
:101270001F93CF93DF9300D000D0CDB7DEB78C01A2
:101280000E94940760E080E00E943D08E0901A030D
:10129000F0901B031A8219821C821B821E821D82FF
:1012A000F801608171816115710531F044815581CA
:1012B000CE0101960E94C50886E08E9DF0018F9DAB
:1012C000F00D1124EB5DFB4F4481558160817181EC
:1012D000CE0101960E948708811104C0CE010196BB
:1012E0000E94B3084D815E8169817A8183E494E034
:1012F0000E942902CE0101960E942D096FE972E039
:101300008FE194E00E94E60826960FB6F894DEBFBF
:101310000FBECDBFDF91CF911F910F91FF90EF9046
:10132000089585ED8093BC0080914403909145031E
:10133000A0914603B09147030796A11DB11D23E07C
:10134000B695A795979587952A95D1F72091BC00DA
:1013500024FD03C01092420308954091440350912C
:1013600045036091460370914703452B462B472B5D
:1013700069F30097A105B10541F025E32A95F1F73E
:1013800000000197A109B109E1CF809143030C94BA
:1013900066051F920F920FB60F9211240BB60F9293
:1013A0002F933F934F935F936F937F938F939F936D
:1013B000AF93BF93EF93FF938CE693E00E949D025F
:1013C000FF91EF91BF91AF919F918F917F916F911D
:1013D0005F914F913F912F910F900BBE0F900FBED9
:1013E0000F901F9018951F920F920FB60F92112415
:1013F0000BB60F922F938F939F93EF93FF93E091F0
:101400007C03F0917D038081E0918203F09183035E
:1014100082FD1DC09081809185038F5F8F73209125
:101420008603821741F0E0918503F0E0E459FC4F18
:10143000958F80938503FF91EF919F918F912F91CD
:101440000F900BBE0F900FBE0F901F9018958081CC
:10145000F2CF1F920F920FB60F9211242F933F934A
:101460008F939F93AF93BF938091E5029091E60293
:10147000A091E702B091E8023091E40223E0230F4B
:101480002D3758F50196A11DB11D2093E4028093DC
:10149000E5029093E602A093E702B093E802809100
:1014A000E9029091EA02A091EB02B091EC02019660
:1014B000A11DB11D8093E9029093EA02A093EB0273
:1014C000B093EC02BF91AF919F918F913F912F917B
:1014D0000F900FBE0F901F90189526E8230F0296CD
:1014E000A11DB11DD2CF1F920F920FB60F921124E2
:1014F0000BB60F922F933F934F935F936F937F930E
:101500008F939F93AF93BF93EF93FF938091B90015
:10151000887F803609F44DC008F040C0883209F455
:10152000A9C028F5803109F49DC0C8F4882309F4C6
:10153000FBC0883009F496C0FF91EF91BF91AF9145
:101540009F918F917F916F915F914F913F912F91DB
:101550000F900BBE0F900FBE0F901F901895883103
:1015600009F488C0803241F78093400314C080346E
:1015700009F49DC040F48033B9F38833E9F68093D1
:10158000400385ECB0C0803509F485C0883509F486
:1015900096C0883489F60E949109CECF883909F423
:1015A0008CC038F5883729F050F4883611F0803730
:1015B00019F683E0809342031092E30257C0883803
:1015C00009F47BC0803919F0803809F0B5CF8091DB
:1015D000E302803208F071C0E091E30281E08E0FF7
:1015E0008093E3028091BB00F0E0ED53FD4F8083D8
:1015F0003DC0803B39F0E0F4803A09F479C0883A84
:1016000009F09ACF84E0809342031092C2021092B4
:10161000C102E091EF02F091F00219958091C102B0
:1016200081110FC081E08093C1021092A10209C014
:10163000803C09F4A6CF883C09F4A3CF883B09F08D
:101640007BCFE091C20281E08E0F8093C202F0E076
:10165000EF55FD4F80818093BB009091C202809135
:10166000C10229C080911D038093BB0085EC80934B
:10167000BC0062CF90913F0380913E03981758F5CC
:10168000E0913F0381E08E0F80933F03F0E0E25E44
:10169000FC4F8081E9CFE0913F0381E08E0F809382
:1016A0003F038091BB00F0E0E25EFC4F80839091AD
:1016B0003F0380913E039817C8F285E8D8CFE091A8
:1016C0003F0381E08E0F80933F038091BB00F0E0E9
:1016D000E25EFC4F80838091410381115CCF81E009
:1016E00080931C0384EA8093BC001092420324CFB1
:1016F00085EC8093BC00109242038091E30280321B
:1017000030F4E091E302F0E0ED53FD4F1082609180
:10171000E30270E0E091ED02F091EE0283EC92E0E2
:1017200019951092E30208CF1092400334CF109223
:101730006F0310926E0388EE93E0A0E0B0E0809318
:10174000700390937103A0937203B09373032AE222
:1017500032E030936D0320936C0325EC30E030933E
:1017600079032093780324EC30E030937B032093BB
:101770007A0320EC30E030937D0320937C0321EC4E
:1017800030E030937F0320937E0322EC30E03093EF
:1017900081032093800326EC30E030938303209371
:1017A0008203109285031092860310928703109291
:1017B000880310920C0410920B0480930D049093F4
:1017C0000E04A0930F04B09310048CE392E0909366
:1017D0000A048093090410925D041092610410922F
:1017E0006004109262048AE592E090935C04809316
:1017F0005B04E7E7F4E010821482138215823696C8
:1018000084E0E33BF807B9F788E092E09093BE04E8
:101810008093BD0484E092E09093C0048093BF0461
:1018200084E08093C1048093C2048CE092E09093A2
:10183000BC048093BB048AE090E09093C40480933E
:10184000C30484EF91E09093C6048093C504109282
:10185000C9041092C8041092B7041092B8041092F0
:10186000B9041092BA041092C70410924604109260
:1018700045048EE492E090934404809343048DE009
:10188000809347048FEF809348048CE08093490451
:1018900088E080934A0489E080934B048AE0809337
:1018A0004C048BE080934D0410924E0410924F0430
:1018B00010925004109251041092520481E00E9440
:1018C0009C0760E672E085E294E00E941C0965E6F0
:1018D00072E08BE294E00E941C096FE672E081E303
:1018E00094E00E941C0968E772E087E394E00E949C
:1018F0001C096FE772E08DE394E00E941C096FE918
:1019000072E08FE194E00E941C098091000290E057
:1019100090931E0480931D040E94B90460931904DF
:1019200070931A0480931B0490931C040E94B904C2
:101930006093150470931604809317049093180411
:101940000895CF93DF93CDB7DEB7E1970FB6F89444
:10195000DEBF0FBECDBF789484B5826084BD84B5F0
:10196000816084BD85B5826085BD85B5816085BD9A
:1019700080916E00816080936E0010928100809152
:1019800081008260809381008091810081608093DA
:101990008100809180008160809380008091B100FF
:1019A00084608093B1008091B00081608093B0002A
:1019B000809191008260809391008091910081607C
:1019C000809391008091900081608093900080913D
:1019D000A10082608093A1008091A100816080932A
:1019E000A1008091A00081608093A00080912101DE
:1019F0008260809321018091210181608093210187
:101A00008091200181608093200180917A00846020
:101A100080937A0080917A00826080937A0080912E
:101A20007A00816080937A0080917A008068809348
:101A30007A001092C100E0917C03F0917D0382E076
:101A40008083E0917803F09179031082E0917A032A
:101A5000F0917B038FEC808310928403E0918003EC
:101A6000F091810386E08083E0917E03F0917F0313
:101A7000808180618083E0917E03F0917F0380818B
:101A800088608083E0917E03F0917F03808180688D
:101A90008083E0917E03F0917F0380818F7D80833E
:101AA0001092F2021092F1021092490310926B030D
:101AB0000E94480587E292E09093F0028093EF0243
:101AC00088E292E09093EE028093ED0282E00E9421
:101AD0009C070E94940760E080E00E943D0861E05E
:101AE00085E30E94220461E084E30E94220461E015
:101AF00083E30E94220461E082E30E9422049E01AB
:101B00002F5F3F4F79018AE0F90111928A95E9F739
:101B100081E08093480380E580936A0360E089E078
:101B200094E00E94C50662E389E094E00E94C50645
:101B30000E9487050E9462044B015C018091420370
:101B4000811165C081E080934203809341039FEF40
:101B50009093400310923F0399E090933E0380934B
:101B60001D0380911D03806A80931D0380911C03D7
:101B7000813009F05FC110921C030E9462044B0186
:101B80005C0180911D038093BB0080914403909180
:101B90004503A0914603B0914703892B8A2B8B2BD9
:101BA000A1F00E946204009144031091450320912A
:101BB000460330914703681979098A099B0906177A
:101BC00017072807390708F443C08091BC0083FD3C
:101BD000D8CF85EC8093BC000E9462044B015C016D
:101BE00080914203813009F427C180913F038A30FC
:101BF00008F044C180913F03EEE1F3E0A3EFB2E0CF
:101C000090E0981751F121912D939F5FFACF809129
:101C1000440390914503A0914603B0914703892B5B
:101C20008A2B8B2B09F48ACF0E9462040091440313
:101C300010914503209146033091470368197909B3
:101C40008A099B09061717072807390708F076CF76
:101C5000809143030E94660580E01092F202809317
:101C6000F10287016E01FBE0CF0ED11C89E094E008
:101C70000E947E06F80181938F01CE16DF06B1F730
:101C800019811F3F09F44AC0C12ED12CD0921B03E9
:101C9000C0921A030A81009313038B818093000280
:101CA0008C81809301028D81809302028E818093CA
:101CB00003026F81788589859A850E942417709325
:101CC0001E0460931D04072E000C880B990B0E94C4
:101CD00095156093140370931503809316039093E6
:101CE0001703123009F0CCC081E08093180310E094
:101CF000F801EE5DFD4F61E080810E94F003B801C4
:101D00006F5F7F4FCE0182960E94F008CE018296CF
:101D10000E943509CE0182960E942D099E01245D04
:101D20003F4F3DA72CA73AE0432E512C612C712C3C
:101D3000809118038111C2C0809014039090150304
:101D4000A0901603B090170361E080E00E943D0868
:101D50001BA21AA21DA21CA21FA21EA2870122E082
:101D600044E0C501B4010E94AE12009709F44AC1D3
:101D7000BC01CE0182960E94E60868E872E0C701C5
:101D80000E941C094EA15FA16AA17BA1C7010E940C
:101D90008708811103C0C7010E94B30842E050E0E8
:101DA00060E972E0C7010E948708811103C0C70182
:101DB0000E94B3084D815E8169817A8183E494E059
:101DC0000E942902C7010E942D09CE0182960E941D
:101DD0002D0981E08093C7040E94B9040091B704E3
:101DE0001091B8042091B9043091BA04AB01BC0140
:101DF000401B510B620B730B8091C3049091C40480
:101E0000B0E0A0E084179507A607B70708F09BC2CB
:101E100010E08091C104181708F0F9C0E091BD04EA
:101E2000F091BE04E10FF11D62E080810E94220466
:101E30001F5FEFCF85EECECE809144039091450396
:101E4000A0914603B0914703892B8A2B8B2B09F471
:101E5000C7CE0E9462040091440310914503209173
:101E6000460330914703681979098A099B090617C7
:101E700017072807390708F0B3CEEACE8AE0BCCEB0
:101E8000F4E0CF16D10489F461E085E30E94F00309
:101E900061E084E30E94F00361E083E30E94F003C9
:101EA00061E082E30E94F00302C00330C9F36FE9EE
:101EB00072E0CE0182960E941C0928CF0E94B904CC
:101EC0004B015C0160911D0470911E04072E000CF3
:101ED000880B990B0E9495156EA77FA788AB99ABCD
:101EE0008091190490911A04A0911B04B0911C04D4
:101EF000A5019401281B390B4A0B5B0BCA01B901E0
:101F00000E94951520E030E04AE754E40E94B216A2
:101F10009B01AC016EA57FA588A999A90E944516D1
:101F20006093140370931503809316039093170323
:101F300020E030E0A9010E948E1518160CF4FCCEAA
:101F4000C0901303D12C3FEFC31AD30A43E0C4223D
:101F5000DD24C0921303C114D10461F5109218035B
:101F600084E090E090931B0380931A0361E085E383
:101F70000E94F00361E084E30E94F00361E083E3E8
:101F80000E94F00361E082E30E94F0036FE972E0D7
:101F9000C7010E941C09C7010E943509C7010E94A0
:101FA0002D0910921403109215031092160310922B
:101FB0001703C2CE0E94B9046093190470931A04E7
:101FC00080931B0490931C04F601E050FE4F808127
:101FD00090E090931E0480931D0486010E5D1D4FBA
:101FE000F801319760E080810E94F00361E0F80120
:101FF00080810E94F003B6016F5F7F4FC7010E948E
:10200000F008C9CFCE0182960E94B308B6CE312C1B
:102010008091C204381608F063C0C32CD12CE09123
:10202000BF04F091C004EC0DFD1D61E080810E94B1
:102030002204E091BF04F091C004EC0DFD1D60E0AE
:1020400080810E94F00381E090E0A0E0B0E0032CEA
:1020500004C0880F991FAA1FBB1F0A94D2F74C0116
:102060005C01A094B094212C8091C104281608F53D
:10207000022D10E0E091BD04F091BE04E00FF11FCD
:1020800080810E94C4030C5F1F4F000F111FF801D5
:10209000E55AFB4F892B41F4808191818829992948
:1020A000918380832394E0CF808191818A219B2139
:1020B000F7CFE091BF04F091C004EC0DFD1D61E08D
:1020C00080810E94F0038091BF049091C004C80EEB
:1020D000D91E60E0F60180810E942204339498CFDB
:1020E0000BE514E06801F601878D90A1892B31F48E
:1020F000148E2FEF3FEF368F258F11A236E0C30EDF
:10210000D11C47E954E04C155D0569F7B12C80916D
:10211000C104B81608F053C0A12C8B2C912C880C4C
:10212000991CC4018D599B4F4C012091C204A216E9
:1021300008F043C0F401608171810A2C02C07695D9
:1021400067950A94E2F7B29E900111242A0D311D81
:10215000EBE5F4E080E0458D568D2417350709F452
:10216000B2C18F5F36968A30B1F760FF24C0EBE5CD
:10217000F4E090E080E0448D411118C0E091BB0490
:10218000F091BC04E20FF31F408156E0589FF0012C
:10219000599FF00D1124E55AFB4F448F368F258F40
:1021A00010A2178E61E00E94C50405C00196369604
:1021B0008A30910501F7A394B8CFB394A8CFB12C7E
:1021C000F80181A18111B82E0A5F1F4F0C151D0562
:1021D000B9F70E94B9046093B7047093B804809370
:1021E000B9049093BA04BB2009F4ADC080917C047B
:1021F000882309F4A8C020917A0430917B0421300F
:10220000310509F0A0C01091770411119FC00E9400
:10221000B90400911504109116042091170430910F
:102220001804601B710B820B930B613D7740810595
:10223000910508F47FC080911A038AA3809113034B
:102240008BA3809100028CA3809101028DA38091C9
:1022500002028EA3809103028FA3809114039091B8
:102260001503A0911603B091170388A799A7AAA7F1
:10227000BBA781E08093480380E580936A031092B6
:10228000490310926B0360E089E094E00E94C50668
:1022900062E389E094E00E94C506AE014E5D5F4FA7
:1022A0006A01F60111916F01612F89E094E00E94AB
:1022B000C50683E992E00E945208212F30E050E0E9
:1022C00040E019A28E010F5D1F4FCA01B901A301A1
:1022D00092010E945A17605DF80162938F012115E7
:1022E00031054105510589F7309719F0CF010E945A
:1022F00052088DE992E00E94520862E370E080E0AB
:1023000090E00E9487042CA53DA52C153D0549F6BB
:102310000E94870562E370E080E090E00E948704FD
:102320000E94B904609315047093160480931704F7
:102330009093180464E670E080E090E00E948704C7
:102340000E942C03F5CC1092C70461CF80911A0330
:1023500090911B030097B9F48FEC810F843008F043
:1023600053C030931B0320931A03809319036FE922
:1023700072E0C7010E941C09C7010E943509C7010C
:102380000E942D0944CF8130910509F09EC01D3374
:1023900009F07FC010921B0310921A0380911F0452
:1023A0009091200460E0009711F00E94CC12E0911F
:1023B0001903F0E0E050FE4F60836FE972E0CE0158
:1023C00001960E941C09CE0101960E943509CE019A
:1023D0000196D6CF1A3209F01ACF23E030E03093BD
:1023E0001B0320931A031092180360911403709139
:1023F000150380911603909117030E942417709380
:102400001E0460931D04D9CF1A3209F000CF82E078
:1024100090E090931B0380931A038091000290E058
:1024200090931E0480931D04109213030E94B9041C
:102430006093190470931A0480931B0490931C04F6
:1024400081E08093180361E085E30E94F00361E07E
:1024500070E0CE0101960E94F008B5CF049709F014
:10246000D6CE1A3209F0D3CE10921B0310921A0363
:1024700060E085E30E94F00360E084E30E94F003E3
:1024800060E083E30E94F00360E082E30E94F003D7
:1024900094CF90912F048091230460E0890F0E94D3
:1024A0003D0841E0612F83E494E00E943B071983DB
:1024B0001A8241E050E0BE016F5F7F4F8FE194E0F0
:1024C0000E948708A4CE61706ECE8230910509F417
:1024D00081CF8330910511F61A3209F098CE82E04F
:1024E00090E090931B0380931A030E94B9046093B9
:1024F000190470931A0480931B0490931C0481E0C8
:102500008093180360911403709115038091160352
:10251000909117030E94241770931E0460931D046A
:102520006091130370E06F5F7F4F93CF8FE194E072
:102530000E942D098DE394E00E942D0987E394E029
:102540000E942D0981E394E00E942D098BE294E022
:102550000E942D0985E294E00C942D09EF920F93CF
:102560001F93CF93DF93E80134E047FD34E1042E5D
:10257000000C550B57FF03C0519541955109E32EAF
:10258000022F242FAE010E942D13CE01DF91CF9197
:102590001F910F91EF9008951F93FC0199278827B1
:1025A000BC01E89411911032E9F3193010F01E309B
:1025B000C8F31B3251F01D3249F4689406C00E94E2
:1025C000FE12610F711D811D911D119110531A3062
:1025D000B0F33EF490958095709561957F4F8F4F45
:1025E0009F4F1F910895BB274A3031F4992322F45D
:1025F000BDE2909581959F4F0C941413592F482F4D
:10260000372F262F660F771F881F991F660F771F9A
:10261000881F991F620F731F841F951F660F771FF6
:10262000881F991F0895BB27FB015527AA27880FEC
:10263000991FAA1FA41710F0A41B83955051B9F736
:10264000A05DAA3308F0A95DA193009779F7B111B5
:10265000B1931192CB010C947E158F929F92AF9201
:10266000BF92CF92DF92EF92FF920F931F93CF937F
:10267000DF9300D000D000D0CDB7DEB76A01F22ED4
:10268000B02E102FFBE3AF2EA01608F41BE31F5F44
:10269000012F27E0AE014F5F5F4F0E94A614BC01DF
:1026A0008981982F9970913009F44EC09BE2E1FC2A
:1026B00004C09E2D9170E0FC49C05E2D5071E82F42
:1026C000E87083FF55C084E0911101C083E0EF2DD5
:1026D000E81B8F1508F0E0E0D6018E2F20E255238D
:1026E000C9F1992329F0D6019C93C60101966C018A
:1026F00096012D5F3F4FE2FE33C08EE4D6018C93EE
:1027000091E411969C93119712968C93D9018E2F78
:1027100090E281112AC0E20FF32FF11D10828EEF9B
:102720009FEF29960FB6F894DEBF0FBECDBFDF91A5
:10273000CF911F910F91FF90EF90DF90CF90BF90BE
:10274000AF909F908F9008959DE2B7CF90E2B5CF64
:102750002D9381508111FCCFCE0ED11CE0E0C1CF72
:102760008EE6D6018C9391E6CCCF9D938150D1CF4C
:10277000482F447082FF3DC084E0911101C083E086
:102780008F1510F4EF2DE81BD6018E2F20E2552374
:1027900009F1992329F0D6019C93C60101966C0199
:1027A00096012D5F3F4FE2FE1BC089E4D6018C935A
:1027B0008EE411968C93119786E412968C93D9012E
:1027C0008E2F90E2882309F4A6CF9D938150FACFF3
:1027D0002D9381508111FCCFCE0ED11CE0E0D9CFDA
:1027E00089E6D6018C938EE611968C93119786E636
:1027F000E4CF9B0177FF02C030E020E0A1E0B0E031
:10280000911102C0B0E0A0E0F9013196AE0FBF1FF8
:102810008B2C912CBB2009F461C05401EFEFAE1A50
:10282000BE0AAA0DBB1DFA161B0619F014F04F2D97
:102830004A1B511188C0E3FC59C07601A42FB0E2B5
:10284000A1114FC0C40ED11C992309F45BC040E014
:10285000D6011196F60190836D01552309F448C005
:10286000012F060F9A81582F507184FF03C09133B6
:1028700009F4015010160CF047C0093008F008E0C8
:10288000EEE2FE2E5B01A01AB108850191948194BD
:1028900091082F3F320729F4D601FC92F6013196B8
:1028A0006F016217730794F1021713077CF5DB01C0
:1028B000A21BB30BAA24A394B12CAC0EBD1EAA0D6F
:1028C000BB1D11968C9121503109D6011196281506
:1028D0003905F4F0F60180836D01DBCFB12CA12C1A
:1028E000A0CFF701B1937F01A150AACF9111B0CF32
:1028F000D601942F50E302C05D9391509111FCCF0B
:10290000C40ED11C40E0ACCF01E0BACF80E3DBCFF6
:102910006217730731F4963388F4953311F4552315
:1029200069F0F6018083FD01842F90E2811108C0D7
:10293000A40FB11D1C9290E080E0F3CE81E3F1CFB3
:1029400091938150F3CF911183CF8ACF283008F033
:1029500027E03327DA01990F311D87FD916000963A
:102960006105710539F432602E5F3D9330E32A959D
:10297000E1F708959F3F30F080387105610509F057
:102980003C5F3C5F3D93913008F08068911DDF9380
:10299000CF931F930F93FF92EF92192F987F9695E5
:1029A000E92F96959695E90FFF27E252FE4F99275A
:1029B0003327EE24FF24A701E7010590089407942C
:1029C00028F4360FE71EF81E491F511D660F771FAA
:1029D000881F991F0694A1F70590079428F4E70E25
:1029E000F81E491F561FC11D770F881F991F661FAC
:1029F0000694A1F70590079428F4F80E491F561F76
:102A0000C71FD11D880F991F661F771F0694A1F756
:102A10000590079420F4490F561FC71FD81F990F20
:102A2000661F771F881F0694A9F784911095177069
:102A300041F0D695C79557954795F794E7941A9521
:102A4000C1F7E4E8F1E0689415901591359165912E
:102A5000959105907FE27395E118F10A430B560BAF
:102A6000C90BD009C0F7E10CF11E431F561FC91F47
:102A7000D01D7EF4703311F48A95E6CFE8940150AE
:102A800030F0080F0AF40027021708F4202F2395CE
:102A9000022F7A3328F079E37D932A95E9F710C065
:102AA0007D932A9589F6069497956795379517959E
:102AB0001794E118F10A430B560BC90BD00998F093
:102AC00023957E9173957A3308F070E37C932013FD
:102AD000B8F77E9170617D9330F0839571E37D93BB
:102AE00070E32A95E1F71124EF90FF900F911F9169
:102AF000CF91DF91992787FD90950895DC01FC0126
:102B0000672F71917723E1F7329704C07C916D9321
:102B100070836291AE17BF07C8F308950E94D01565
:102B200008F481E00895E89409C097FB3EF490957D
:102B30008095709561957F4F8F4F9F4F9923A9F096
:102B4000F92F96E9BB279395F69587957795679525
:102B5000B795F111F8CFFAF4BB0F11F460FF1BC069
:102B60006F5F7F4F8F4F9F4F16C0882311F096E9FC
:102B700011C0772321F09EE8872F762F05C06623AA
:102B800071F096E8862F70E060E02AF09A95660F63
:102B9000771F881FDAF7880F9695879597F908951C
:102BA000990F0008550FAA0BE0E8FEEF161617065E
:102BB000E807F907C0F012161306E407F50798F0C6
:102BC000621B730B840B950B39F40A2661F0232BDF
:102BD000242B252B21F408950A2609F4A140A6955B
:102BE0008FEF811D811D089597F99F6780E870E040
:102BF00060E008959FEF80EC089500240A94161673
:102C0000170618060906089500240A9412161306DA
:102C1000140605060895092E0394000C11F4882368
:102C200052F0BB0F40F4BF2B11F460FF04C06F5F84
:102C30007F4F8F4F9F4F089557FD9058440F551F5A
:102C400059F05F3F71F04795880F97FB991F61F02E
:102C50009F3F79F087950895121613061406551FA5
:102C6000F2CF4695F1DF08C0161617061806991F11
:102C7000F1CF86957105610508940895E894BB2706
:102C800066277727CB0197F908955058BB27AA27C5
:102C90000E945D160C940B160E94FD1538F00E94E0
:102CA000041620F039F49F3F19F426F40C94FA1519
:102CB0000EF4E095E7FB0C94F415E92F0E941C1626
:102CC00058F3BA17620773078407950720F079F461
:102CD000A6F50C943E160EF4E0950B2EBA2FA02DFF
:102CE0000B01B90190010C01CA01A0011124FF27B9
:102CF000591B99F0593F50F4503E68F11A16F040B4
:102D0000A22F232F342F4427585FF3CF46953795B2
:102D10002795A795F0405395C9F77EF41F16BA0B77
:102D2000620B730B840BBAF09150A1F0FF0FBB1F25
:102D3000661F771F881FC2F70EC0BA0F621F731F6E
:102D4000841F48F4879577956795B795F7959E3FCB
:102D500008F0B0CF9395880F08F09927EE0F97955C
:102D6000879508950E94C6160C940B160E940416AF
:102D700058F00E94FD1540F029F45F3F29F00C94B3
:102D8000F41551110C943F160C94FA150E941C1660
:102D900068F39923B1F3552391F3951B550BBB278A
:102DA000AA2762177307840738F09F5F5F4F220FCF
:102DB000331F441FAA1FA9F335D00E2E3AF0E0E8C6
:102DC00032D091505040E695001CCAF72BD0FE2F10
:102DD00029D0660F771F881FBB1F261737074807A4
:102DE000AB07B0E809F0BB0B802DBF01FF2793585C
:102DF0005F4F3AF09E3F510578F00C94F4150C9417
:102E00003F165F3FE4F3983ED4F386957795679538
:102E1000B795F7959F5FC9F7880F911D9695879590
:102E200097F90895E1E0660F771F881FBB1F6217AF
:102E300073078407BA0720F0621B730B840BBA0B6D
:102E4000EE1F88F7E09508950E942B176894B11142
:102E50000C943F1608950E94241688F09F5798F00E
:102E6000B92F9927B751B0F0E1F0660F771F881F8F
:102E7000991F1AF0BA95C9F714C0B13091F00E94A9
:102E80003E16B1E008950C943E16672F782F8827E0
:102E9000B85F39F0B93FCCF3869577956795B395D0
:102EA000D9F73EF490958095709561957F4F8F4F3F
:102EB0009F4F0895A1E21A2EAA1BBB1BFD010DC056
:102EC000AA1FBB1FEE1FFF1FA217B307E407F507DA
:102ED00020F0A21BB30BE40BF50B661F771F881FB6
:102EE000991F1A9469F760957095809590959B014C
:102EF000AC01BD01CF010895EE0FFF1F881F8BBFEE
:102F00000790F691E02D19940F931F93CF93DF93C1
:102F10008230910510F482E090E0E091CC04F091D1
:102F2000CD0430E020E0B0E0A0E0309799F4211526
:102F3000310509F44AC0281B390B24303105D8F576
:102F40008A819B816115710589F1FB0193838283DD
:102F5000FE0111C040815181028113814817590738
:102F6000E0F04817590799F4109761F012960C9306
:102F7000129713961C933296CF01DF91CF911F9138
:102F80000F9108950093CC041093CD04F4CF211534
:102F9000310551F04217530738F0A901DB019A01BE
:102FA000BD01DF01F801C1CFEF01F9CF9093CD044E
:102FB0008093CC04CDCFFE01E20FF31F8193919358
:102FC0002250310939832883D7CF2091CA04309108
:102FD000CB04232B41F420911E0230911F02309329
:102FE000CB042093CA0420911C0230911D022115AC
:102FF000310541F42DB73EB7409120025091210296
:10300000241B350BE091CA04F091CB04E217F307BF
:10301000A0F42E1B3F0B2817390778F0AC014E5F48
:103020005F4F2417350748F04E0F5F1F5093CB04B6
:103030004093CA04819391939FCFF0E0E0E09CCF4E
:10304000CF93DF930097E9F0FC013297138212824D
:10305000A091CC04B091CD04ED0130E020E01097B8
:10306000A1F420813181820F931F2091CA043091F5
:10307000CB042817390709F061C0F093CB04E09323
:10308000CA04DF91CF910895EA01CE17DF07E8F572
:103090004A815B819E0141155105B1F7E901FB832E
:1030A000EA8349915991C40FD51FEC17FD0761F4CC
:1030B000808191810296840F951FE901998388830D
:1030C000828193819B838A83F0E0E0E012968D9168
:1030D0009C9113970097B9F52D913C911197CD01D3
:1030E0000296820F931F2091CA043091CB042817B7
:1030F000390739F6309751F51092CD041092CC046F
:10310000B093CB04A093CA04BCCFD383C2834081C5
:103110005181840F951FC817D90761F44E5F5F4F27
:1031200088819981480F591F518340838A819B81EF
:10313000938382832115310509F0B0CFF093CD043C
:10314000E093CC049ECFFD01DC01C0CF138212823C
:10315000D7CF4F925F926F927F928F929F92AF9252
:10316000BF92CF92DF92EF92FF920F931F93CF9374
:10317000DF938C01009799F4CB01DF91CF911F91E0
:103180000F91FF90EF90DF90CF90BF90AF909F9006
:103190008F907F906F905F904F900C948417FC01FC
:1031A000E60FF71F9C0122503109E217F30708F4DC
:1031B000AEC0D901CD91DC911197C617D70720F188
:1031C000C530D10578F0CE0104978617970750F0E7
:1031D000C61BD70B2297C193D1936D937C93CF01DC
:1031E0000E942018C801DF91CF911F910F91FF908D
:1031F000EF90DF90CF90BF90AF909F908F907F9097
:103200006F905F904F9008955B01AC1ABD0A4C011E
:103210008C0E9D1EA091CC04B091CD04512C412C5C
:10322000F12CE12C109731F58091CA049091CB04D8
:103230008815990509F05CC04616570608F058C075
:1032400080911C0290911D02009741F48DB79EB7AA
:103250004091200250912102841B950BE817F90739
:1032600008F055C0F093CB04E093CA04F9017183D0
:103270006083B8CF8D919C91119712966C901297A4
:1032800013967C901397A815B90559F56C0142E087
:10329000C40ED11CCA14DB0420F1AC014A195B092D
:1032A000DA011296159780F062827382518340830F
:1032B000D9016D937C93E114F10471F0D701139659
:1032C000FC93EE9312978ECF22968C0F9D1FF901DF
:1032D00091838083F301EFCFF093CD04E093CC048E
:1032E00081CF4816590608F42C017D01D3019ACFED
:1032F000CB010E9484177C01009749F0AE01B80110
:103300000E948A19C8010E94201887016BCF10E023
:1033100000E068CFFB01DC0102C001900D9241503A
:103320005040D8F70895FB01DC0101900D92002078
:10333000E1F7089511E0C0EDD1E000E006C0802F74
:10334000FE010E947C172196011DC13DD10780E03E
:083350000807A9F7F894FFCF6C
:103358000205030417191B1D1F2123253738392F90
:103368003435362A3132332D6F303D2B0000CE04F0
:1033780080003534333200000000BF0229025602B3
:103388000C0387026502790200000000C506980652
:10339800F5066E0691067E066F06000000004C08D2
:1033A8002902F506F406000000005E041E04ED0381
:1033B80049444C450043682074696D653A200020F3
:1033C800776F726B696E670050617573656400464C
:1033D800494E49534845440054696D65723A200086
:1033E80020200057726974696E673A20000D0A0040
:00000001FF
