:100000000C942B010C945C010C945C010C945C012D
:100010000C945C010C945C010C945C010C945C01EC
:100020000C945C010C945C010C945C010C945C01DC
:100030000C945C010C945C010C945C010C945C01CC
:100040000C945C010C948B050C945C010C945C0189
:100050000C945C010C945C010C945C010C94B7044E
:100060000C945C010C9481040C9457040C945C0176
:100070000C945C010C945C010C945C010C945C018C
:100080000C945D050C945C010C945C010C945C0177
:100090000C945C010C945C010C945C010C945C016C
:1000A0000C945C010C945C010C942F050C945C0185
:1000B0000C945C010C945C010C945C010C940105A3
:1000C0000C945C010C945C010C945C010C945C013C
:1000D0000C945C010C945C010C945C010C945C012C
:1000E0000C945C010C9404030C94DB010C94B90592
:1000F0000C94FC020C94F8020C94E1020C9417038B
:100100000C9437030C9400030C9429030C940D03F6
:100110000C947D010C9425030C9413020C9433036E
:100120000C94B9010C942D030C9460020C94E6021B
:100130000C94CD010C941F030C94D7080C941B0352
:100140000C94AA010C9411030C94070300000A0BF1
:1001500002090C0D0E080703040100000000000056
:10016000000000000000000000000000000000008F
:10017000000000000000000012111000000000004C
:10018000000000000000000000000000000000006F
:10019000000000002200250028002B002E00310066
:1001A000340002010000050108010B0100002100DC
:1001B000240027002A002D00300033000101000038
:1001C000040107010A0105050505070508080808D7
:1001D000020202020A0A08080404040401010101DF
:1001E00001010101030303030303030304070707DA
:1001F0000C0C0C0C0C0C0C0C02020202060606067F
:10020000060606060B0B0B0B0B0B0B0B010210204B
:10021000200808102040102040800201020108043C
:1002200002010102040810204080804020100804D0
:100230000201800402018040201008040201080429
:10024000020101020408102040800102040810206D
:100250004080B905D70811241FBECFEFD1E2DEBF21
:10026000CDBF00E00CBF12E0A0E0B2E0E6E7F7E1AE
:1002700000E00BBF02C007900D92AE38B107D9F76E
:1002800023E0AEE8B2E001C01D92A93DB207E1F75C
:1002900011E0CAE2D1E000E006C021970109802FF9
:1002A000FE010E948B09C932D10780E00807A9F737
:1002B0000E9447060C94A90B0C94000090E0FC01EE
:1002C000E45FFD4F24918A539E4FFC018491882363
:1002D00099F090E0880F991FFC01E455FE4FA5911D
:1002E000B491FC01EE56FE4F859194918FB7F8942E
:1002F000EC91E22BEC938FBF0895AF92BF92CF9217
:10030000DF92EF92FF920F931F93CF93DF936C01D5
:100310007B018B01040F151FEB015E01AE18BF08B6
:10032000C017D10759F06991D601ED91FC91019068
:10033000F081E02DC6011995892B79F7C501DF9170
:10034000CF911F910F91FF90EF90DF90CF90BF90D2
:10035000AF900895FC01538D448D252F30E0842FFC
:1003600090E0821B930B541710F0CF9608950197DD
:100370000895FC01918D828D981761F0A28DAE0FCA
:10038000BF2FB11D5D968C91928D9F5F9F73928F51
:1003900090E008958FEF9FEF0895FC01918D828D7D
:1003A000981731F0828DE80FF11D858D90E008954A
:1003B0008FEF9FEF0895FC01918D228D892F90E0A2
:1003C000805C9F4F821B91098F73992708958EE956
:1003D00092E00E94DB0121E0892B09F420E0822FCA
:1003E0000895FC01A48DA80FB92FB11DA35ABF4FCA
:1003F0002C91848D90E001968F739927848FA68924
:10040000B7892C93A089B1898C91837080648C9377
:10041000938D848D981306C00288F389E02D808126
:100420008F7D80830895EF92FF920F931F93CF9358
:10043000DF93EC0181E0888F9B8D8C8D98131AC01F
:10044000E889F989808185FF15C09FB7F894EE8906
:10045000FF896083E889F989808183708064808363
:100460009FBF81E090E0DF91CF911F910F91FF90AE
:10047000EF900895F62E0B8D10E00F5F1F4F0F7356
:100480001127E02E8C8D8E110CC00FB607FCFACF11
:10049000E889F989808185FFF5CFCE010E94F101BD
:1004A000F1CFEB8DEC0FFD2FF11DE35AFF4FF082E2
:1004B0009FB7F8940B8FEA89FB8980818062CFCF48
:1004C000CF93DF93EC01888D8823B9F0AA89BB898B
:1004D000E889F9898C9185FD03C0808186FD0DC076
:1004E0000FB607FCF7CF8C9185FFF2CF808185FF97
:1004F000EDCFCE010E94F101E9CFDF91CF910895B8
:1005000080E090E0892B29F00E94E70181110E9490
:10051000000080E090E0892B49F080E090E0892B9A
:1005200029F00E94000081110E94000080E090E00C
:10053000892B49F080E090E0892B29F00E9400008F
:1005400081110E94000080E090E0892B49F080E05A
:1005500090E0892B29F00E94000081110C9400008A
:100560000895282F30E0F901E45BFE4F9491F901E2
:10057000E45FFD4F44912A533E4FF9012491222319
:1005800009F435C0992311F191509231F8F4E92F13
:10059000F0E08827E153FD4F8F4F0C948B09000347
:1005A0000403E102F802FC02E60207030D03110353
:1005B00017031B031F0325032903E6022D0333033F
:1005C0003703809180008F7780938000E22FF0E0E6
:1005D000EE0FFF1FEE56FE4FA591B4918FB7F89422
:1005E000EC91611148C040954E234C938FBF089504
:1005F000809180008F7DE8CF80918000877FE4CF5D
:1006000084B58F7784BDE2CF84B58F7DFBCF809199
:10061000B0008F778093B000D9CF8091B0008F7DEC
:10062000F9CF809190008F7780939000CFCF809109
:1006300090008F7DF9CF80919000877FF5CF8091DA
:10064000A0008F778093A000C1CF8091A0008F7D04
:10065000F9CF8091A000877FF5CF809120018F771F
:1006600080932001B3CF809120018F7DF9CF8091BD
:100670002001877FF5CF4E2BB8CF3FB7F8948091FC
:10068000970290919802A0919902B0919A0226B592
:10069000A89B05C02F3F19F00196A11DB11D3FBFBA
:1006A000BA2FA92F982F8827BC01CD01620F711D89
:1006B000811D911D42E0660F771F881F991F4A9583
:1006C000D1F70895AF92BF92CF92DF92EF92FF924F
:1006D0000F931F93CF93DF936B017A01EC01C25705
:1006E000DD4F28813CE0389F8001399F100D112497
:1006F000A090CB03B12C27FF1FC0FB0111821082F9
:1007000088818F5F888388819801280F311D87FD3C
:100710003A95F6012A153B051CF488818C30C4F10A
:1007200080819181049680349C4908F473C0F6015D
:1007300080819181049670C088819801280F311DB5
:1007400087FD3A952A153B05DCF68881A801480FFC
:10075000511D87FD5A95FA01EE0FFF1FE40FF51F9B
:10076000E55CFC4F808186FFCBCF8881F801E80FE4
:10077000F11D87FDFA95CF01EE0FFF1FE80FF91F5E
:10078000E55CFC4F808160E08F730E94B102B8CFBE
:10079000808191812881A801420F511D27FD5A9522
:1007A0009A01FA01EE0FFF1FE20FF31FE55CFC4F09
:1007B00021813281820F931FF70191838083888189
:1007C0009801280F311D87FD3A95F901EE0FFF1FA3
:1007D000E20FF31FE55CFC4F808186FF22C0888119
:1007E000080F111D87FD1A95F801EE0FFF1FE00F8E
:1007F000F11FE55CFC4F808161E08F73DF91CF9149
:100800001F910F91FF90EF90DF90CF90BF90AF902E
:100810000C94B10280E49CE9F701918380838FEF0F
:100820008883DF91CF911F910F91FF90EF90DF9020
:10083000CF90BF90AF900895FC0101900020E9F7A0
:100840003197AF01481B590BBC018EE992E00C9423
:100850007D01CF93DF93EC018091CC039091CD0388
:10086000009759F02091CE033091CF032C173D070C
:1008700020F081E0DF91CF910895BE016F5F7F4F3F
:100880000E94B80A009789F09093CD038093CC031F
:10089000D093CF03C093CE032091D0033091D103E6
:1008A000232B39F7FC011082E4CF80E0E3CF1F92C5
:1008B0000F920FB60F9211240BB60F922F933F9306
:1008C0004F935F936F937F938F939F93AF93BF9358
:1008D000EF93FF938EE992E00E94F101FF91EF9177
:1008E000BF91AF919F918F917F916F915F914F9148
:1008F0003F912F910F900BBE0F900FBE0F901F9046
:1009000018951F920F920FB60F9211240BB60F92EB
:100910002F938F939F93EF93FF93E091AE02F0910B
:10092000AF028081E091B402F091B50282FD1DC05A
:1009300090818091B7028F5F8F732091B8028217E8
:1009400041F0E091B702F0E0E256FD4F958F8093C1
:10095000B702FF91EF919F918F912F910F900BBE56
:100960000F900FBE0F901F9018958081F2CF1F92AD
:100970000F920FB60F9211242F933F938F939F9353
:10098000AF93BF938091930290919402A0919502AE
:10099000B09196023091920223E0230F2D3758F543
:1009A0000196A11DB11D2093920280939302909312
:1009B0009402A0939502B093960280919702909131
:1009C0009802A0919902B0919A020196A11DB11DC1
:1009D0008093970290939802A0939902B0939A0201
:1009E000BF91AF919F918F913F912F910F900FBE2B
:1009F0000F901F90189526E8230F0296A11DB11D98
:100A0000D2CF1F920F920FB60F9211240BB60F92F6
:100A10002F933F934F935F936F937F938F939F9306
:100A2000AF93BF93EF93FF9348E251E064E271E02C
:100A300090E080E00E946203FF91EF91BF91AF913F
:100A40009F918F917F916F915F914F913F912F91E6
:100A50000F900BBE0F900FBE0F901F9018951F9216
:100A60000F920FB60F9211240BB60F922F933F9354
:100A70004F935F936F937F938F939F93AF93BF93A6
:100A8000EF93FF9348EA50E064EA70E083E090E07F
:100A90000E946203FF91EF91BF91AF919F918F915F
:100AA0007F916F915F914F913F912F910F900BBE6E
:100AB0000F900FBE0F901F9018951F920F920FB6B8
:100AC0000F9211240BB60F922F933F934F935F9386
:100AD0006F937F938F939F93AF93BF93EF93FF9306
:100AE00048E950E064E970E082E090E00E9462032F
:100AF000FF91EF91BF91AF919F918F917F916F91F6
:100B00005F914F913F912F910F900BBE0F900FBEB1
:100B10000F901F9018951F920F920FB60F921124ED
:100B20000BB60F922F933F934F935F936F937F93E7
:100B30008F939F93AF93BF93EF93FF9348E850E059
:100B400064E870E081E090E00E946203FF91EF9121
:100B5000BF91AF919F918F917F916F915F914F91D5
:100B60003F912F910F900BBE0F900FBE0F901F90D3
:100B700018951092A1021092A00288EE93E0A0E0D6
:100B8000B0E08093A2029093A302A093A402B0933A
:100B9000A5028AE092E090939F0280939E0285ECEA
:100BA00090E09093AB028093AA0284EC90E0909343
:100BB000AD028093AC0280EC90E09093AF02809302
:100BC000AE0281EC90E09093B1028093B00282EC8F
:100BD00090E09093B3028093B20286EC90E0909301
:100BE000B5028093B4021092B7021092B80210922C
:100BF000B9021092BA028091CB038033D8F591E00C
:100C0000980F9093CB038093D20390E0FC01EE0FFA
:100C1000FF1FE80FF91FE55CFC4F88EB9BE0928318
:100C200081831092CD031092CC031092CF031092C7
:100C3000CE031092D1031092D00390E080E00E9486
:100C400029042091CC033091CD03811117C02115C7
:100C5000310519F0C9010E942F0A1092CD0310929C
:100C6000CC031092D1031092D0031092CF031092B4
:100C7000CE0308958FEF8093D203D3CF1092D10388
:100C80001092D0036EE772E0C9010C94A20BCF93CF
:100C9000DF931F921F92CDB7DEB7789484B5826040
:100CA00084BD84B5816084BD85B5826085BD85B510
:100CB000816085BD80916E00816080936E0010928E
:100CC0008100809181008260809381008091810009
:100CD000816080938100809180008160809380009A
:100CE0008091B10084608093B1008091B0008160F8
:100CF0008093B000809191008260809391008091F8
:100D00009100816080939100809190008160809338
:100D100090008091A10082608093A1008091A10049
:100D200081608093A1008091A00081608093A000E9
:100D30008091210182608093210180912101816055
:100D40008093210180912001816080932001809116
:100D50007A00846080937A0080917A008260809328
:100D60007A0080917A00816080937A0080917A0085
:100D7000806880937A001092C100E091AE02F091F9
:100D8000AF0282E08083E091AA02F091AB02108270
:100D9000E091AC02F091AD028FEC80831092B6022C
:100DA000E091B202F091B30286E08083E091B0025C
:100DB000F091B102808180618083E091B002F09176
:100DC000B102808188608083E091B002F091B1022D
:100DD000808180688083E091B002F091B1028081CF
:100DE0008F7D80838091D203803308F051C088E0EA
:100DF0000E945E018091D203282F30E0F901EE0FAE
:100E0000FF1FE20FF31FE55CFC4F9081907C986020
:100E100090831092D3031092D4032CE0622F0E948F
:100E20007F09829FB001112430E020E0AB01420F26
:100E3000531FFA01EE0FFF1FE40FF51FE55CFC4F97
:100E4000908196FD17C02F5F3F4F2C30310571F711
:100E5000813009F0EEC01092800082E08093810022
:100E60001092850010928400B19A80916F00826088
:100E700080936F00E091D2038E2F90E0FC01EE0F83
:100E8000FF1FE80FF91FE55CFC4F808180648083C1
:100E900086E10E945E018CE10E945E018FE10E946A
:100EA0005E0189E10E945E0188E192E00E941C04DB
:100EB0008CE792E00E941C0461E08CE10E94B10288
:100EC00033243394A8E88A2E912CB8E5AB2EB2E0F7
:100ED000BB2E8EE992E00E94DB01181619060CF079
:100EE000A5C08EE992E00E94B9018D3009F03DC1A4
:100EF0008091CC039091CD03009709F4C6C00E9465
:100F0000E0089B0140919D02442309F4C2C0603275
:100F100042E07407CCF52091D3036401C21AD108D2
:100F200027FDD394CC0CDD1CCC0CDD1C0D2C000C4F
:100F3000EE08FF082091D403A501421B510927FDAB
:100F400053959A01220F331F220F331F032E000CDB
:100F5000440B550B2C193D094E095F09DB01653B1C
:100F6000710514F0A4EBB0E0B7FF02C0B0E0A0E060
:100F70000E94460924EB30E040E050E00E941C094A
:100F80002C0D3D1D4E1D5F1DE091D203E03380F519
:100F90008091D303A401481B510987FD5395CA01D1
:100FA000880F991F880F991F2817390784F080919F
:100FB000D403A501481B510987FD5395CA01880F29
:100FC000991F880F991F281739070CF4C901029738
:100FD000880F991F4FB7F8942E2F30E0F901EE0FCC
:100FE000FF1FE20FF31FE55CFC4F928381834FBF2D
:100FF00010929D0290E080E00E9429042091CC0391
:101000003091CD038111A7C02115310519F0C90117
:101010000E942F0A1092CD031092CC031092D1039C
:101020001092D0031092CF031092CE030E94800240
:1010300050CF823061F41092900080939100109212
:1010400095001092940088BB8093710013CF833079
:1010500069F41092A00082E08093A1001092A50094
:101060001092A40089BB8093720004CF811102CF3B
:101070001092200182E080932101109225011092AC
:1010800024018ABB80937300F5CE60E070E0CB0151
:1010900038CF6330710509F450C084F461307105B4
:1010A00009F440C06230710509F0A4CF10929C028F
:1010B00060E089E10E94B10261E03BC064307105EB
:1010C00009F442C06530710509F094CF61E08FE109
:1010D0000E94B1020E943D036B017C0188EE482E04
:1010E00083E0582E612C712C0E943D036C197D0900
:1010F0008E099F09683E734081059105A8F351E070
:10110000451A51086108710888EEC80E83E0D81EA0
:10111000E11CF11C411451046104710429F760E0E1
:101120008FE108C030929C0261E089E10E94B10227
:1011300060E08CE10E94B1025DCF30929D028FE7AA
:1011400092E00E941C0456CF60919B02632560933D
:101150009B0286E1EFCF1092D1031092D0036EE78D
:1011600072E0C9010E94A20B61CF89831A820091AB
:10117000D0031091D1030F5F1F4FC8010E942904B3
:10118000882309F453CF2091CC033091CD03809173
:10119000D0039091D103BE016F5F7F4F820F931FE9
:1011A0000E94A20B1093D1030093D0033FCF8091F4
:1011B000CC039091CD03009711F00C942F0A089561
:1011C0001F93FC0199278827BC01E89411911032E4
:1011D000E9F3193010F01E30C8F31B3251F01D3204
:1011E00049F4689406C00E940709610F711D811DB2
:1011F000911D119110531A30B0F33EF490958095E3
:10120000709561957F4F8F4F9F4F1F910895592F74
:10121000482F372F262F660F771F881F991F660FBD
:10122000771F881F991F620F731F841F951F660FFA
:10123000771F881F991F0895052E97FB1EF40094B1
:101240000E94330957FD07D00E944E0907FC03D0C6
:101250004EF40C94330950954095309521953F4FAD
:101260004F4F5F4F089590958095709561957F4F92
:101270008F4F9F4F08950E947009A59F900DB49FB6
:10128000900DA49F800D911D11240895B7FF0C941B
:101290003B090E943B09821B930B0895A1E21A2E81
:1012A000AA1BBB1BFD010DC0AA1FBB1FEE1FFF1F0A
:1012B000A217B307E407F50720F0A21BB30BE40B5A
:1012C000F50B661F771F881F991F1A9469F76095A1
:1012D0007095809590959B01AC01BD01CF0108955B
:1012E000A29FB001B39FC001A39F700D811D112467
:1012F000911DB29F700D811D1124911D0895991BA0
:1013000079E004C0991F961708F0961B881F7A95FC
:10131000C9F780950895EE0FFF1F881F8BBF0790B8
:10132000F691E02D19940F931F93CF93DF938230A2
:10133000910510F482E090E0E091D703F091D8039A
:1013400030E020E0B0E0A0E0309799F421153105BD
:1013500009F44AC0281B390B24303105D8F58A819D
:101360009B816115710589F1FB0193838283FE01E5
:1013700011C0408151810281138148175907E0F063
:101380004817590799F4109761F012960C93129729
:1013900013961C933296CF01DF91CF911F910F913D
:1013A00008950093D7031093D803F4CF2115310586
:1013B00051F04217530738F0A901DB019A01BD0132
:1013C000DF01F801C1CFEF01F9CF9093D8038093EB
:1013D000D703CDCFFE01E20FF31F819391932250EB
:1013E000310939832883D7CF2091D5033091D60393
:1013F000232B41F420910202309103023093D60353
:101400002093D5032091000230910102211531056E
:1014100041F42DB73EB74091040250910502241BC0
:10142000350BE091D503F091D603E217F307A0F452
:101430002E1B3F0B2817390778F0AC014E5F5F4F2A
:101440002417350748F04E0F5F1F5093D603409383
:10145000D503819391939FCFF0E0E0E09CCFCF93B1
:10146000DF930097E9F0FC01329713821282A0917A
:10147000D703B091D803ED0130E020E01097A1F43C
:1014800020813181820F931F2091D5033091D603A3
:101490002817390709F061C0F093D603E093D5030C
:1014A000DF91CF910895EA01CE17DF07E8F54A8171
:1014B0005B819E0141155105B1F7E901FB83EA8388
:1014C00049915991C40FD51FEC17FD0761F4808134
:1014D00091810296840F951FE90199838883828107
:1014E00093819B838A83F0E0E0E012968D919C913A
:1014F00013970097B9F52D913C911197CD01029664
:10150000820F931F2091D5033091D60328173907F6
:1015100039F6309751F51092D8031092D703B09353
:10152000D603A093D503BCCFD383C283408151811E
:10153000840F951FC817D90761F44E5F5F4F8881EC
:101540009981480F591F518340838A819B819383DE
:1015500082832115310509F0B0CFF093D803E093D1
:10156000D7039ECFFD01DC01C0CF13821282D7CFFB
:101570004F925F926F927F928F929F92AF92BF92A3
:10158000CF92DF92EF92FF920F931F93CF93DF934F
:101590008C01009799F4CB01DF91CF911F910F91AE
:1015A000FF90EF90DF90CF90BF90AF909F908F9083
:1015B0007F906F905F904F900C949309FC01E60F21
:1015C000F71F9C0122503109E217F30708F4AEC05F
:1015D000D901CD91DC911197C617D70720F1C530FD
:1015E000D10578F0CE0104978617970750F0C61BF7
:1015F000D70B2297C193D1936D937C93CF010E9417
:101600002F0AC801DF91CF911F910F91FF90EF90AA
:10161000DF90CF90BF90AF909F908F907F906F9012
:101620005F904F9008955B01AC1ABD0A4C018C0E7F
:101630009D1EA091D703B091D803512C412CF12CC1
:10164000E12C109731F58091D5039091D603881540
:10165000990509F05CC04616570608F058C08091FD
:10166000000290910102009741F48DB79EB740911E
:10167000040250910502841B950BE817F90708F046
:1016800055C0F093D603E093D503F90171836083CD
:10169000B8CF8D919C91119712966C9012971396DA
:1016A0007C901397A815B90559F56C0142E0C40E5A
:1016B000D11CCA14DB0420F1AC014A195B09DA0120
:1016C0001296159780F06282738251834083D9010C
:1016D0006D937C93E114F10471F0D7011396FC93A0
:1016E000EE9312978ECF22968C0F9D1FF901918356
:1016F0008083F301EFCFF093D803E093D70381CF3A
:101700004816590608F42C017D01D3019ACFCB016C
:101710000E9493097C01009749F0AE01B8010E9434
:10172000990BC8010E942F0A87016BCF10E000E0DF
:1017300068CFFB01DC0102C001900D924150504086
:10174000D8F70895FB01DC0101900D920020E1F72C
:10175000089511E0CAE2D1E000E006C0802FFE014A
:101760000E948B092196011DCB32D10780E008072A
:06177000A9F7F894FFCF79
:101776000000D90380000000000013027D01AA01C9
:101786006002DB01B901CD01416374696F6E733A82
:101796000D0A312947617320706564616C0D0A3248
:1017A600294272616B6520706564616C0D0A33298C
:1017B600526F74617465207374656572696E672013
:1017C600776865656C0D0A3429546F67676C652008
:1017D6006C69676874730D0A352942757A7A0D0A41
:1017E6002D2D2D2D2D2D2D2D2D2D2D000D0A0045A8
:0E17F6006E746572206465677265653A200046
:00000001FF
