:100000000C94C1010C94F2010C94F2010C94F201D5
:100010000C94F2010C94F2010C94F2010C94F20194
:100020000C94F2010C94F2010C94F2010C94F20184
:100030000C94F2010C94F2010C94F2010C94F20174
:100040000C94F2010C949F090C94F2010C94F201AF
:100050000C94F2010C94F2010C94F2010C94CB0874
:100060000C94F2010C9495080C946B080C94F2011A
:100070000C94F2010C94F2010C94F2010C94F20134
:100080000C9471090C94F2010C94F2010C94F2019D
:100090000C94F2010C94F2010C94F2010C94F20114
:1000A0000C94F2010C94F2010C9443090C94F201AB
:1000B0000C94F2010C94F2010C94F2010C941509C9
:1000C0000C94F2010C94F2010C94F2010C94F201E4
:1000D0000C94F2010C94F2010C94F2010C94F201D4
:1000E0000C94F2010C947E050C947C020C94D703C2
:1000F0000C940A040C941B030C94DD030C94170459
:100100000C94B2020C94E9030C94C1020C940E04FA
:100110000C94E5030C941C040C949D070C94490466
:100120000C94EC030C94CD090C9418040C94E1038A
:100130000C94FC030C9404040C94D5020C946803F6
:100140000C9412040C947D050C9400040C94CE0EB7
:100150000C94BA040C94E3020C947A040C94F20309
:100160000C94F60300407A10F35A00A0724E18095E
:100170000010A5D4E80000E87648170000E40B540E
:10018000020000CA9A3B000000E1F50500008096DD
:100190009800000040420F000000A086010000000F
:1001A000102700000000E8030000000064000000C9
:1001B00000000A00000000000100000000002C7692
:1001C000D888DC674F0823DFC1DFAE59E1B1B796AD
:1001D000E5E3E453C63AE651997696E8E6C284260A
:1001E000EB898C9B62ED407C6FFCEFBC9C9F40F2E6
:1001F000BAA56FA5F490055A2AF75C936B6CF96762
:100200006DC11BFCE0E40D47FEF520E6B500D0ED26
:10021000902E0300943577050080841E080000208E
:100220004E0A000000C80C333333330F986E12832C
:100230001141EF8D2114893BE65516CFFEE6DB1800
:10024000D1844B381BF77C1D901DA4BBE4242032C5
:1002500084725E228100C9F124ECA1E53D270000F3
:100260002100240027002A002D0030003300010166
:100270000000040107010A010000220025002800F7
:100280002B002E003100340002010000050108019E
:100290000B01000020002300260029002C002F0065
:1002A00032000001000003010601090105050505F2
:1002B000070508080808020202020A0A08080404DE
:1002C000040401010101010101010303030303030C
:1002D0000303040707070C0C0C0C0C0C0C0C02029B
:1002E000020206060606060606060B0B0B0B0B0B98
:1002F0000B0B010210202008081020401020408025
:1003000002010201080402010102040810204080D9
:100310008040201008040201800402018040201067
:1003200008040201080402010102040810204080B0
:10033000010204081020408000000A0B02090C0D85
:100340000E08070304010000000000000000000088
:10035000000000000000000000000000000000009D
:10036000000000001211100000000000000000005A
:100370000000000000000000000000000000CD09A7
:10038000CE0E11241FBECFEFD1E2DEBFCDBF00E005
:100390000CBF12E0A0E0B2E0EEE9FBE200E00BBF30
:1003A00002C007900D92A439B107D9F724E0A4E95F
:1003B000B2E001C01D92A738B207E1F711E0C0EC2E
:1003C000D1E000E006C021970109802FFE010E94C4
:1003D0009613CF3BD10780E00807A9F70E94D00A07
:1003E0000C94BD150C9400008F929F92AF92BF9217
:1003F000FF920F931F93CF93DF93F090F9032FE2B7
:100400002F1508F44CC02091FB0308E512E0021BF5
:10041000110927FD1395000F111F000F111F2091C7
:10042000FA03C8E8D0E0C21BD10927FDD395CC0F51
:10043000DD1FCC0FDD1F4E010D2E000CAA08BB08DE
:100440009801012E000C440B550B281939094A0953
:100450005B09DC010E94721224EB30E040E050E0C6
:100460000E944812820E931EA41EB51E8C169D0675
:100470002CF0E801801691060CF4E4012297CC0FD1
:10048000DD1F2FB7F8948F2D90E0FC01EE0FFF1FBA
:10049000E80FF91FE05CFC4FD283C1832FBFDF91CF
:1004A000CF911F910F91FF90BF90AF909F908F9031
:1004B000089596E0899FD0011124AC5EBB4F9096C1
:1004C0007C936E935F9791E091969C939197E091C6
:1004D0008104F091820490918004992339F030973F
:1004E00051F0811108C0809130041994309719F0AF
:1004F0005C968C91FACF0895AF92BF92CF92DF9223
:10050000EF92FF920F931F93CF93DF936C017B01C8
:100510008B01040F151FEB015E01AE18BF08C01759
:10052000D10759F06991D601ED91FC910190F081CC
:10053000E02DC6011995892B79F7C501DF91CF917F
:100540001F910F91FF90EF90DF90CF90BF90AF90F1
:100550000895FC0144815581608171818CEF93E0A5
:100560000C947C02FC01538D448D252F30E0842FA8
:1005700090E0821B930B541710F0CF9608950197CB
:100580000895FC01918D828D981761F0A28DAE0FB8
:10059000BF2FB11D5D968C91928D9F5F9F73928F3F
:1005A00090E008958FEF9FEF0895FC01918D828D6B
:1005B000981731F0828DE80FF11D858D90E0089538
:1005C0008FEF9FEF0895FC01918D228D892F90E090
:1005D000805C9F4F821B91098F739927089583EA4E
:1005E00092E00E94E30221E0892B09F420E0822FAF
:1005F0000895FC01A48DA80FB92FB11DA35ABF4FB8
:100600002C91848D90E001968F739927848FA68911
:10061000B7892C93A089B1898C91837080648C9365
:10062000938D848D981306C00288F389E02D808114
:100630008F7D80830895EF92FF920F931F93CF9346
:10064000DF93EC0181E0888F9B8D8C8D98131AC00D
:10065000E889F989808185FF15C09FB7F894EE89F4
:10066000FF896083E889F989808183708064808351
:100670009FBF81E090E0DF91CF911F910F91FF909C
:10068000EF900895F62E0B8D10E00F5F1F4F0F7344
:100690001127E02E8C8D8E110CC00FB607FCFACFFF
:1006A000E889F989808185FFF5CFCE010E94F902A2
:1006B000F1CFEB8DEC0FFD2FF11DE35AFF4FF082D0
:1006C0009FB7F8940B8FEA89FB8980818062CFCF36
:1006D000CF93DF93EC01888D8823B9F0AA89BB8979
:1006E000E889F9898C9185FD03C0808186FD0DC064
:1006F0000FB607FCF7CF8C9185FFF2CF808185FF85
:10070000EDCFCE010E94F902E9CFDF91CF9108959C
:1007100080E090E0892B29F00E94EF0281110E9475
:10072000000080E090E0892B49F080E090E0892B88
:1007300029F00E94000081110E94000080E090E0FA
:10074000892B49F080E090E0892B29F00E9400007D
:1007500081110E94000080E090E0892B49F080E048
:1007600090E0892B29F00E94000081110C94000078
:1007700008958150823108F05AC0E82FF0E08827B0
:10078000EB53FC4F8F4F0C949613E503E903D7030B
:10079000DD03E1031704EC03F203F603FC0300049A
:1007A00004040A040E041704120418041C048091A3
:1007B00080008F77809380000895809180008F7DE6
:1007C000F9CF80918000877FF5CF84B58F7784BD86
:1007D000089584B58F7DFBCF8091B0008F77809393
:1007E000B00008958091B0008F7DF9CF8091900086
:1007F0008F77809390000895809190008F7DF9CF3E
:1008000080919000877FF5CF8091A0008F778093B3
:10081000A00008958091A0008F7DF9CF8091A00065
:10082000877FF5CF809120018F77809320010895F5
:10083000809120018F7DF9CF80912001877FF5CFB6
:10084000CF93DF93282F30E0F901E85CFC4F8491CF
:10085000F901EE50FD4FD491F901E455FD4FC491DB
:10086000CC23A1F081110E94B903EC2FF0E0EE0F30
:10087000FF1FEE56FD4FA591B491EC91ED2381E061
:1008800090E009F480E0DF91CF91089580E090E05E
:10089000FACF862F0C9420041F93CF93DF93282F39
:1008A00030E0F901E85CFC4F8491F901EE50FD4F16
:1008B000D491F901E455FD4FC491CC23A9F0162F32
:1008C00081110E94B903EC2FF0E0EE0FFF1FE858F2
:1008D000FD4FA591B4918FB7F894EC91111108C018
:1008E000D095DE23DC938FBFDF91CF911F910895C8
:1008F000DE2BF8CF862F642F0C944C04CF93DF931C
:1009000090E0FC01EE50FD4F249184559D4FFC0179
:1009100084918823C9F090E0880F991FFC01E25A66
:10092000FD4FA591B491FC01E858FD4FC591D491BC
:1009300061110DC09FB7F8948C91209582238C9300
:100940008881282328839FBFDF91CF91089562304B
:1009500051F49FB7F8943C91822F809583238C9318
:10096000E8812E2BEFCF8FB7F894EC912E2B2C93A0
:100970008FBFEACF862F642F0C947E043FB7F89484
:1009800080919D0290919E02A0919F02B091A00241
:1009900026B5A89B05C02F3F19F00196A11DB11DDA
:1009A0003FBFBA2FA92F982F8827BC01CD01620F16
:1009B000711D811D911D42E0660F771F881F991FD1
:1009C0004A95D1F708958F929F92AF92BF92CF929E
:1009D000DF92EF92FF924B015C010E94BE046B011B
:1009E0007C010E94BE046C197D098E099F09683E36
:1009F000734081059105A8F321E0821A9108A108AE
:100A0000B10888EEC80E83E0D81EE11CF11C8114E9
:100A10009104A104B10429F7FF90EF90DF90CF90EB
:100A2000BF90AF909F908F9008952FB7F8946091EA
:100A3000990270919A0280919B0290919C022FBF23
:100A400008950F931F93CF93DF93C82FD62F86E07F
:100A5000C89FF0011124EC5EFB4F11A2878D90A17D
:100A600081309105F1F058F082309105F1F1039752
:100A700009F440C0DF91CF911F910F910895662333
:100A8000C9F361E070E08C2F0E9459020E941505A5
:100A900060936C0470936D0480936E0490936F0464
:100AA000E9CF0E94150500916C0410916D0420910E
:100AB0006E0430916F04AB01BC01401B510B620B03
:100AC000730B80917E0490917F04B0E0A0E08417C6
:100AD0009507A607B70748F462E070E08C2FDF9116
:100AE000CF911F910F910C94590263E070E0D111E6
:100AF000C1CFF4CF70E060E0F1CF089590E080E0E6
:100B00000895AF92BF92CF92DF92EF92FF920F9330
:100B10001F93CF93DF936B017A01EC01CC56DD4F2D
:100B200028813CE0389F8001399F100D1124A0904E
:100B3000D003B12C27FF1FC0FB01118210828881D6
:100B40008F5F888388819801280F311D87FD3A9532
:100B5000F6012A153B051CF488818C30C4F1808194
:100B60009181049680349C4908F473C0F601808119
:100B70009181049670C088819801280F311D87FDEE
:100B80003A952A153B05DCF68881A801480F511DCE
:100B900087FD5A95FA01EE0FFF1FE40FF51FE05C89
:100BA000FC4F808186FFCBCF8881F801E80FF11DD3
:100BB00087FDFA95CF01EE0FFF1FE80FF91FE05CEC
:100BC000FC4F808160E08F730E944C04B8CF80811D
:100BD00091812881A801420F511D27FD5A959A0144
:100BE000FA01EE0FFF1FE20FF31FE05CFC4F2181C3
:100BF0003281820F931FF70191838083888198014E
:100C0000280F311D87FD3A95F901EE0FFF1FE20F06
:100C1000F31FE05CFC4F808186FF22C08881080FB3
:100C2000111D87FD1A95F801EE0FFF1FE00FF11F50
:100C3000E05CFC4F808161E08F73DF91CF911F9169
:100C40000F91FF90EF90DF90CF90BF90AF900C94FA
:100C50004C0480E49CE9F701918380838FEF8883C3
:100C6000DF91CF911F910F91FF90EF90DF90CF9088
:100C7000BF90AF90089561E085E30E944C0468EC5A
:100C800070E080E090E00E94E30460E085E30C9473
:100C90004C04CF93DF93EC0160E08E810E944C0402
:100CA00061E08E810E944C0460E08E810E944C04C1
:100CB0008BE891E00197F1F7DF91CF910895CF9202
:100CC000DF92EF92FF920F931F93CF93DF936C010C
:100CD0007C0187E0E80EF11CD0E0C0E0062F10E0B8
:100CE000B8010C2E02C0759567950A94E2F7617001
:100CF000F70181917F010E944C042196C430D105F7
:100D000079F7C601DF91CF911F910F91FF90EF907E
:100D1000DF90CF900C944906CF92DF92EF92FF9232
:100D20000F931F93CF93DF93EC01F62E642F8C81EA
:100D30000E944C048D818F3F19F060E00E944C04AA
:100D40000F2D10E08F8584FF25C06E0187E0C80E4F
:100D5000D11CF12CE12CB8010E2C02C075956795C1
:100D60000A94E2F76170F60181916F010E944C04D0
:100D7000FFEFEF1AFF0A88E0E816F10461F7CE01F1
:100D8000DF91CF911F910F91FF90EF90DF90CF9067
:100D90000C944906B80184E0759567958A95E1F74A
:100DA000CE010E945F066F2DCE01DF91CF911F9182
:100DB0000F91FF90EF90DF90CF900C945F0640E092
:100DC000682F8CEF93E00C948C0681E00E94DF0684
:100DD0008BE39FE10197F1F70895CF93DF93823082
:100DE00029F490910B04986090930B0480930F0466
:100DF0001092100480E48093110480E18093120427
:100E000080E58093130461E0809100040E947E04D9
:100E1000809101048F3F19F061E00E947E0461E03F
:100E2000809102040E947E04CCEFD3E09E012C5FEF
:100E3000334080910B0484FD0BC084E090E0219648
:100E40002817390744F461E08E810E947E04EECFBA
:100E500088E090E0F4CF8BE39DE00197F1F760E04C
:100E6000809100040E944C0460E0809102040E9482
:100E70004C04809101048F3F19F060E00E944C0403
:100E800080910B0484FD34C063E08CEF93E00E94FA
:100E90005F06CBE4D6E4CE010197F1F763E08CEF77
:100EA00093E00E945F062197F1F763E08CEF93E0F7
:100EB0000E945F0683E592E00197F1F762E08CEF14
:100EC00093E00E945F0680910B0480620E94DF061F
:100ED00084E080930C048CE00E94DF060E94E5060B
:100EE00082E080930D0486E0DF91CF910C94DF06C1
:100EF00080620E94DF068BE496E40197F1F780910F
:100F00000B0480620E94DF0683E592E00197F1F70F
:100F100080910B0480620E94DF06D5CF90910F0470
:100F2000691710F06FEF690FE62FF0E0E450FC4F07
:100F30009489890F80680C94DF0641E00E948C063A
:100F400081E090E008950F931F93CF93DF93EC011E
:100F500088819981009759F02A813B8126173707AC
:100F600030F081E0DF91CF911F910F9108958B01B7
:100F70006F5F7F4F0E94C314009759F09983888355
:100F80001B830A832C813D81232B59F7FC0110829E
:100F9000E8CF80E0E7CFEF92FF920F931F93CF93BC
:100FA000DF936115710541F480E0DF91CF911F91CE
:100FB0000F91FF90EF90089541155105B1F07B011D
:100FC000EC010C811D81040F151FB8010E94A307BD
:100FD000882351F3288139818C819D81B701820F4B
:100FE000931F0E94B6151D830C8381E0DECFCF9343
:100FF000DF93EC0188819981009711F00E943A14E7
:10100000198218821D821C821B821A82DF91CF9165
:101010000895EF92FF920F931F93CF93DF93EC010C
:101020007B018A01BA010E94A30781110BC0CE0186
:101030000E94F707CE01DF91CF911F910F91FF9092
:10104000EF9008951D830C83B701888199810E94D8
:10105000B615F0CFFC011182108213821282158224
:101060001482FB0101900020E9F73197AF01461B84
:10107000570B0C9409080E94E50660E080E00E948E
:101080008E078091A20226E0829FC00111248F5119
:101090009C4F0E94A90250E040E063E772E08BEDB4
:1010A00093E00C94090890E080E00E94F40160E075
:1010B00082E30E944C041092A1021092A2020E94AC
:1010C0003B080C943B06FC0180819181009711F054
:1010D0000C943A1408951F920F920FB60F92112498
:1010E0000BB60F922F933F934F935F936F937F9322
:1010F0008F939F93AF93BF93EF93FF9383EA92E015
:101100000E94F902FF91EF91BF91AF919F918F9152
:101110007F916F915F914F913F912F910F900BBEF7
:101120000F900FBE0F901F9018951F920F920FB641
:101130000F9211240BB60F922F938F939F93EF93DF
:10114000FF93E091B302F091B4028081E091B90283
:10115000F091BA0282FD1DC090818091BC028F5F28
:101160008F732091BD02821741F0E091BC02F0E044
:10117000ED55FD4F958F8093BC02FF91EF919F91AC
:101180008F912F910F900BBE0F900FBE0F901F905D
:1011900018958081F2CF1F920F920FB60F921124F3
:1011A0002F933F938F939F93AF93BF938091990217
:1011B00090919A02A0919B02B0919C02309198026A
:1011C00023E0230F2D3758F50196A11DB11D209363
:1011D00098028093990290939A02A0939B02B093F5
:1011E0009C0280919D0290919E02A0919F02B091DD
:1011F000A0020196A11DB11D80939D0290939E02B5
:10120000A0939F02B093A002BF91AF919F918F9145
:101210003F912F910F900FBE0F901F90189526E8C9
:10122000230F0296A11DB11DD2CF1F920F920FB6B0
:101230000F9211240BB60F922F933F934F935F930E
:101240006F937F938F939F93AF93BF93EF93FF938E
:1012500048E251E064E271E090E080E00E948105A4
:10126000FF91EF91BF91AF919F918F917F916F917E
:101270005F914F913F912F910F900BBE0F900FBE3A
:101280000F901F9018951F920F920FB60F92112476
:101290000BB60F922F933F934F935F936F937F9370
:1012A0008F939F93AF93BF93EF93FF9348EA50E0E0
:1012B00064EA70E083E090E00E948105FF91EF9185
:1012C000BF91AF919F918F917F916F915F914F915E
:1012D0003F912F910F900BBE0F900FBE0F901F905C
:1012E00018951F920F920FB60F9211240BB60F9202
:1012F0002F933F934F935F936F937F938F939F931E
:10130000AF93BF93EF93FF9348E950E064E970E037
:1013100082E090E00E948105FF91EF91BF91AF9133
:101320009F918F917F916F915F914F913F912F91FD
:101330000F900BBE0F900FBE0F901F9018951F922D
:101340000F920FB60F9211240BB60F922F933F936B
:101350004F935F936F937F938F939F93AF93BF93BD
:10136000EF93FF9348E850E064E870E081E090E09C
:101370000E948105FF91EF91BF91AF919F918F9155
:101380007F916F915F914F913F912F910F900BBE85
:101390000F900FBE0F901F901895CF931092A6023A
:1013A0001092A50288EE93E0A0E0B0E08093A7023F
:1013B0009093A802A093A902B093AA0284E292E0BB
:1013C0009093A4028093A30285EC90E09093B002E6
:1013D0008093AF0284EC90E09093B2028093B102CC
:1013E00080EC90E09093B4028093B30281EC90E0A3
:1013F0009093B6028093B50282EC90E09093B8028D
:101400008093B70286EC90E09093BA028093B90281
:101410001092BC021092BD021092BE021092BF0246
:101420001092160410921A041092190410921B04C0
:1014300082E492E09093150480931404E0E3F4E0D6
:101440001082148213821582369684E0EC36F807F7
:10145000B9F786E092E0909377048093760482E077
:1014600092E0909379048093780484E080937A04E6
:1014700080937B048AE092E09093750480937404D7
:101480008AE090E090937D0480937C0484EF91E067
:1014900090937F0480937E041092820410928104C2
:1014A00010927004109271041092720410927304DE
:1014B000109280041092FF031092FE0386E392E0E4
:1014C0009093FD038093FC038DE080930004CFEFA5
:1014D000C09301048CE08093020488E080930304AD
:1014E00089E0809304048AE0809305048BE0809374
:1014F0000604109207041092080410920904109236
:101500000A0410920B0481E00E94ED068091D00342
:10151000803308F042C091E0980F9093D0038093FD
:10152000F90390E0FC01EE0FFF1FE80FF91FE05CEC
:10153000FC4F88EB9BE09283818364E572E081EE4F
:1015400093E00E942A0868E472E087EE93E00E942C
:101550002A0862E572E08DEE93E00E942A086BE5AE
:1015600072E083EF93E00E942A0863E772E08BED5C
:1015700093E00E942A0864E672E085ED93E00E9401
:101580002A080E9415056093D1037093D2038093BB
:10159000D3039093D403CF910895C093F903CDCF93
:1015A000CF93DF93CDB7DEB7A7970FB6F894DEBF22
:1015B0000FBECDBF789484B5826084BD84B5816050
:1015C00084BD85B5826085BD85B5816085BD80910E
:1015D0006E00816080936E00109281008091810086
:1015E000826080938100809181008160809381007E
:1015F000809180008160809380008091B100846040
:101600008093B1008091B00081608093B0008091A0
:10161000910082608093910080919100816080931D
:101620009100809190008160809390008091A10052
:1016300082608093A1008091A10081608093A100CD
:101640008091A00081608093A00080912101826040
:1016500080932101809121018160809321018091FB
:10166000200181608093200180917A0084608093C2
:101670007A0080917A00826080937A0080917A006B
:10168000816080937A0080917A00806880937A00EC
:101690001092C100E091B302F091B40282E0808325
:1016A000E091AF02F091B0021082E091B102F091AE
:1016B000B2028FEC80831092BB02E091B702F091EE
:1016C000B80286E08083E091B502F091B602808195
:1016D00080618083E091B502F091B60280818860DC
:1016E0008083E091B502F091B602808180688083AA
:1016F000E091B502F091B60280818F7D8083809168
:10170000F903803308F052C061E087E00E947E0454
:101710008091F903282F30E0F901EE0FFF1FE20F4F
:10172000F31FE05CFC4F9081907C97609083109257
:10173000FA031092FB032CE0622F0E948A13829F0F
:10174000B001112430E020E0AB01420F531FFA0139
:10175000EE0FFF1FE40FF51FE05CFC4F908196FD3C
:1017600017C02F5F3F4F2C30310571F7813009F0E2
:1017700001C11092800082E0809381001092850068
:1017800010928400B19A80916F00826080936F0004
:10179000E091F9038E2F90E0FC01EE0FFF1FE80FA0
:1017A000F91FE05CFC4F80818064808390E080E0E2
:1017B0000E94F40182E00E94ED060E94E50660E0CE
:1017C00080E00E948E078091A20226E0829FC001E5
:1017D00011248F519C4F0E94A90261E082E30E9474
:1017E0007E0461E085E30E947E04412C512C32018D
:1017F00043948091A1028823C9F10E9415056B01D1
:101800007C016091000270910102072E000C880B90
:10181000990B0E9498114B015C018091D10390912A
:10182000D203A091D303B091D403A7019601281B42
:10183000390B4A0B5B0BCA01B9010E94981120E0D9
:1018400030E04AE754E40E9418139B01AC01C50143
:10185000B4010E94AB126B017C0120E030E0A901D1
:101860000E94911118162CF00E945308C12CD12C03
:10187000760161E080E00E948E071BA21AA21DA2E1
:101880001CA21FA21EA28E010F5F1F4F22E044E088
:10189000C701B6010E94E60E009709F497C0FC014B
:1018A00001900020E9F73197AF01481B590BBC01AB
:1018B000CE0182960E94090869E672E0CE01019687
:1018C0000E942A084EA15FA16AA17BA1CE010196C8
:1018D0000E94CB07811104C0CE0101960E94F70738
:1018E00042E050E061E772E0CE0101960E94CB0732
:1018F000811104C0CE0101960E94F707CE01019626
:101900000E94A902CE0101960E946308CE01829630
:101910000E94630881E0809380040E941505009175
:101920007004109171042091720430917304AB0122
:10193000BC01401B510B620B730B80917C04909196
:101940007D04B0E0A0E084179507A607B70708F06C
:1019500046C110E080917A041817E8F5E09176040A
:10196000F0917704E10FF11D62E080810E947E0416
:101970001F5FF0CF823061F410929000809391004D
:10198000109295001092940088BB8093710000CF54
:10199000833069F41092A00082E08093A10010923D
:1019A000A5001092A40089BB80937200F1CE811132
:1019B000EFCE1092200182E0809321011092250148
:1019C000109224018ABB80937300E2CECE018296EE
:1019D0000E94F70771CF312C80917B04381608F0F4
:1019E00061C0E32CF12CE0917804F0917904EE0DC4
:1019F000FF1D61E080810E947E04E0917804F091F7
:101A00007904EE0DFF1D60E080810E944C04D3013B
:101A1000C201032C04C0880F991FAA1FBB1F0A9480
:101A2000D2F75C016C01C094D094212C80917A048F
:101A3000281608F5022D10E0E0917604F091770465
:101A4000E00FF11F80810E9420040C5F1F4F000FE8
:101A5000111FF801EC5EFB4F892B41F480819181CD
:101A60008A299B29918380832394E0CF808191816F
:101A70008C219D21F7CFE0917804F0917904EE0D4F
:101A8000FF1D61E080810E944C0480917804909158
:101A90007904E80EF91E60E0F70180810E947E045F
:101AA00033949ACF94E1E92E94E0F92E6701F60180
:101AB000878D90A1892B31F4148E2FEF3FEF368F55
:101AC000258F11A236E0C30ED11C40E5C41644E0B8
:101AD000D40669F7B12C80917A04B81608F051C089
:101AE000A12C0B2D10E0000F111F045E1B4F209145
:101AF0007B04A21608F043C0F801608171810A2CB2
:101B000002C0769567950A94E2F7B29E900111247F
:101B10002A0D311DE4E1F4E080E0458D568D241757
:101B2000350709F401C18F5F36968A30B1F760FF3F
:101B300024C0E4E1F4E090E080E0448D411118C05D
:101B4000E0917404F0917504E20FF31F408156E0B8
:101B5000589FF001599FF00D1124EC5EFB4F448F0C
:101B6000368F258F10A2178E61E00E94210505C0D7
:101B7000019636968A30910501F7A394B8CFB394B5
:101B8000AACF10E0F70181A18111182FF6E0EF0E26
:101B9000F11CCE14DF04B1F70E94150560937004A8
:101BA0007093710480937204909373041123B9F0BD
:101BB00080913504882399F0809133049091340406
:101BC000019769F41091300411110CC062E370E0C8
:101BD00080E090E00E94E3040E9488030ACE109205
:101BE0008004F4CF0091A20226E0029FF0011124AC
:101BF000EF51FC4F94818091DF0360E0890F0E94D8
:101C00008E0741E0612F8CEF93E00E948C061D331C
:101C100009F063C08091A102811131C060E00E948F
:101C20008E074091DF035091E0032091D90330915A
:101C3000DA0342175307C1F48091DB039091DC0370
:101C40006091D5037091D603009709F46FC06115B8
:101C5000710539F4452B09F477C0FC01808190E0CF
:101C600070C00E94AD156DC01092A2024EE050E00F
:101C700065E872E08CEF93E00E947C0286C002303F
:101C8000C1F46091DB037091DC036115710561F0B3
:101C90004091DF035091E00385ED93E00E94090835
:101CA00081E08093A20277C085ED93E00E94F70760
:101CB000F7CF033009F06FC08091DB039091DC0314
:101CC000009739F00E94040F7093010260930002A4
:101CD000E7CF60E070E0CB01F7CF1A3231F48091AA
:101CE000A1028823A9F082E0DCCF1D3241F480916B
:101CF000A102882369F0F3E0F093A2024CC01F36E2
:101D000039F48091A102882319F00E9453085ECF14
:101D100019831A8241E050E0BE016F5F7F4F8BED67
:101D200093E00E94CB0752CF61701FCF6115710500
:101D300059F0232B49F0FB01808190E0919581952A
:101D40009109892B09F090CF40E150E064E772E0FF
:101D50008CEF93E00E947C0211E01093A2020E949B
:101D600015056093D1037093D2038093D3039093AE
:101D7000D4031093A10261E082E30E944C040E940C
:101D80003B0684EB90E00E94F40168EE73E080E093
:101D900090E00E94E3040E943B0818CF85ED93E099
:101DA0000E9463088BED93E00E94630883EF93E049
:101DB0000E9463088DEE93E00E94630887EE93E033
:101DC0000E94630881EE93E00C946308EF920F93F6
:101DD0001F93CF93DF93E80134E047FD34E1042EF5
:101DE000000C550B57FF03C0519541955109E32E47
:101DF000022F242FAE010E94400FCE01DF91CF9120
:101E00001F910F91EF9008951F93FC019927882748
:101E1000BC01E89411911032E9F3193010F01E3032
:101E2000C8F31B3251F01D3249F4689406C00E9479
:101E30002B0F610F711D811D911D119110531A30CF
:101E4000B0F33EF490958095709561957F4F8F4FDC
:101E50009F4F1F910895592F482F372F262F660F18
:101E6000771F881F991F660F771F881F991F620FA2
:101E7000731F841F951F660F771F881F991F089572
:101E80008F929F92AF92BF92CF92DF92EF92FF928A
:101E90000F931F93CF93DF9300D000D000D0CDB726
:101EA000DEB76A01F22EB02E102FFBE3AF2EA01684
:101EB00008F41BE31F5F012F27E0AE014F5F5F4F68
:101EC0000E94B910BC018981982F9970913009F452
:101ED0004EC09BE2E1FC04C09E2D9170E0FC49C025
:101EE0005E2D5071E82FE87083FF55C084E091119A
:101EF00001C083E0EF2DE81B8F1508F0E0E0D6016C
:101F00008E2F20E25523C9F1992329F0D6019C9305
:101F1000C60101966C0196012D5F3F4FE2FE33C072
:101F20008EE4D6018C9391E411969C9311971296AE
:101F30008C93D9018E2F90E281112AC0E20FF32FEA
:101F4000F11D10828EEF9FEF29960FB6F894DEBF39
:101F50000FBECDBFDF91CF911F910F91FF90EF90FA
:101F6000DF90CF90BF90AF909F908F9008959DE2AB
:101F7000B7CF90E2B5CF2D9381508111FCCFCE0E1B
:101F8000D11CE0E0C1CF8EE6D6018C9391E6CCCF98
:101F90009D938150D1CF482F447082FF3DC084E093
:101FA000911101C083E08F1510F4EF2DE81BD601CD
:101FB0008E2F20E2552309F1992329F0D6019C9315
:101FC000C60101966C0196012D5F3F4FE2FE1BC0DA
:101FD00089E4D6018C938EE411968C93119786E454
:101FE00012968C93D9018E2F90E2882309F4A6CF04
:101FF0009D938150FACF2D9381508111FCCFCE0E4D
:10200000D11CE0E0D9CF89E6D6018C938EE61196FB
:102010008C93119786E6E4CF9B0177FF02C030E0F6
:1020200020E0A1E0B0E0911102C0B0E0A0E0F90131
:102030003196AE0FBF1F8B2C912CBB2009F461C0D1
:102040005401EFEFAE1ABE0AAA0DBB1DFA161B060D
:1020500019F014F04F2D4A1B511188C0E3FC59C0F0
:102060007601A42FB0E2A1114FC0C40ED11C992358
:1020700009F45BC040E0D6011196F60190836D0132
:10208000552309F448C0012F060F9A81582F50712B
:1020900084FF03C0913309F4015010160CF047C0BF
:1020A000093008F008E0EEE2FE2E5B01A01AB1084C
:1020B00085019194819491082F3F320729F4D6012C
:1020C000FC92F60131966F016217730794F10217C3
:1020D00013077CF5DB01A21BB30BAA24A394B12C3C
:1020E000AC0EBD1EAA0DBB1D11968C91215031095D
:1020F000D601119628153905F4F0F60180836D019B
:10210000DBCFB12CA12CA0CFF701B1937F01A1505F
:10211000AACF9111B0CFD601942F50E302C05D93A6
:1021200091509111FCCFC40ED11C40E0ACCF01E026
:10213000BACF80E3DBCF6217730731F4963388F4AC
:10214000953311F4552369F0F6018083FD01842F46
:1021500090E2811108C0A40FB11D1C9290E080E0B4
:10216000F3CE81E3F1CF91938150F3CF911183CFDF
:102170008ACF283008F027E03327DA01990F311D84
:1021800087FD916000966105710539F432602E5F1C
:102190003D9330E32A95E1F708959F3F30F0803872
:1021A0007105610509F03C5F3C5F3D93913008F09B
:1021B0008068911DDF93CF931F930F93FF92EF924F
:1021C000192F987F9695E92F96959695E90FFF27F9
:1021D000E254FE4F99273327EE24FF24A701E7019D
:1021E00005900894079428F4360FE71EF81E491F3F
:1021F000511D660F771F881F991F0694A1F7059040
:10220000079428F4E70EF81E491F561FC11D770FCB
:10221000881F991F661F0694A1F70590079428F45C
:10222000F80E491F561FC71FD11D880F991F661F23
:10223000771F0694A1F70590079420F4490F561FC5
:10224000C71FD81F990F661F771F881F0694A9F70D
:1022500084911095177041F0D695C795579547957D
:10226000F794E7941A95C1F7E4E6F1E068941590C5
:10227000159135916591959105907FE27395E118DF
:10228000F10A430B560BC90BD009C0F7E10CF11E44
:10229000431F561FC91FD01D7EF4703311F48A9559
:1022A000E6CFE894015030F0080F0AF40027021737
:1022B00008F4202F2395022F7A3328F079E37D93B9
:1022C0002A95E9F710C07D932A9589F6069497958B
:1022D0006795379517951794E118F10A430B560B3C
:1022E000C90BD00998F023957E9173957A3308F045
:1022F00070E37C932013B8F77E9170617D9330F08A
:10230000839571E37D9370E32A95E1F71124EF90B3
:10231000FF900F911F91CF91DF91992787FD9095A5
:1023200008950E94D31108F481E00895E89409C04B
:1023300097FB3EF490958095709561957F4F8F4FF8
:102340009F4F9923A9F0F92F96E9BB279395F6950E
:10235000879577956795B795F111F8CFFAF4BB0F8C
:1023600011F460FF1BC06F5F7F4F8F4F9F4F16C0F0
:10237000882311F096E911C0772321F09EE8872F7A
:10238000762F05C0662371F096E8862F70E060E036
:102390002AF09A95660F771F881FDAF7880F9695AF
:1023A000879597F90895990F0008550FAA0BE0E853
:1023B000FEEF16161706E807F907C0F01216130607
:1023C000E407F50798F0621B730B840B950B39F447
:1023D0000A2661F0232B242B252B21F408950A26AD
:1023E00009F4A140A6958FEF811D811D089597F9ED
:1023F0009F6780E870E060E008959FEF80EC0895AB
:1024000000240A94161617061806090608950024D3
:102410000A9412161306140605060895092E03944D
:10242000000C11F4882352F0BB0F40F4BF2B11F4C1
:1024300060FF04C06F5F7F4F8F4F9F4F089557FD20
:102440009058440F551F59F05F3F71F04795880F22
:1024500097FB991F61F09F3F79F0879508951216B9
:1024600013061406551FF2CF4695F1DF08C0161665
:1024700017061806991FF1CF869571056105089416
:102480000895E894BB2766277727CB0197F908952D
:10249000052E97FB1EF400940E945F1257FD07D093
:1024A0000E947A1207FC03D04EF40C945F125095F0
:1024B0004095309521953F4F4F4F5F4F0895909530
:1024C0008095709561957F4F8F4F9F4F08950E9423
:1024D0009C12A59F900DB49F900DA49F800D911DFF
:1024E00011240895B7FF0C9467120E946712821B93
:1024F000930B0895A1E21A2EAA1BBB1BFD010DC070
:10250000AA1FBB1FEE1FFF1FA217B307E407F507A3
:1025100020F0A21BB30BE40BF50B661F771F881F7F
:10252000991F1A9469F760957095809590959B0115
:10253000AC01BD01CF010895A29FB001B39FC001BE
:10254000A39F700D811D1124911DB29F700D811DDF
:102550001124911D08955058BB27AA270E94C31229
:102560000C940E120E94001238F00E94071220F004
:1025700039F49F3F19F426F40C94FD110EF4E09504
:10258000E7FB0C94F711E92F0E941F1258F3BA17BA
:10259000620773078407950720F079F4A6F50C9479
:1025A00041120EF4E0950B2EBA2FA02D0B01B901AC
:1025B00090010C01CA01A0011124FF27591B99F0B9
:1025C000593F50F4503E68F11A16F040A22F232FC5
:1025D000342F4427585FF3CF469537952795A79515
:1025E000F0405395C9F77EF41F16BA0B620B730BBC
:1025F000840BBAF09150A1F0FF0FBB1F661F771F2D
:10260000881FC2F70EC0BA0F621F731F841F48F4E1
:10261000879577956795B795F7959E3F08F0B0CF6A
:102620009395880F08F09927EE0F97958795089551
:102630000E942C130C940E120E94071258F00E9454
:10264000001240F029F45F3F29F00C94F71151116A
:102650000C9442120C94FD110E941F1268F39923EE
:10266000B1F3552391F3951B550BBB27AA2762178E
:102670007307840738F09F5F5F4F220F331F441F9B
:10268000AA1FA9F335D00E2E3AF0E0E832D09150CF
:102690005040E695001CCAF72BD0FE2F29D0660FBC
:1026A000771F881FBB1F261737074807AB07B0E8FF
:1026B00009F0BB0B802DBF01FF2793585F4F3AF005
:1026C0009E3F510578F00C94F7110C9442125F3F35
:1026D000E4F3983ED4F3869577956795B795F7958B
:1026E0009F5FC9F7880F911D9695879597F9089573
:1026F000E1E0660F771F881FBB1F6217730784070F
:10270000BA0720F0621B730B840BBA0BEE1F88F71D
:10271000E0950895991B79E004C0991F961708F079
:10272000961B881F7A95C9F780950895EE0FFF1FB5
:10273000881F8BBF0790F691E02D19940F931F937C
:10274000CF93DF938230910510F482E090E0E09126
:102750008504F091860430E020E0B0E0A0E03097FE
:1027600099F42115310509F44AC0281B390B24308E
:102770003105D8F58A819B816115710589F1FB01CD
:1027800093838283FE0111C04081518102811381B4
:1027900048175907E0F04817590799F4109761F066
:1027A00012960C93129713961C933296CF01DF91D9
:1027B000CF911F910F910895009385041093860483
:1027C000F4CF2115310551F04217530738F0A90114
:1027D000DB019A01BD01DF01F801C1CFEF01F9CFA3
:1027E0009093860480938504CDCFFE01E20FF31F02
:1027F000819391932250310939832883D7CF209137
:10280000830430918404232B41F420911C023091E5
:102810001D02309384042093830420911A02309186
:102820001B022115310541F42DB73EB740911E0220
:1028300050911F02241B350BE0918304F091840416
:10284000E217F307A0F42E1B3F0B2817390778F087
:10285000AC014E5F5F4F2417350748F04E0F5F1FE6
:102860005093840440938304819391939FCFF0E02D
:10287000E0E09CCFCF93DF930097E9F0FC01329723
:1028800013821282A0918504B0918604ED0130E09C
:1028900020E01097A1F420813181820F931F2091B5
:1028A0008304309184042817390709F061C0F0933C
:1028B0008404E0938304DF91CF910895EA01CE1759
:1028C000DF07E8F54A815B819E0141155105B1F7AB
:1028D000E901FB83EA8349915991C40FD51FEC1795
:1028E000FD0761F4808191810296840F951FE901B3
:1028F00099838883828193819B838A83F0E0E0E0DF
:1029000012968D919C9113970097B9F52D913C915A
:102910001197CD010296820F931F2091830430916D
:1029200084042817390739F6309751F51092860438
:1029300010928504B0938404A0938304BCCFD38306
:10294000C28340815181840F951FC817D90761F454
:102950004E5F5F4F88819981480F591F5183408393
:102960008A819B81938382832115310509F0B0CF41
:10297000F0938604E09385049ECFFD01DC01C0CF77
:1029800013821282D7CF4F925F926F927F928F9273
:102990009F92AF92BF92CF92DF92EF92FF920F93EE
:1029A0001F93CF93DF938C01009799F4CB01DF91B4
:1029B000CF911F910F91FF90EF90DF90CF90BF903C
:1029C000AF909F908F907F906F905F904F900C94FE
:1029D0009E13FC01E60FF71F9C0122503109E217FC
:1029E000F30708F4AEC0D901CD91DC911197C61759
:1029F000D70720F1C530D10578F0CE0104978617AE
:102A0000970750F0C61BD70B2297C193D1936D93B4
:102A10007C93CF010E943A14C801DF91CF911F919E
:102A20000F91FF90EF90DF90CF90BF90AF909F906D
:102A30008F907F906F905F904F9008955B01AC1ADC
:102A4000BD0A4C018C0E9D1EA0918504B091860498
:102A5000512C412CF12CE12C109731F580918304FD
:102A6000909184048815990509F05CC046165706B4
:102A700008F058C080911A0290911B02009741F40F
:102A80008DB79EB740911E0250911F02841B950B7B
:102A9000E817F90708F055C0F0938404E093830425
:102AA000F90171836083B8CF8D919C911197129633
:102AB0006C90129713967C901397A815B90559F549
:102AC0006C0142E0C40ED11CCA14DB0420F1AC013D
:102AD0004A195B09DA011296159780F062827382B7
:102AE00051834083D9016D937C93E114F10471F01B
:102AF000D7011396FC93EE9312978ECF22968C0FEC
:102B00009D1FF90191838083F301EFCFF093860439
:102B1000E093850481CF4816590608F42C017D0105
:102B2000D3019ACFCB010E949E137C01009749F0FC
:102B3000AE01B8010E94A415C8010E943A14870191
:102B40006BCF10E000E068CFFB01DC0102C0019018
:102B50000D9241505040D8F70895FB01DC018D9152
:102B6000019080190110D9F3990B0895FB01DC0144
:102B700001900D920020E1F7089511E0C0ECD1E042
:102B800000E006C0802FFE010E9496132196011DD1
:0E2B9000C13CD10780E00807A9F7F894FFCFF9
:102B9E000A0017191B1D1F2123253738392F3435ED
:102BAE00362A3132332D6F303D2B000087048000E2
:102BBE00000000001B037C02B2026803E302C102A4
:102BCE00D502000000009D077C027E057D050000F9
:102BDE000000BA047A044904446F6F72204F706586
:102BEE006E004368506173733A2000436854696DF8
:102BFE00653A2000313233340054696D65723A20E3
:102C0E0000202000436F72726563742070617373CD
:102C1E00776F72640057726F6E672070617373778F
:042C2E006F7264005D
:00000001FF
