:100000000C9444010C9475010C9475010C947501C9
:100010000C9475010C9475010C9475010C94750188
:100020000C9475010C9475010C9475010C94750178
:100030000C9475010C9475010C9475010C94750168
:100040000C9475010C9475010C9475010C94750158
:100050000C9475010C9475010C9475010C945D075A
:100060000C9475010C9427070C94FD060C947501F3
:100070000C9475010C9475010C9475010C94750128
:100080000C9475010C9475010C9475010C94750118
:100090000C9475010C9475010C9475010C94750108
:1000A0000C9475010C9475010C9475010C947501F8
:1000B0000C9475010C9475010C9475010C947501E8
:1000C0000C9475010C9475010C9475010C947501D8
:1000D0000C9475010C9475010C9475010C947501C8
:1000E0000C9475010C94A1030C94A7070C94440480
:1000F0000C949D030C9468020C9437020C94FF033B
:100100000C945A020C9471030C948F030C94ED021E
:100110000C9497030C949C030C9485030C94770324
:100120000C946A030C9489050C946E030C940A02D7
:100130000C947B030C9489030C9462030C9493033A
:100140000C9446020C94A0020C945C030C94D10B0A
:100150000C9481030C9466030C9443040C943F04A8
:100160000C94CE0300002100240027002A002D005B
:100170003000330001010000040107010A01000002
:100180002200250028002B002E003100340002013F
:100190000000050108010B010000200023002600DB
:1001A00029002C002F00320000010000030106018D
:1001B00009010505050507050808080802020202ED
:1001C0000A0A0808040404040101010101010101F3
:1001D0000303030303030303040707070C0C0C0CBE
:1001E0000C0C0C0C020202020606060606060606A7
:1001F0000B0B0B0B0B0B0B0B010210202008081034
:100200002040102040800201020108040201010286
:10021000040810204080804020100804020180045F
:1002200002018040201008040201080402010102BA
:1002300004081020408001020408102040800000C3
:100240000A0B02090C0D0E08070304010000000050
:10025000000000000000000000000000000000009E
:10026000000000000000000000001211100000005B
:10027000000000000000000000000000000000007E
:1002800000000000A707D10B11241FBECFEFD1E261
:10029000DEBFCDBF00E00CBF23E0A8E6B2E001C0A6
:1002A0001D92A73AB207E1F712E0A0E0B2E0E6E45F
:1002B000F1E200E00BBF02C007900D92A836B10733
:1002C000D9F711E0C3E4D1E000E006C021970109AD
:1002D000802FFE010E94730EC234D10780E0080710
:1002E000A9F70E946B080C9491100C94000096E002
:1002F000899FD0011124AC5CBC4F90967C936E9387
:100300005F9791E091969C939197E091A103F09172
:10031000A2039091A003992339F0309751F08111F5
:1003200008C0809150031994309719F05C968C9115
:10033000FACF0895CF92DF92EF92FF920F931F931F
:1003400096E0899FF0011124EC5CFC4F11A2278DEF
:1003500030A12130310551F178F02230310509F416
:1003600051C02330310509F452C01F910F91FF9005
:10037000EF90DF90CF9008956623B9F361E070E0CD
:100380000E9477012FB7F89480916F0290917002CC
:10039000A0917102B09172022FBF80938C03909351
:1003A0008D03A0938E03B0938F03DFCF9FB7F89494
:1003B000C0906F02D0907002E0907102F0907202D3
:1003C0009FBF00918C0310918D0320918E0330917B
:1003D0008F03C01AD10AE20AF30A00919E0310911A
:1003E0009F0330E020E00C151D052E053F0550F45D
:1003F00062E070E01F910F91FF90EF90DF90CF903F
:100400000C9477016111B1CF63E070E0F3CF70E03D
:1004100060E0F0CFAF92BF92CF92DF92EF92FF9267
:100420000F931F93CF93DF936C017B018B01040F1C
:10043000151FEB015E01AE18BF08C017D10759F0B8
:100440006991D601ED91FC910190F081E02DC601FA
:100450001995892B79F7C501DF91CF911F910F91E4
:10046000FF90EF90DF90CF90BF90AF900895FC0188
:10047000538D448D252F30E0842F90E0821B930B09
:10048000541710F0CF96089501970895FC01918DAF
:10049000828D981761F0A28DAE0FBF2FB11D5D96B2
:1004A0008C91928D9F5F9F73928F90E008958FEF54
:1004B0009FEF0895FC01918D828D981731F0828D08
:1004C000E80FF11D858D90E008958FEF9FEF08955F
:1004D000FC01918D228D892F90E0805C9F4F821BC3
:1004E00091098F739927089583E792E00E9468022B
:1004F00021E0892B09F420E0822F0895FC01A48DCE
:10050000A80FB92FB11DA35ABF4F2C91848D90E035
:1005100001968F739927848FA689B7892C93A08918
:10052000B1898C91837080648C93938D848D9813A2
:1005300006C00288F389E02D80818F7D8083089535
:10054000EF92FF920F931F93CF93DF93EC0181E023
:10055000888F9B8D8C8D98131AC0E889F9898081CA
:1005600085FF15C09FB7F894EE89FF896083E889FD
:10057000F98980818370806480839FBF81E090E0EF
:10058000DF91CF911F910F91FF90EF900895F62E7C
:100590000B8D10E00F5F1F4F0F731127E02E8C8D16
:1005A0008E110CC00FB607FCFACFE889F98980815B
:1005B00085FFF5CFCE010E947E02F1CFEB8DEC0FCF
:1005C000FD2FF11DE35AFF4FF0829FB7F8940B8F78
:1005D000EA89FB8980818062CFCFCF93DF93EC01E2
:1005E000888D8823B9F0AA89BB89E889F9898C911B
:1005F00085FD03C0808186FD0DC00FB607FCF7CFD7
:100600008C9185FFF2CF808185FFEDCFCE010E94D6
:100610007E02E9CFDF91CF91089580E090E0892BB1
:1006200029F00E94740281110E94000080E090E095
:10063000892B49F080E090E0892B29F00E9400008E
:1006400081110E94000080E090E0892B49F080E059
:1006500090E0892B29F00E94000081110E94000087
:1006600080E090E0892B49F080E090E0892B29F030
:100670000E94000081110C94000008958150823185
:1006800008F05AC0E82FF0E08827E65BFC4F8F4F58
:100690000C94730E6A036E035C03620366039C038F
:1006A000710377037B038103850389038F0393031E
:1006B0009C0397039D03A103809180008F77809313
:1006C00080000895809180008F7DF9CF8091800017
:1006D000877FF5CF84B58F7784BD089584B58F7DEE
:1006E000FBCF8091B0008F778093B0000895809108
:1006F000B0008F7DF9CF809190008F77809390002C
:100700000895809190008F7DF9CF80919000877F30
:10071000F5CF8091A0008F778093A00008958091FD
:10072000A0008F7DF9CF8091A000877FF5CF8091C9
:1007300020018F77809320010895809120018F7D83
:10074000F9CF80912001877FF5CFCF93DF93282FBA
:1007500030E0F901E25CFD4F8491F901E850FE4F71
:10076000D491F901EE54FE4FC491CC23A1F0811134
:100770000E943E03EC2FF0E0EE0FFF1FE856FE4F05
:10078000A591B491EC91ED2381E090E009F480E033
:10079000DF91CF91089580E090E0FACF862F0C94FE
:1007A000A5031F93CF93DF93282F30E0F901E25C7C
:1007B000FD4F8491F901E850FE4FD491F901EE54B8
:1007C000FE4FC491CC23A9F0162F81110E943E0345
:1007D000EC2FF0E0EE0FFF1FE258FE4FA591B49111
:1007E0008FB7F894EC91111108C0D095DE23DC93FB
:1007F0008FBFDF91CF911F910895DE2BF8CF862F09
:10080000642F0C94D103CF93DF9390E0FC01E85068
:10081000FE4F24918E549E4FFC0184918823C9F091
:1008200090E0880F991FFC01EC59FE4FA591B491FF
:10083000FC01E258FE4FC591D49161110DC09FB7E4
:10084000F8948C91209582238C9388812823288387
:100850009FBFDF91CF910895623051F49FB7F89414
:100860003C91822F809583238C93E8812E2BEFCFB0
:100870008FB7F894EC912E2B2C938FBFEACF862F55
:10088000642F0C940304089590E080E00895CF93C2
:10089000DF93EC0160E08E810E94D10361E08E81E4
:1008A0000E94D10360E08E810E94D1038BE891E029
:1008B0000197F1F7DF91CF910895CF92DF92EF92F8
:1008C000FF920F931F93CF93DF936C017C0187E01E
:1008D000E80EF11CD0E0C0E0062F10E0B8010C2EAD
:1008E00002C0759567950A94E2F76170F7018191EE
:1008F0007F010E94D1032196C430D10579F7C6014A
:10090000DF91CF911F910F91FF90EF90DF90CF90EB
:100910000C944704CF92DF92EF92FF920F931F93B4
:10092000CF93DF93EC01F62E642F8C810E94D103CC
:100930008D818F3F19F060E00E94D1030F2D10E0F0
:100940008F8584FF25C06E0187E0C80ED11CF12C75
:10095000E12CB8010E2C02C0759567950A94E2F758
:100960006170F60181916F010E94D103FFEFEF1AD0
:10097000FF0A88E0E816F10461F7CE01DF91CF911C
:100980001F910F91FF90EF90DF90CF900C94470450
:10099000B80184E0759567958A95E1F7CE010E94CC
:1009A0005D046F2DCE01DF91CF911F910F91FF90CC
:1009B000EF90DF90CF900C945D0440E0682F8CE1C5
:1009C00093E00C948A04CF93DF93823029F49091C2
:1009D0002B03986090932B0380932F031092300386
:1009E00080E48093310380E18093320380E580933B
:1009F000330361E0809120030E940304809121036E
:100A00008F3F19F061E00E94030461E080912203AE
:100A10000E940304CCE1D3E09E012C51334080912D
:100A20002B0384FD0BC084E090E021962817390742
:100A300044F461E08E810E940304EECF88E090E0F0
:100A4000F4CF8BE39DE00197F1F760E08091200304
:100A50000E94D10360E0809122030E94D103809123
:100A600021038F3F19F060E00E94D10380912B0396
:100A700084FD39C063E08CE193E00E945D04CBE427
:100A8000D6E4CE010197F1F763E08CE193E00E9498
:100A90005D042197F1F763E08CE193E00E945D042F
:100AA00083E592E00197F1F762E08CE193E00E9428
:100AB0005D0480912B0380620E94DD0484E08093BA
:100AC0002C038CE00E94DD0481E00E94DD048BE3B6
:100AD0009FE10197F1F782E080932D0386E0DF919B
:100AE000CF910C94DD0480620E94DD048BE496E4D7
:100AF0000197F1F780912B0380620E94DD0483E56A
:100B000092E00197F1F780912B0380620E94DD044F
:100B1000D0CF41E00E948A0481E090E00895FC017A
:100B200080819181009711F00C94170F08950F9315
:100B30001F93CF93DF93EC0188819981009759F03F
:100B40002A813B812617370730F081E0DF91CF9172
:100B50001F910F9108958B016F5F7F4F0E94A00F2F
:100B6000009759F0998388831B830A832C813D81E8
:100B7000232B59F7FC011082E8CF80E0E7CFEF92FA
:100B8000FF920F931F93CF93DF93EC01FB01E08063
:100B9000F180E114F10411F10481158101151105B1
:100BA000A9F08C819D81080F191FB801CE010E9408
:100BB0009705882399F0288139818C819D81B7011F
:100BC000820F931F0E948A101D830C83CE01DF9138
:100BD000CF911F910F91FF90EF9008958881998197
:100BE000009711F00E94170F198218821D821C8233
:100BF0001B821A82EBCFEF92FF920F931F93CF933A
:100C0000DF931F921F92CDB7DEB78C0169831A82E2
:100C1000FC01E480F580FFEFEF1AFF0AB7010E94A4
:100C20009705882381F0F8012081318184819581A5
:100C3000BE016F5F7F4F820F931F0E948A10F801E1
:100C4000F582E48281E00F900F90DF91CF911F91A8
:100C50000F91FF90EF900895EF92FF920F931F93E3
:100C6000CF93DF93EC017B01198218821B821A82D9
:100C70001D821C82FB0101900020E9F731978F0152
:100C8000061B170BB8010E94970528813981811135
:100C900013C02115310519F0C9010E94170F1982DF
:100CA00018821D821C821B821A82DF91CF911F91B4
:100CB0000F91FF90EF9008951D830C83B701C90138
:100CC000DF91CF911F910F91FF90EF900C948A10BC
:100CD000FB0101900020E9F73197AF01461B570B4C
:100CE000DC01ED91FC910280F381E02D1994CF930A
:100CF000DF93FC01448155816081718183E792E03B
:100D00000E940A02EC0166E472E083E792E00E942E
:100D100068068C0F9D1FDF91CF9108958F929F924F
:100D2000AF92BF920F931F93CF93DF93CDB7DEB7F0
:100D3000A1970FB6F894DEBF0FBECDBF19A2423007
:100D400008F44AE08E010F5D1F4F842E912CB12CC8
:100D5000A12CA50194010E94510EE62FB901CA01F0
:100D6000EA3004F5E05DD801EE938D01232B242BAE
:100D7000252B79F790E080E0109729F0BD018CE1F8
:100D800093E00E946806A1960FB6F894DEBF0FBEEE
:100D9000CDBFDF91CF911F910F91BF90AF909F90EA
:100DA0008F900895E95CDFCFCF92DF92EF92FF92B0
:100DB0006C01990FEE08FF08F7FE16C041E06DE2E6
:100DC0008CE193E00E948A0466277727CB016C1997
:100DD0007D098E099F094AE00E948E060196FF90C8
:100DE000EF90DF90CF9008954AE0C701B601FF90E1
:100DF000EF90DF90CF900C948E061F920F920FB65B
:100E00000F9211240BB60F922F933F934F935F9342
:100E10006F937F938F939F93AF93BF93EF93FF93C2
:100E200083E792E00E947E02FF91EF91BF91AF9124
:100E30009F918F917F916F915F914F913F912F91F2
:100E40000F900BBE0F900FBE0F901F9018951F9222
:100E50000F920FB60F9211240BB60F922F938F9310
:100E60009F93EF93FF93E0918302F091840280813E
:100E7000E0918902F0918A0282FD1DC090818091EB
:100E80008C028F5F8F7320918D02821741F0E09169
:100E90008C02F0E0ED58FD4F958F80938C02FF910E
:100EA000EF919F918F912F910F900BBE0F900FBEDE
:100EB0000F901F9018958081F2CF1F920F920FB65E
:100EC0000F9211242F933F938F939F93AF93BF93D0
:100ED00080916F0290917002A0917102B0917202A4
:100EE00030916C0223E0230F2D3758F50196A11D98
:100EF000B11D20936C0280936F0290937002A093B7
:100F00007102B09372028091680290916902A0917F
:100F10006A02B0916B020196A11DB11D8093680217
:100F200090936902A0936A02B0936B02BF91AF9154
:100F30009F918F913F912F910F900FBE0F901F9017
:100F4000189526E8230F0296A11DB11DD2CF10924D
:100F500076021092750288EE93E0A0E0B0E08093F4
:100F6000770290937802A0937902B0937A0282E29A
:100F700092E0909374028093730285EC90E09093DA
:100F8000800280937F0284EC90E0909382028093B1
:100F9000810280EC90E0909384028093830281EC44
:100FA00090E0909386028093850282EC90E090938B
:100FB00088028093870286EC90E090938A02809367
:100FC000890210928C0210928D0210928E02109261
:100FD0008F021092360310923A0310923903109246
:100FE0003B0380E492E09093350380933403E0E583
:100FF000F3E01082148213821582369683E0EC3877
:10100000F807B9F784E092E09093970380939603F2
:1010100080E092E0909399038093980384E080931A
:101020009A0380939B0388E092E0909395038093CA
:1010300094038AE090E090939D0380939C0384EF57
:1010400091E090939F0380939E031092A2031092CD
:10105000A1031092900310929103109292031092A8
:1010600093031092A00310921F0310921E0384E3B7
:1010700092E090931D0380931C038DE080932003E6
:101080008FEF809321038CE08093220388E080938C
:10109000230389E0809324038AE0809325038BE077
:1010A000809326031092270310922803109229039D
:1010B00010922A0310922B0381E00E94E30468E45B
:1010C00072E086E193E00E942C0668E472E080E121
:1010D00093E00C942C06CF93DF9300D000D0CDB7D3
:1010E000DEB7789484B5826084BD84B5816084BDA8
:1010F00085B5826085BD85B5816085BD80916E00B6
:10110000816080936E0010928100809181008260E6
:101110008093810080918100816080938100809123
:1011200080008160809380008091B1008460809312
:10113000B1008091B00081608093B00080919100F7
:1011400082608093910080919100816080939100F2
:10115000809190008160809390008091A1008260D6
:101160008093A1008091A10081608093A100809173
:10117000A00081608093A000809121018260809313
:1011800021018091210181608093210180912001C2
:1011900081608093200180917A00846080937A003E
:1011A00080917A00826080937A0080917A008160D9
:1011B00080937A0080917A00806880937A00109200
:1011C000C100E0918302F091840282E08083E0918B
:1011D0007F02F09180021082E0918102F091820200
:1011E0008FEC808310928B02E0918702F09188024D
:1011F00086E08083E0918502F091860280818061A3
:101200008083E0918502F0918602808188608083EE
:10121000E0918502F0918602808180688083E09170
:101220008502F091860280818F7D808382E00E941A
:10123000E30481E00E94DD048BE39FE10197F1F775
:10124000E1E080912F038111E0E0E195F0E0E45EC0
:10125000FC4F848980680E94DD0422242A94322C69
:1012600051E05093A0038FB7F89440916F025091D2
:10127000700260917102709172028FBF8091900331
:1012800090919103A0919203B0919303481B590B45
:101290006A0B7B0B80919C0390919D03B0E0A0E0D2
:1012A00084179507A607B70708F014C110E08091CE
:1012B0009A03181760F4E0919603F0919703E10FF9
:1012C000F11D62E080810E9403041F5FF0CF912C2A
:1012D00080919B03981608F063C0E92CF12CE091F3
:1012E0009803F0919903EE0DFF1D61E080810E944B
:1012F0000304E0919803F0919903EE0DFF1D60E067
:1013000080810E94D10381E090E0A0E0B0E0092C50
:1013100004C0880F991FAA1FBB1F0A94D2F75C0153
:101320006C01C094D094812C80919A03881608F5A2
:10133000082D10E0E0919603F0919703E00FF11F64
:1013400080810E94A5030C5F1F4F000F111FF80141
:10135000EC5CFC4F892B41F4808191818A299B2987
:10136000918380838394E0CF808191818C219D2122
:10137000F7CFE0919803F0919903EE0DFF1D61E026
:1013800080810E94D1038091980390919903E80E87
:10139000F91E60E0F70180810E940304939498CFC6
:1013A00004E313E0F801878D90A1892B21F4148EBA
:1013B000368E258E11A2369653E0E037F50799F761
:1013C000D12C80919A03D81608F053C0C12CED2C73
:1013D000F12CEE0CFF1CC701845C9C4F7C0120911A
:1013E0009B03C21608F043C0F701608171810C2C89
:1013F00002C0769567950A94E2F7D29E9001112477
:101400002C0D311DE4E3F3E080E0458D568D24176B
:10141000350709F4C4C18F5F36968A30B1F760FF93
:1014200024C0E4E3F3E090E080E0448D411118C073
:10143000E0919403F0919503E20FF31F408156E091
:10144000589FF001599FF00D1124EC5CFC4F448F24
:10145000368F258F10A2178E61E00E949A0105C079
:10146000019636968A30910501F7C394B8CFD3948C
:10147000A8CF80E0F80191A19111892F0A5F1F4F39
:10148000F3E000371F07B1F79FB7F89440916F0260
:101490005091700260917102709172029FBF4093EF
:1014A0009003509391036093920370939303882366
:1014B00089F080915503882369F0809153039091BE
:1014C0005403019739F410915003111106C00E9482
:1014D0000D03C6CE1092A003FACF41E0612F8CE13C
:1014E00093E00E948A041D3309F03DC180911603E8
:1014F00090911703009709F45BC00E94D90B7B0100
:101500008091100390911103009709F455C00E9437
:10151000D90B8B01E0912F03E23008F051C0E1506C
:10152000F0E0E45EFC4F848980680E94DD048091D5
:101530006E028B3209F497C00CF044C08A3209F471
:101540009CC065E572E0CE0101960E942C0666E122
:1015500073E0CE0101960E94BF050E947706CE017E
:1015600001960E948F056BE572E083E792E00E948E
:10157000680660916E0283E792E00E94A00266E432
:1015800072E083E792E00E94680661E672E0CE01B5
:1015900001960E942C0660E173E0CE0101960E9444
:1015A000BF050E947706CE0101960E948F058FCF5E
:1015B00060E070E0CB01A3CF60E070E0CB01A9CF89
:1015C000E1E0AECF8D3209F454C08F3209F0B9CFCB
:1015D000B701FF0C880B990B0E941C0C6B017C015E
:1015E000B801110F880B990B0E941C0C9B01AC01D8
:1015F000C701B6010E94A60D6B017C014B015C0185
:10160000AC019B010E944C0E69E472E0811126C07E
:1016100026013701E89477F82FEF3FEF4FE75FE7B8
:10162000C301B2010E944C0E81110CC02FEF3FEF9D
:101630004FE75FE7C301B2010E94150C6DE472E051
:10164000181664F02FEF3FEF4FE75FE4C701B601D4
:101650000E94470E1816CCF461E572E08CE193E02D
:101660000E9468066ECFC701800F911F0E94D406AA
:1016700068CFC701801B910BF9CFE09EC001E19EAE
:10168000900DF09E900D1124F1CF2FEF3FEF4FE71B
:101690005FECC701B6010E94150C87FDDDCF20E08D
:1016A00030E0A901C701B6010E94150C87FF0CC0EC
:1016B00041E06DE28CE193E00E948A04460157010B
:1016C000B7FAB094B7F8B0942AE037ED43EA5BE399
:1016D000C501B4010E943A0D4B015C010E94180E35
:1016E0006B017C010E941A0C9B01AC01C501B40185
:1016F0000E94390D4B015C014AE0C701B6010E940E
:101700008E0641E06EE28CE193E00E948A0420E0C4
:1017100030E040E251E4C501B4010E947B0C4B0172
:101720005C010E94180E6B01F12CE12C4AE0C7010C
:10173000B6010E948E06C701B6010E941A0C9B01D9
:10174000AC01C501B4010E94390D20E030E040E257
:1017500051E40E947B0C0E94180E90E080E04AE069
:101760000E948E06EECE80916D02811114C0812FF1
:101770008D7F8D3221F086ED810F823030F4109311
:101780006E0251E050936D02DCCE612F86E193E052
:101790000E94FB05D6CE612F80E193E0F9CF617006
:1017A0005CCE80E193E00E948F0586E193E00C948B
:1017B0008F051F93FC0199278827BC01E89411919C
:1017C0001032E9F3193010F01E30C8F31B3251F01B
:1017D0001D3249F4689406C00E94000C610F711D0F
:1017E000811D911D119110531A30B0F33EF4909564
:1017F0008095709561957F4F8F4F9F4F1F910895F2
:10180000592F482F372F262F660F771F881F991FB4
:10181000660F771F881F991F620F731F841F951F04
:10182000660F771F881F991F08950E94570C08F4B0
:1018300081E00895E89409C097FB3EF49095809567
:10184000709561957F4F8F4F9F4F9923A9F0F92F86
:1018500096E9BB279395F695879577956795B79504
:10186000F111F8CFFAF4BB0F11F460FF1BC06F5FEA
:101870007F4F8F4F9F4F16C0882311F096E911C0FC
:10188000772321F09EE8872F762F05C0662371F01D
:1018900096E8862F70E060E02AF09A95660F771F31
:1018A000881FDAF7880F9695879597F90895990F0D
:1018B0000008550FAA0BE0E8FEEF16161706E8071A
:1018C000F907C0F012161306E407F50798F0621B3B
:1018D000730B840B950B39F40A2661F0232B242B10
:1018E000252B21F408950A2609F4A140A6958FEF2F
:1018F000811D811D08950E948E0C0C94FF0C0E9486
:10190000F10C38F00E94F80C20F0952311F00C94A3
:10191000E80C0C94EE0C11240C94330D0E94100D65
:1019200070F3959FC1F3950F50E0551F629FF00132
:10193000729FBB27F00DB11D639FAA27F00DB11D4B
:10194000AA1F649F6627B00DA11D661F829F2227D4
:10195000B00DA11D621F739FB00DA11D621F839F5B
:10196000A00D611D221F749F3327A00D611D231F31
:10197000849F600D211D822F762F6A2F11249F577F
:1019800050409AF0F1F088234AF0EE0FFF1FBB1F82
:10199000661F771F881F91505040A9F79E3F510541
:1019A00080F00C94E80C0C94330D5F3FE4F3983E08
:1019B000D4F3869577956795B795F795E7959F5FEB
:1019C000C1F7FE2B880F911D9695879597F908957D
:1019D00097F99F6780E870E060E008959FEF80ECE2
:1019E000089500240A941616170618060906089585
:1019F00000240A9412161306140605060895092EEB
:101A00000394000C11F4882352F0BB0F40F4BF2B59
:101A100011F460FF04C06F5F7F4F8F4F9F4F089599
:101A200057FD9058440F551F59F05F3F71F047958F
:101A3000880F97FB991F61F09F3F79F08795089574
:101A4000121613061406551FF2CF4695F1DF08C093
:101A5000161617061806991FF1CF869571056105B0
:101A600008940895E894BB2766277727CB0197F958
:101A700008955058BB27AA270E94510D0C94FF0CC3
:101A80000E94F10C38F00E94F80C20F039F49F3FCE
:101A900019F426F40C94EE0C0EF4E095E7FB0C948C
:101AA000E80CE92F0E94100D58F3BA17620773076C
:101AB0008407950720F079F4A6F50C94320D0EF406
:101AC000E0950B2EBA2FA02D0B01B90190010C014E
:101AD000CA01A0011124FF27591B99F0593F50F466
:101AE000503E68F11A16F040A22F232F342F4427BE
:101AF000585FF3CF469537952795A795F0405395B6
:101B0000C9F77EF41F16BA0B620B730B840BBAF085
:101B10009150A1F0FF0FBB1F661F771F881FC2F7F0
:101B20000EC0BA0F621F731F841F48F48795779504
:101B30006795B795F7959E3F08F0B0CF9395880FBE
:101B400008F09927EE0F9795879508950E94BA0D92
:101B50000C94FF0C0E94F80C58F00E94F10C40F01D
:101B600029F45F3F29F00C94E80C51110C94330DCB
:101B70000C94EE0C0E94100D68F39923B1F35523D9
:101B800091F3951B550BBB27AA2762177307840790
:101B900038F09F5F5F4F220F331F441FAA1FA9F326
:101BA00035D00E2E3AF0E0E832D091505040E69514
:101BB000001CCAF72BD0FE2F29D0660F771F881F75
:101BC000BB1F261737074807AB07B0E809F0BB0B68
:101BD000802DBF01FF2793585F4F3AF09E3F51057C
:101BE00078F00C94E80C0C94330D5F3FE4F3983ECE
:101BF000D4F3869577956795B795F7959F5FC9F765
:101C0000880F911D9695879597F90895E1E0660FE5
:101C1000771F881FBB1F621773078407BA0720F05E
:101C2000621B730B840BBA0BEE1F88F7E0950895C7
:101C30000E94180D88F09F5798F0B92F9927B75137
:101C4000B0F0E1F0660F771F881F991F1AF0BA9560
:101C5000C9F714C0B13091F00E94320DB1E008957F
:101C60000C94320D672F782F8827B85F39F0B93F71
:101C7000CCF3869577956795B395D9F73EF4909513
:101C80008095709561957F4F8F4F9F4F08950E946B
:101C9000570C08F48FEF08950E94570C880B990B8E
:101CA0000895A1E21A2EAA1BBB1BFD010DC0AA1F9D
:101CB000BB1FEE1FFF1FA217B307E407F50720F0B5
:101CC000A21BB30BE40BF50B661F771F881F991F30
:101CD0001A9469F760957095809590959B01AC0179
:101CE000BD01CF010895EE0FFF1F881F8BBF079026
:101CF000F691E02D19940F931F93CF93DF938230C9
:101D0000910510F482E090E0E091A503F091A60324
:101D100030E020E0B0E0A0E0309799F421153105E3
:101D200009F44AC0281B390B24303105D8F58A81C3
:101D30009B816115710589F1FB0193838283FE010B
:101D400011C0408151810281138148175907E0F089
:101D50004817590799F4109761F012960C9312974F
:101D600013961C933296CF01DF91CF911F910F9163
:101D700008950093A5031093A603F4CF2115310510
:101D800051F04217530738F0A901DB019A01BD0158
:101D9000DF01F801C1CFEF01F9CF9093A603809343
:101DA000A503CDCFFE01E20FF31F81939193225043
:101DB000310939832883D7CF2091A3033091A4031D
:101DC000232B41F420911A0230911B023093A4037B
:101DD0002093A30320911802309119022115310597
:101DE00041F42DB73EB740911C0250911D02241BB7
:101DF000350BE091A303F091A403E217F307A0F4DD
:101E00002E1B3F0B2817390778F0AC014E5F5F4F50
:101E10002417350748F04E0F5F1F5093A4034093DB
:101E2000A303819391939FCFF0E0E0E09CCFCF9309
:101E3000DF930097E9F0FC01329713821282A091A0
:101E4000A503B091A603ED0130E020E01097A1F4C6
:101E500020813181820F931F2091A3033091A4032D
:101E60002817390709F061C0F093A403E093A30396
:101E7000DF91CF910895EA01CE17DF07E8F54A8197
:101E80005B819E0141155105B1F7E901FB83EA83AE
:101E900049915991C40FD51FEC17FD0761F480815A
:101EA00091810296840F951FE9019983888382812D
:101EB00093819B838A83F0E0E0E012968D919C9160
:101EC00013970097B9F52D913C911197CD0102968A
:101ED000820F931F2091A3033091A4032817390781
:101EE00039F6309751F51092A6031092A503B093DE
:101EF000A403A093A303BCCFD383C28340815181A9
:101F0000840F951FC817D90761F44E5F5F4F888112
:101F10009981480F591F518340838A819B81938304
:101F200082832115310509F0B0CFF093A603E09329
:101F3000A5039ECFFD01DC01C0CF13821282D7CF53
:101F40004F925F926F927F928F929F92AF92BF92C9
:101F5000CF92DF92EF92FF920F931F93CF93DF9375
:101F60008C01009799F4CB01DF91CF911F910F91D4
:101F7000FF90EF90DF90CF90BF90AF909F908F90A9
:101F80007F906F905F904F900C947B0EFC01E60F5A
:101F9000F71F9C0122503109E217F30708F4AEC085
:101FA000D901CD91DC911197C617D70720F1C53023
:101FB000D10578F0CE0104978617970750F0C61B1D
:101FC000D70B2297C193D1936D937C93CF010E943D
:101FD000170FC801DF91CF911F910F91FF90EF90E4
:101FE000DF90CF90BF90AF909F908F907F906F9039
:101FF0005F904F9008955B01AC1ABD0A4C018C0EA6
:102000009D1EA091A503B091A603512C412CF12C4B
:10201000E12C109731F58091A3039091A4038815CA
:10202000990509F05CC04616570608F058C0809123
:10203000180290911902009741F48DB79EB7409114
:102040001C0250911D02841B950BE817F90708F03C
:1020500055C0F093A403E093A303F9017183608357
:10206000B8CF8D919C91119712966C901297139600
:102070007C901397A815B90559F56C0142E0C40E80
:10208000D11CCA14DB0420F1AC014A195B09DA0146
:102090001296159780F06282738251834083D90132
:1020A0006D937C93E114F10471F0D7011396FC93C6
:1020B000EE9312978ECF22968C0F9D1FF90191837C
:1020C0008083F301EFCFF093A603E093A50381CFC4
:1020D0004816590608F42C017D01D3019ACFCB0193
:1020E0000E947B0E7C01009749F0AE01B8010E946E
:1020F0008110C8010E94170F87016BCF10E000E02C
:1021000068CFFB01DC0102C001900D9241505040AC
:10211000D8F70895FB01DC0101900D920020E1F752
:10212000089511E0C3E4D1E000E006C0802FFE0175
:102130000E94730E2196011DC434D10780E0080768
:06214000A9F7F894FFCF9F
:1021460017191B1D1F2123253738392F3435362AF9
:102156003132332D6F303D2B0000A7038000000085
:102166000000A0020A023702ED02680246025A0285
:102176000000000089050A02440443040000000030
:102186003F04FF03CE030D0A006E616E00696E66A2
:10219600006F7666004F70313A20004F703A20206B
:0821A600004F70323A200000E6
:00000001FF
